{
  "_format": "hh-sol-artifact-1",
  "contractName": "CirclesERC1155",
  "sourceName": "contracts/CirclesERC1155.sol",
  "abi": [
    {
      "inputs": [],
      "stateMutability": "nonpayable",
      "type": "constructor"
    },
    {
      "inputs": [],
      "name": "CirclesERC1155__CooldownNotElapsed",
      "type": "error"
    },
    {
      "inputs": [],
      "name": "CirclesERC1155__InvalidTokenForBurn",
      "type": "error"
    },
    {
      "inputs": [],
      "name": "CirclesERC1155__NotAMinter",
      "type": "error"
    },
    {
      "inputs": [],
      "name": "CirclesERC1155__NotAnAdmin",
      "type": "error"
    },
    {
      "inputs": [],
      "name": "CirclesForge__CannotTradeForSameToken",
      "type": "error"
    },
    {
      "inputs": [],
      "name": "CirclesForge__InvalidDesiredToken",
      "type": "error"
    },
    {
      "inputs": [],
      "name": "CirclesForge__InvalidTokenForTrade",
      "type": "error"
    },
    {
      "anonymous": false,
      "inputs": [
        {
          "indexed": true,
          "internalType": "address",
          "name": "account",
          "type": "address"
        },
        {
          "indexed": true,
          "internalType": "address",
          "name": "operator",
          "type": "address"
        },
        {
          "indexed": false,
          "internalType": "bool",
          "name": "approved",
          "type": "bool"
        }
      ],
      "name": "ApprovalForAll",
      "type": "event"
    },
    {
      "anonymous": false,
      "inputs": [
        {
          "indexed": true,
          "internalType": "address",
          "name": "account",
          "type": "address"
        },
        {
          "indexed": true,
          "internalType": "uint256",
          "name": "tokenId",
          "type": "uint256"
        }
      ],
      "name": "Burned",
      "type": "event"
    },
    {
      "anonymous": false,
      "inputs": [],
      "name": "DefaultAdminDelayChangeCanceled",
      "type": "event"
    },
    {
      "anonymous": false,
      "inputs": [
        {
          "indexed": false,
          "internalType": "uint48",
          "name": "newDelay",
          "type": "uint48"
        },
        {
          "indexed": false,
          "internalType": "uint48",
          "name": "effectSchedule",
          "type": "uint48"
        }
      ],
      "name": "DefaultAdminDelayChangeScheduled",
      "type": "event"
    },
    {
      "anonymous": false,
      "inputs": [],
      "name": "DefaultAdminTransferCanceled",
      "type": "event"
    },
    {
      "anonymous": false,
      "inputs": [
        {
          "indexed": true,
          "internalType": "address",
          "name": "newAdmin",
          "type": "address"
        },
        {
          "indexed": false,
          "internalType": "uint48",
          "name": "acceptSchedule",
          "type": "uint48"
        }
      ],
      "name": "DefaultAdminTransferScheduled",
      "type": "event"
    },
    {
      "anonymous": false,
      "inputs": [
        {
          "indexed": true,
          "internalType": "address",
          "name": "account",
          "type": "address"
        },
        {
          "indexed": true,
          "internalType": "uint256",
          "name": "tokenId",
          "type": "uint256"
        }
      ],
      "name": "Minted",
      "type": "event"
    },
    {
      "anonymous": false,
      "inputs": [
        {
          "indexed": true,
          "internalType": "bytes32",
          "name": "role",
          "type": "bytes32"
        },
        {
          "indexed": true,
          "internalType": "bytes32",
          "name": "previousAdminRole",
          "type": "bytes32"
        },
        {
          "indexed": true,
          "internalType": "bytes32",
          "name": "newAdminRole",
          "type": "bytes32"
        }
      ],
      "name": "RoleAdminChanged",
      "type": "event"
    },
    {
      "anonymous": false,
      "inputs": [
        {
          "indexed": true,
          "internalType": "bytes32",
          "name": "role",
          "type": "bytes32"
        },
        {
          "indexed": true,
          "internalType": "address",
          "name": "account",
          "type": "address"
        },
        {
          "indexed": true,
          "internalType": "address",
          "name": "sender",
          "type": "address"
        }
      ],
      "name": "RoleGranted",
      "type": "event"
    },
    {
      "anonymous": false,
      "inputs": [
        {
          "indexed": true,
          "internalType": "bytes32",
          "name": "role",
          "type": "bytes32"
        },
        {
          "indexed": true,
          "internalType": "address",
          "name": "account",
          "type": "address"
        },
        {
          "indexed": true,
          "internalType": "address",
          "name": "sender",
          "type": "address"
        }
      ],
      "name": "RoleRevoked",
      "type": "event"
    },
    {
      "anonymous": false,
      "inputs": [
        {
          "indexed": true,
          "internalType": "address",
          "name": "user",
          "type": "address"
        },
        {
          "indexed": true,
          "internalType": "uint256",
          "name": "tokenIdSold",
          "type": "uint256"
        },
        {
          "indexed": true,
          "internalType": "uint256",
          "name": "tokenIdBought",
          "type": "uint256"
        }
      ],
      "name": "Traded",
      "type": "event"
    },
    {
      "anonymous": false,
      "inputs": [
        {
          "indexed": true,
          "internalType": "address",
          "name": "operator",
          "type": "address"
        },
        {
          "indexed": true,
          "internalType": "address",
          "name": "from",
          "type": "address"
        },
        {
          "indexed": true,
          "internalType": "address",
          "name": "to",
          "type": "address"
        },
        {
          "indexed": false,
          "internalType": "uint256[]",
          "name": "ids",
          "type": "uint256[]"
        },
        {
          "indexed": false,
          "internalType": "uint256[]",
          "name": "values",
          "type": "uint256[]"
        }
      ],
      "name": "TransferBatch",
      "type": "event"
    },
    {
      "anonymous": false,
      "inputs": [
        {
          "indexed": true,
          "internalType": "address",
          "name": "operator",
          "type": "address"
        },
        {
          "indexed": true,
          "internalType": "address",
          "name": "from",
          "type": "address"
        },
        {
          "indexed": true,
          "internalType": "address",
          "name": "to",
          "type": "address"
        },
        {
          "indexed": false,
          "internalType": "uint256",
          "name": "id",
          "type": "uint256"
        },
        {
          "indexed": false,
          "internalType": "uint256",
          "name": "value",
          "type": "uint256"
        }
      ],
      "name": "TransferSingle",
      "type": "event"
    },
    {
      "anonymous": false,
      "inputs": [
        {
          "indexed": false,
          "internalType": "string",
          "name": "value",
          "type": "string"
        },
        {
          "indexed": true,
          "internalType": "uint256",
          "name": "id",
          "type": "uint256"
        }
      ],
      "name": "URI",
      "type": "event"
    },
    {
      "inputs": [],
      "name": "COOLDOWN_TIME",
      "outputs": [
        {
          "internalType": "uint256",
          "name": "",
          "type": "uint256"
        }
      ],
      "stateMutability": "view",
      "type": "function"
    },
    {
      "inputs": [],
      "name": "DEFAULT_ADMIN_ROLE",
      "outputs": [
        {
          "internalType": "bytes32",
          "name": "",
          "type": "bytes32"
        }
      ],
      "stateMutability": "view",
      "type": "function"
    },
    {
      "inputs": [],
      "name": "MINTER_ROLE",
      "outputs": [
        {
          "internalType": "bytes32",
          "name": "",
          "type": "bytes32"
        }
      ],
      "stateMutability": "view",
      "type": "function"
    },
    {
      "inputs": [],
      "name": "TOKEN_ID_0",
      "outputs": [
        {
          "internalType": "uint256",
          "name": "",
          "type": "uint256"
        }
      ],
      "stateMutability": "view",
      "type": "function"
    },
    {
      "inputs": [],
      "name": "TOKEN_ID_1",
      "outputs": [
        {
          "internalType": "uint256",
          "name": "",
          "type": "uint256"
        }
      ],
      "stateMutability": "view",
      "type": "function"
    },
    {
      "inputs": [],
      "name": "TOKEN_ID_2",
      "outputs": [
        {
          "internalType": "uint256",
          "name": "",
          "type": "uint256"
        }
      ],
      "stateMutability": "view",
      "type": "function"
    },
    {
      "inputs": [],
      "name": "TOKEN_ID_3",
      "outputs": [
        {
          "internalType": "uint256",
          "name": "",
          "type": "uint256"
        }
      ],
      "stateMutability": "view",
      "type": "function"
    },
    {
      "inputs": [],
      "name": "TOKEN_ID_4",
      "outputs": [
        {
          "internalType": "uint256",
          "name": "",
          "type": "uint256"
        }
      ],
      "stateMutability": "view",
      "type": "function"
    },
    {
      "inputs": [],
      "name": "TOKEN_ID_5",
      "outputs": [
        {
          "internalType": "uint256",
          "name": "",
          "type": "uint256"
        }
      ],
      "stateMutability": "view",
      "type": "function"
    },
    {
      "inputs": [],
      "name": "TOKEN_ID_6",
      "outputs": [
        {
          "internalType": "uint256",
          "name": "",
          "type": "uint256"
        }
      ],
      "stateMutability": "view",
      "type": "function"
    },
    {
      "inputs": [],
      "name": "acceptDefaultAdminTransfer",
      "outputs": [],
      "stateMutability": "nonpayable",
      "type": "function"
    },
    {
      "inputs": [
        {
          "internalType": "address",
          "name": "account",
          "type": "address"
        },
        {
          "internalType": "uint256",
          "name": "id",
          "type": "uint256"
        }
      ],
      "name": "balanceOf",
      "outputs": [
        {
          "internalType": "uint256",
          "name": "",
          "type": "uint256"
        }
      ],
      "stateMutability": "view",
      "type": "function"
    },
    {
      "inputs": [
        {
          "internalType": "address[]",
          "name": "accounts",
          "type": "address[]"
        },
        {
          "internalType": "uint256[]",
          "name": "ids",
          "type": "uint256[]"
        }
      ],
      "name": "balanceOfBatch",
      "outputs": [
        {
          "internalType": "uint256[]",
          "name": "",
          "type": "uint256[]"
        }
      ],
      "stateMutability": "view",
      "type": "function"
    },
    {
      "inputs": [
        {
          "internalType": "address",
          "name": "newAdmin",
          "type": "address"
        }
      ],
      "name": "beginDefaultAdminTransfer",
      "outputs": [],
      "stateMutability": "nonpayable",
      "type": "function"
    },
    {
      "inputs": [
        {
          "internalType": "address",
          "name": "account",
          "type": "address"
        },
        {
          "internalType": "uint256",
          "name": "tokenId",
          "type": "uint256"
        }
      ],
      "name": "burn",
      "outputs": [],
      "stateMutability": "nonpayable",
      "type": "function"
    },
    {
      "inputs": [],
      "name": "cancelDefaultAdminTransfer",
      "outputs": [],
      "stateMutability": "nonpayable",
      "type": "function"
    },
    {
      "inputs": [
        {
          "internalType": "uint48",
          "name": "newDelay",
          "type": "uint48"
        }
      ],
      "name": "changeDefaultAdminDelay",
      "outputs": [],
      "stateMutability": "nonpayable",
      "type": "function"
    },
    {
      "inputs": [],
      "name": "defaultAdmin",
      "outputs": [
        {
          "internalType": "address",
          "name": "",
          "type": "address"
        }
      ],
      "stateMutability": "view",
      "type": "function"
    },
    {
      "inputs": [],
      "name": "defaultAdminDelay",
      "outputs": [
        {
          "internalType": "uint48",
          "name": "",
          "type": "uint48"
        }
      ],
      "stateMutability": "view",
      "type": "function"
    },
    {
      "inputs": [],
      "name": "defaultAdminDelayIncreaseWait",
      "outputs": [
        {
          "internalType": "uint48",
          "name": "",
          "type": "uint48"
        }
      ],
      "stateMutability": "view",
      "type": "function"
    },
    {
      "inputs": [
        {
          "internalType": "address",
          "name": "user",
          "type": "address"
        }
      ],
      "name": "getLastMintTimestamp",
      "outputs": [
        {
          "internalType": "uint256",
          "name": "",
          "type": "uint256"
        }
      ],
      "stateMutability": "view",
      "type": "function"
    },
    {
      "inputs": [
        {
          "internalType": "bytes32",
          "name": "role",
          "type": "bytes32"
        }
      ],
      "name": "getRoleAdmin",
      "outputs": [
        {
          "internalType": "bytes32",
          "name": "",
          "type": "bytes32"
        }
      ],
      "stateMutability": "view",
      "type": "function"
    },
    {
      "inputs": [
        {
          "internalType": "bytes32",
          "name": "role",
          "type": "bytes32"
        },
        {
          "internalType": "address",
          "name": "account",
          "type": "address"
        }
      ],
      "name": "grantRole",
      "outputs": [],
      "stateMutability": "nonpayable",
      "type": "function"
    },
    {
      "inputs": [
        {
          "internalType": "bytes32",
          "name": "role",
          "type": "bytes32"
        },
        {
          "internalType": "address",
          "name": "account",
          "type": "address"
        }
      ],
      "name": "hasRole",
      "outputs": [
        {
          "internalType": "bool",
          "name": "",
          "type": "bool"
        }
      ],
      "stateMutability": "view",
      "type": "function"
    },
    {
      "inputs": [
        {
          "internalType": "address",
          "name": "account",
          "type": "address"
        },
        {
          "internalType": "address",
          "name": "operator",
          "type": "address"
        }
      ],
      "name": "isApprovedForAll",
      "outputs": [
        {
          "internalType": "bool",
          "name": "",
          "type": "bool"
        }
      ],
      "stateMutability": "view",
      "type": "function"
    },
    {
      "inputs": [
        {
          "internalType": "address",
          "name": "account",
          "type": "address"
        },
        {
          "internalType": "uint256",
          "name": "tokenId",
          "type": "uint256"
        }
      ],
      "name": "mint",
      "outputs": [],
      "stateMutability": "nonpayable",
      "type": "function"
    },
    {
      "inputs": [],
      "name": "owner",
      "outputs": [
        {
          "internalType": "address",
          "name": "",
          "type": "address"
        }
      ],
      "stateMutability": "view",
      "type": "function"
    },
    {
      "inputs": [],
      "name": "pendingDefaultAdmin",
      "outputs": [
        {
          "internalType": "address",
          "name": "newAdmin",
          "type": "address"
        },
        {
          "internalType": "uint48",
          "name": "schedule",
          "type": "uint48"
        }
      ],
      "stateMutability": "view",
      "type": "function"
    },
    {
      "inputs": [],
      "name": "pendingDefaultAdminDelay",
      "outputs": [
        {
          "internalType": "uint48",
          "name": "newDelay",
          "type": "uint48"
        },
        {
          "internalType": "uint48",
          "name": "schedule",
          "type": "uint48"
        }
      ],
      "stateMutability": "view",
      "type": "function"
    },
    {
      "inputs": [
        {
          "internalType": "bytes32",
          "name": "role",
          "type": "bytes32"
        },
        {
          "internalType": "address",
          "name": "account",
          "type": "address"
        }
      ],
      "name": "renounceRole",
      "outputs": [],
      "stateMutability": "nonpayable",
      "type": "function"
    },
    {
      "inputs": [
        {
          "internalType": "bytes32",
          "name": "role",
          "type": "bytes32"
        },
        {
          "internalType": "address",
          "name": "account",
          "type": "address"
        }
      ],
      "name": "revokeRole",
      "outputs": [],
      "stateMutability": "nonpayable",
      "type": "function"
    },
    {
      "inputs": [],
      "name": "rollbackDefaultAdminDelay",
      "outputs": [],
      "stateMutability": "nonpayable",
      "type": "function"
    },
    {
      "inputs": [
        {
          "internalType": "address",
          "name": "from",
          "type": "address"
        },
        {
          "internalType": "address",
          "name": "to",
          "type": "address"
        },
        {
          "internalType": "uint256[]",
          "name": "ids",
          "type": "uint256[]"
        },
        {
          "internalType": "uint256[]",
          "name": "amounts",
          "type": "uint256[]"
        },
        {
          "internalType": "bytes",
          "name": "data",
          "type": "bytes"
        }
      ],
      "name": "safeBatchTransferFrom",
      "outputs": [],
      "stateMutability": "nonpayable",
      "type": "function"
    },
    {
      "inputs": [
        {
          "internalType": "address",
          "name": "from",
          "type": "address"
        },
        {
          "internalType": "address",
          "name": "to",
          "type": "address"
        },
        {
          "internalType": "uint256",
          "name": "id",
          "type": "uint256"
        },
        {
          "internalType": "uint256",
          "name": "amount",
          "type": "uint256"
        },
        {
          "internalType": "bytes",
          "name": "data",
          "type": "bytes"
        }
      ],
      "name": "safeTransferFrom",
      "outputs": [],
      "stateMutability": "nonpayable",
      "type": "function"
    },
    {
      "inputs": [
        {
          "internalType": "address",
          "name": "operator",
          "type": "address"
        },
        {
          "internalType": "bool",
          "name": "approved",
          "type": "bool"
        }
      ],
      "name": "setApprovalForAll",
      "outputs": [],
      "stateMutability": "nonpayable",
      "type": "function"
    },
    {
      "inputs": [
        {
          "internalType": "address",
          "name": "_forgingContract",
          "type": "address"
        }
      ],
      "name": "setForgingContract",
      "outputs": [],
      "stateMutability": "nonpayable",
      "type": "function"
    },
    {
      "inputs": [
        {
          "internalType": "bytes4",
          "name": "interfaceId",
          "type": "bytes4"
        }
      ],
      "name": "supportsInterface",
      "outputs": [
        {
          "internalType": "bool",
          "name": "",
          "type": "bool"
        }
      ],
      "stateMutability": "view",
      "type": "function"
    },
    {
      "inputs": [
        {
          "internalType": "uint256",
          "name": "tokenId",
          "type": "uint256"
        },
        {
          "internalType": "uint256",
          "name": "desiredToken",
          "type": "uint256"
        }
      ],
      "name": "tradeToken",
      "outputs": [],
      "stateMutability": "nonpayable",
      "type": "function"
    },
    {
      "inputs": [
        {
          "internalType": "uint256",
          "name": "",
          "type": "uint256"
        }
      ],
      "name": "uri",
      "outputs": [
        {
          "internalType": "string",
          "name": "",
          "type": "string"
        }
      ],
      "stateMutability": "view",
      "type": "function"
    }
  ],
  "bytecode": "0x60806040523480156200001157600080fd5b5062015180336040518060600160405280603a8152602001620057a0603a91396200004281620000f760201b60201c565b50600073ffffffffffffffffffffffffffffffffffffffff168173ffffffffffffffffffffffffffffffffffffffff1603620000b5576040517f08c379a0000000000000000000000000000000000000000000000000000000008152600401620000ac90620003e0565b60405180910390fd5b816004601a6101000a81548165ffffffffffff021916908365ffffffffffff160217905550620000ef6000801b826200010c60201b60201c565b5050620007fb565b80600290816200010891906200067c565b5050565b6000801b8203620001da57600073ffffffffffffffffffffffffffffffffffffffff166200013f620001f060201b60201c565b73ffffffffffffffffffffffffffffffffffffffff161462000198576040517f08c379a00000000000000000000000000000000000000000000000000000000081526004016200018f90620007d9565b60405180910390fd5b80600560006101000a81548173ffffffffffffffffffffffffffffffffffffffff021916908373ffffffffffffffffffffffffffffffffffffffff1602179055505b620001ec82826200021a60201b60201c565b5050565b6000600560009054906101000a900473ffffffffffffffffffffffffffffffffffffffff16905090565b6200022c82826200030c60201b60201c565b620003085760016003600084815260200190815260200160002060000160008373ffffffffffffffffffffffffffffffffffffffff1673ffffffffffffffffffffffffffffffffffffffff16815260200190815260200160002060006101000a81548160ff021916908315150217905550620002ad6200037760201b60201c565b73ffffffffffffffffffffffffffffffffffffffff168173ffffffffffffffffffffffffffffffffffffffff16837f2f8788117e7eff1d82e926ec794901d17c78024a50270940304540a733656f0d60405160405180910390a45b5050565b60006003600084815260200190815260200160002060000160008373ffffffffffffffffffffffffffffffffffffffff1673ffffffffffffffffffffffffffffffffffffffff16815260200190815260200160002060009054906101000a900460ff16905092915050565b600033905090565b600082825260208201905092915050565b7f416363657373436f6e74726f6c3a20302064656661756c742061646d696e0000600082015250565b6000620003c8601e836200037f565b9150620003d58262000390565b602082019050919050565b60006020820190508181036000830152620003fb81620003b9565b9050919050565b600081519050919050565b7f4e487b7100000000000000000000000000000000000000000000000000000000600052604160045260246000fd5b7f4e487b7100000000000000000000000000000000000000000000000000000000600052602260045260246000fd5b600060028204905060018216806200048457607f821691505b6020821081036200049a57620004996200043c565b5b50919050565b60008190508160005260206000209050919050565b60006020601f8301049050919050565b600082821b905092915050565b600060088302620005047fffffffffffffffffffffffffffffffffffffffffffffffffffffffffffffffff82620004c5565b620005108683620004c5565b95508019841693508086168417925050509392505050565b6000819050919050565b6000819050919050565b60006200055d62000557620005518462000528565b62000532565b62000528565b9050919050565b6000819050919050565b62000579836200053c565b62000591620005888262000564565b848454620004d2565b825550505050565b600090565b620005a862000599565b620005b58184846200056e565b505050565b5b81811015620005dd57620005d16000826200059e565b600181019050620005bb565b5050565b601f8211156200062c57620005f681620004a0565b6200060184620004b5565b8101602085101562000611578190505b620006296200062085620004b5565b830182620005ba565b50505b505050565b600082821c905092915050565b6000620006516000198460080262000631565b1980831691505092915050565b60006200066c83836200063e565b9150826002028217905092915050565b620006878262000402565b67ffffffffffffffff811115620006a357620006a26200040d565b5b620006af82546200046b565b620006bc828285620005e1565b600060209050601f831160018114620006f45760008415620006df578287015190505b620006eb85826200065e565b8655506200075b565b601f1984166200070486620004a0565b60005b828110156200072e5784890151825560018201915060208501945060208101905062000707565b868310156200074e57848901516200074a601f8916826200063e565b8355505b6001600288020188555050505b505050505050565b7f416363657373436f6e74726f6c3a2064656661756c742061646d696e20616c7260008201527f65616479206772616e7465640000000000000000000000000000000000000000602082015250565b6000620007c1602c836200037f565b9150620007ce8262000763565b604082019050919050565b60006020820190508181036000830152620007f481620007b2565b9050919050565b614f95806200080b6000396000f3fe608060405234801561001057600080fd5b506004361061023c5760003560e01c80637d2632451161013b578063cc8463c8116100b8578063d602b9fd1161007c578063d602b9fd1461066d578063d752f33814610677578063e5617bba14610695578063e985e9c5146106c5578063f242432a146106f55761023c565b8063cc8463c8146105ec578063cefc14291461060a578063cf6eefb714610614578063d539139314610633578063d547741f146106515761023c565b8063a1eda53c116100ff578063a1eda53c14610557578063a217fddf14610576578063a22cb46514610594578063b605cd30146105b0578063c1b0adc9146105ce5761023c565b80637d263245146104b157806384ef8ffc146104cf5780638da5cb5b146104ed57806391d148541461050b5780639dc29fac1461053b5761023c565b80632f2ff15d116101c9578063634e93da1161018d578063634e93da1461041f578063649a5ec71461043b57806367dde6d5146104575780636ad9e4b514610475578063732dcfa8146104935761023c565b80632f2ff15d1461037f57806336568abe1461039b57806340c10f19146103b757806344c14e96146103d35780634e1273f4146103ef5761023c565b80630e89341c116102105780630e89341c146102c95780630f73bcce146102f9578063248a9ca3146103175780632d854d4c146103475780632eb2c2d6146103635761023c565b8062fdd58e1461024157806301ffc9a714610271578063022d63fb146102a15780630aa6220b146102bf575b600080fd5b61025b6004803603810190610256919061333f565b610711565b604051610268919061338e565b60405180910390f35b61028b60048036038101906102869190613401565b6107d9565b6040516102989190613449565b60405180910390f35b6102a96107eb565b6040516102b69190613485565b60405180910390f35b6102c76107f6565b005b6102e360048036038101906102de91906134a0565b61080e565b6040516102f0919061355d565b60405180910390f35b6103016108a2565b60405161030e919061338e565b60405180910390f35b610331600480360381019061032c91906135b5565b6108a7565b60405161033e91906135f1565b60405180910390f35b610361600480360381019061035c919061360c565b6108c7565b005b61037d60048036038101906103789190613849565b6109e2565b005b61039960048036038101906103949190613918565b610a83565b005b6103b560048036038101906103b09190613918565b610ad6565b005b6103d160048036038101906103cc919061333f565b610be7565b005b6103ed60048036038101906103e89190613958565b610d82565b005b61040960048036038101906104049190613a48565b610ef8565b6040516104169190613b7e565b60405180910390f35b61043960048036038101906104349190613958565b611011565b005b61045560048036038101906104509190613bcc565b61102b565b005b61045f611045565b60405161046c919061338e565b60405180910390f35b61047d61104a565b60405161048a919061338e565b60405180910390f35b61049b61104f565b6040516104a8919061338e565b60405180910390f35b6104b9611054565b6040516104c6919061338e565b60405180910390f35b6104d7611059565b6040516104e49190613c08565b60405180910390f35b6104f5611083565b6040516105029190613c08565b60405180910390f35b61052560048036038101906105209190613918565b611092565b6040516105329190613449565b60405180910390f35b6105556004803603810190610550919061333f565b6110fd565b005b61055f6111ca565b60405161056d929190613c23565b60405180910390f35b61057e61122a565b60405161058b91906135f1565b60405180910390f35b6105ae60048036038101906105a99190613c78565b611231565b005b6105b8611247565b6040516105c5919061338e565b60405180910390f35b6105d661124c565b6040516105e3919061338e565b60405180910390f35b6105f4611251565b6040516106019190613485565b60405180910390f35b6106126112bf565b005b61061c61134c565b60405161062a929190613cb8565b60405180910390f35b61063b61138f565b60405161064891906135f1565b60405180910390f35b61066b60048036038101906106669190613918565b6113b3565b005b610675611406565b005b61067f61141e565b60405161068c919061338e565b60405180910390f35b6106af60048036038101906106aa9190613958565b611423565b6040516106bc919061338e565b60405180910390f35b6106df60048036038101906106da9190613ce1565b61146c565b6040516106ec9190613449565b60405180910390f35b61070f600480360381019061070a9190613d21565b611500565b005b60008073ffffffffffffffffffffffffffffffffffffffff168373ffffffffffffffffffffffffffffffffffffffff1603610781576040517f08c379a000000000000000000000000000000000000000000000000000000000815260040161077890613e2a565b60405180910390fd5b60008083815260200190815260200160002060008473ffffffffffffffffffffffffffffffffffffffff1673ffffffffffffffffffffffffffffffffffffffff16815260200190815260200160002054905092915050565b60006107e4826115a1565b9050919050565b600062069780905090565b6000801b6108038161161b565b61080b61162f565b50565b60606002805461081d90613e79565b80601f016020809104026020016040519081016040528092919081815260200182805461084990613e79565b80156108965780601f1061086b57610100808354040283529160200191610896565b820191906000526020600020905b81548152906001019060200180831161087957829003601f168201915b50505050509050919050565b600381565b600060036000838152602001908152602001600020600101549050919050565b600081101580156108d9575060028111155b61090f576040517f7ba6c62f00000000000000000000000000000000000000000000000000000000815260040160405180910390fd5b600682111561094a576040517f2a67ffdc00000000000000000000000000000000000000000000000000000000815260040160405180910390fd5b808203610983576040517f4253abf100000000000000000000000000000000000000000000000000000000815260040160405180910390fd5b61098f3383600161163c565b6109993382610be7565b80823373ffffffffffffffffffffffffffffffffffffffff167f78d2a71fcafab043e19f93e059dae12d27022e6cf5d2d55df924207e6a0ab29e60405160405180910390a45050565b6109ea611882565b73ffffffffffffffffffffffffffffffffffffffff168573ffffffffffffffffffffffffffffffffffffffff161480610a305750610a2f85610a2a611882565b61146c565b5b610a6f576040517f08c379a0000000000000000000000000000000000000000000000000000000008152600401610a6690613f1c565b60405180910390fd5b610a7c858585858561188a565b5050505050565b6000801b8203610ac8576040517f08c379a0000000000000000000000000000000000000000000000000000000008152600401610abf90613fae565b60405180910390fd5b610ad28282611bab565b5050565b6000801b82148015610b1a5750610aeb611059565b73ffffffffffffffffffffffffffffffffffffffff168173ffffffffffffffffffffffffffffffffffffffff16145b15610bd957600080610b2a61134c565b91509150600073ffffffffffffffffffffffffffffffffffffffff168273ffffffffffffffffffffffffffffffffffffffff16148015610b6f5750610b6e81611bcc565b5b8015610b805750610b7f81611be1565b5b610bbf576040517f08c379a0000000000000000000000000000000000000000000000000000000008152600401610bb690614040565b60405180910390fd5b600460146101000a81549065ffffffffffff021916905550505b610be38282611bf5565b5050565b60028111610cbd57603c600760003373ffffffffffffffffffffffffffffffffffffffff1673ffffffffffffffffffffffffffffffffffffffff1681526020019081526020016000205442610c3c919061408f565b1015610c74576040517f3b5a910b00000000000000000000000000000000000000000000000000000000815260040160405180910390fd5b42600760003373ffffffffffffffffffffffffffffffffffffffff1673ffffffffffffffffffffffffffffffffffffffff16815260200190815260200160002081905550610d1e565b610ce77f9f2df0fed2c77648de5860a4cc508cd0818c85b8b8a1ab4ceeef8d981c8956a633611092565b610d1d576040517f7b628f9f00000000000000000000000000000000000000000000000000000000815260040160405180910390fd5b5b610d3a8282600160405180602001604052806000815250611c78565b803373ffffffffffffffffffffffffffffffffffffffff167f30385c845b448a36257a6a1716e6ad2e1bc2cbe333cde1e69fe849ad6511adfe60405160405180910390a35050565b610d8f6000801b33611092565b610dc5576040517f4c7a419500000000000000000000000000000000000000000000000000000000815260040160405180910390fd5b600073ffffffffffffffffffffffffffffffffffffffff16600660009054906101000a900473ffffffffffffffffffffffffffffffffffffffff1673ffffffffffffffffffffffffffffffffffffffff1614610e6857610e677f9f2df0fed2c77648de5860a4cc508cd0818c85b8b8a1ab4ceeef8d981c8956a6600660009054906101000a900473ffffffffffffffffffffffffffffffffffffffff166113b3565b5b80600660006101000a81548173ffffffffffffffffffffffffffffffffffffffff021916908373ffffffffffffffffffffffffffffffffffffffff160217905550610ef57f9f2df0fed2c77648de5860a4cc508cd0818c85b8b8a1ab4ceeef8d981c8956a6600660009054906101000a900473ffffffffffffffffffffffffffffffffffffffff16610a83565b50565b60608151835114610f3e576040517f08c379a0000000000000000000000000000000000000000000000000000000008152600401610f3590614135565b60405180910390fd5b6000835167ffffffffffffffff811115610f5b57610f5a613651565b5b604051908082528060200260200182016040528015610f895781602001602082028036833780820191505090505b50905060005b845181101561100657610fd6858281518110610fae57610fad614155565b5b6020026020010151858381518110610fc957610fc8614155565b5b6020026020010151610711565b828281518110610fe957610fe8614155565b5b60200260200101818152505080610fff90614184565b9050610f8f565b508091505092915050565b6000801b61101e8161161b565b61102782611e28565b5050565b6000801b6110388161161b565b61104182611ea3565b5050565b600281565b600181565b600481565b603c81565b6000600560009054906101000a900473ffffffffffffffffffffffffffffffffffffffff16905090565b600061108d611059565b905090565b60006003600084815260200190815260200160002060000160008373ffffffffffffffffffffffffffffffffffffffff1673ffffffffffffffffffffffffffffffffffffffff16815260200190815260200160002060009054906101000a900460ff16905092915050565b6111277f9f2df0fed2c77648de5860a4cc508cd0818c85b8b8a1ab4ceeef8d981c8956a633611092565b15801561113f5750600381108061113e5750600681115b5b15611176576040517fdc1be6e600000000000000000000000000000000000000000000000000000000815260040160405180910390fd5b6111828282600161163c565b808273ffffffffffffffffffffffffffffffffffffffff167f696de425f79f4a40bc6d2122ca50507f0efbeabbff86a84871b7196ab8ea8df760405160405180910390a35050565b6000806005601a9054906101000a900465ffffffffffff1690506111ed81611bcc565b80156111ff57506111fd81611be1565b155b61120b57600080611222565b600560149054906101000a900465ffffffffffff16815b915091509091565b6000801b81565b61124361123c611882565b8383611f0a565b5050565b600681565b600081565b6000806005601a9054906101000a900465ffffffffffff16905061127481611bcc565b8015611285575061128481611be1565b5b6112a3576004601a9054906101000a900465ffffffffffff166112b9565b600560149054906101000a900465ffffffffffff165b91505090565b60006112c961134c565b5090508073ffffffffffffffffffffffffffffffffffffffff166112eb611882565b73ffffffffffffffffffffffffffffffffffffffff1614611341576040517f08c379a00000000000000000000000000000000000000000000000000000000081526004016113389061423e565b60405180910390fd5b611349612076565b50565b600080600460009054906101000a900473ffffffffffffffffffffffffffffffffffffffff16600460149054906101000a900465ffffffffffff16915091509091565b7f9f2df0fed2c77648de5860a4cc508cd0818c85b8b8a1ab4ceeef8d981c8956a681565b6000801b82036113f8576040517f08c379a00000000000000000000000000000000000000000000000000000000081526004016113ef906142d0565b60405180910390fd5b611402828261213f565b5050565b6000801b6114138161161b565b61141b612160565b50565b600581565b6000600760008373ffffffffffffffffffffffffffffffffffffffff1673ffffffffffffffffffffffffffffffffffffffff168152602001908152602001600020549050919050565b6000600160008473ffffffffffffffffffffffffffffffffffffffff1673ffffffffffffffffffffffffffffffffffffffff16815260200190815260200160002060008373ffffffffffffffffffffffffffffffffffffffff1673ffffffffffffffffffffffffffffffffffffffff16815260200190815260200160002060009054906101000a900460ff16905092915050565b611508611882565b73ffffffffffffffffffffffffffffffffffffffff168573ffffffffffffffffffffffffffffffffffffffff16148061154e575061154d85611548611882565b61146c565b5b61158d576040517f08c379a000000000000000000000000000000000000000000000000000000000815260040161158490613f1c565b60405180910390fd5b61159a858585858561216d565b5050505050565b60007f31498786000000000000000000000000000000000000000000000000000000007bffffffffffffffffffffffffffffffffffffffffffffffffffffffff1916827bffffffffffffffffffffffffffffffffffffffffffffffffffffffff19161480611614575061161382612408565b5b9050919050565b61162c81611627611882565b612482565b50565b61163a600080612507565b565b600073ffffffffffffffffffffffffffffffffffffffff168373ffffffffffffffffffffffffffffffffffffffff16036116ab576040517f08c379a00000000000000000000000000000000000000000000000000000000081526004016116a290614362565b60405180910390fd5b60006116b5611882565b905060006116c2846125f7565b905060006116cf846125f7565b90506116ef83876000858560405180602001604052806000815250612671565b600080600087815260200190815260200160002060008873ffffffffffffffffffffffffffffffffffffffff1673ffffffffffffffffffffffffffffffffffffffff16815260200190815260200160002054905084811015611786576040517f08c379a000000000000000000000000000000000000000000000000000000000815260040161177d906143f4565b60405180910390fd5b84810360008088815260200190815260200160002060008973ffffffffffffffffffffffffffffffffffffffff1673ffffffffffffffffffffffffffffffffffffffff16815260200190815260200160002081905550600073ffffffffffffffffffffffffffffffffffffffff168773ffffffffffffffffffffffffffffffffffffffff168573ffffffffffffffffffffffffffffffffffffffff167fc3d58168c5ae7397731d063d5bbf3d657854427343f4c083240f7aacaa2d0f628989604051611853929190614414565b60405180910390a461187984886000868660405180602001604052806000815250612679565b50505050505050565b600033905090565b81518351146118ce576040517f08c379a00000000000000000000000000000000000000000000000000000000081526004016118c5906144af565b60405180910390fd5b600073ffffffffffffffffffffffffffffffffffffffff168473ffffffffffffffffffffffffffffffffffffffff160361193d576040517f08c379a000000000000000000000000000000000000000000000000000000000815260040161193490614541565b60405180910390fd5b6000611947611882565b9050611957818787878787612671565b60005b8451811015611b0857600085828151811061197857611977614155565b5b60200260200101519050600085838151811061199757611996614155565b5b60200260200101519050600080600084815260200190815260200160002060008b73ffffffffffffffffffffffffffffffffffffffff1673ffffffffffffffffffffffffffffffffffffffff16815260200190815260200160002054905081811015611a38576040517f08c379a0000000000000000000000000000000000000000000000000000000008152600401611a2f906145d3565b60405180910390fd5b81810360008085815260200190815260200160002060008c73ffffffffffffffffffffffffffffffffffffffff1673ffffffffffffffffffffffffffffffffffffffff168152602001908152602001600020819055508160008085815260200190815260200160002060008b73ffffffffffffffffffffffffffffffffffffffff1673ffffffffffffffffffffffffffffffffffffffff1681526020019081526020016000206000828254611aed91906145f3565b9250508190555050505080611b0190614184565b905061195a565b508473ffffffffffffffffffffffffffffffffffffffff168673ffffffffffffffffffffffffffffffffffffffff168273ffffffffffffffffffffffffffffffffffffffff167f4a39dc06d4c0dbc64b70af90fd698a233a518aa5d07e595d983b8c0526c8f7fb8787604051611b7f929190614627565b60405180910390a4611b95818787878787612679565b611ba3818787878787612681565b505050505050565b611bb4826108a7565b611bbd8161161b565b611bc78383612858565b505050565b6000808265ffffffffffff1614159050919050565b6000428265ffffffffffff16109050919050565b611bfd611882565b73ffffffffffffffffffffffffffffffffffffffff168173ffffffffffffffffffffffffffffffffffffffff1614611c6a576040517f08c379a0000000000000000000000000000000000000000000000000000000008152600401611c61906146d0565b60405180910390fd5b611c748282612928565b5050565b600073ffffffffffffffffffffffffffffffffffffffff168473ffffffffffffffffffffffffffffffffffffffff1603611ce7576040517f08c379a0000000000000000000000000000000000000000000000000000000008152600401611cde90614762565b60405180910390fd5b6000611cf1611882565b90506000611cfe856125f7565b90506000611d0b856125f7565b9050611d1c83600089858589612671565b8460008088815260200190815260200160002060008973ffffffffffffffffffffffffffffffffffffffff1673ffffffffffffffffffffffffffffffffffffffff1681526020019081526020016000206000828254611d7b91906145f3565b925050819055508673ffffffffffffffffffffffffffffffffffffffff16600073ffffffffffffffffffffffffffffffffffffffff168473ffffffffffffffffffffffffffffffffffffffff167fc3d58168c5ae7397731d063d5bbf3d657854427343f4c083240f7aacaa2d0f628989604051611df9929190614414565b60405180910390a4611e1083600089858589612679565b611e1f836000898989896129a5565b50505050505050565b6000611e32611251565b611e3b42612b7c565b611e459190614782565b9050611e518282612bd1565b8173ffffffffffffffffffffffffffffffffffffffff167f3377dc44241e779dd06afab5b788a35ca5f3b778836e2990bdb26a2a4b2e5ed682604051611e979190613485565b60405180910390a25050565b6000611eae82612c84565b611eb742612b7c565b611ec19190614782565b9050611ecd8282612507565b7ff1038c18cf84a56e432fdbfaf746924b7ea511dfe03a6506a0ceba4888788d9b8282604051611efe929190613c23565b60405180910390a15050565b8173ffffffffffffffffffffffffffffffffffffffff168373ffffffffffffffffffffffffffffffffffffffff1603611f78576040517f08c379a0000000000000000000000000000000000000000000000000000000008152600401611f6f9061482e565b60405180910390fd5b80600160008573ffffffffffffffffffffffffffffffffffffffff1673ffffffffffffffffffffffffffffffffffffffff16815260200190815260200160002060008473ffffffffffffffffffffffffffffffffffffffff1673ffffffffffffffffffffffffffffffffffffffff16815260200190815260200160002060006101000a81548160ff0219169083151502179055508173ffffffffffffffffffffffffffffffffffffffff168373ffffffffffffffffffffffffffffffffffffffff167f17307eab39ab6107e8899845ad3d59bd9653f200f220920489ca2b5937696c31836040516120699190613449565b60405180910390a3505050565b60008061208161134c565b9150915061208e81611bcc565b801561209f575061209e81611be1565b5b6120de576040517f08c379a00000000000000000000000000000000000000000000000000000000081526004016120d5906148c0565b60405180910390fd5b6120f26000801b6120ed611059565b612928565b6120ff6000801b83612858565b600460006101000a81549073ffffffffffffffffffffffffffffffffffffffff0219169055600460146101000a81549065ffffffffffff02191690555050565b612148826108a7565b6121518161161b565b61215b8383612928565b505050565b61216b600080612bd1565b565b600073ffffffffffffffffffffffffffffffffffffffff168473ffffffffffffffffffffffffffffffffffffffff16036121dc576040517f08c379a00000000000000000000000000000000000000000000000000000000081526004016121d390614541565b60405180910390fd5b60006121e6611882565b905060006121f3856125f7565b90506000612200856125f7565b9050612210838989858589612671565b600080600088815260200190815260200160002060008a73ffffffffffffffffffffffffffffffffffffffff1673ffffffffffffffffffffffffffffffffffffffff168152602001908152602001600020549050858110156122a7576040517f08c379a000000000000000000000000000000000000000000000000000000000815260040161229e906145d3565b60405180910390fd5b85810360008089815260200190815260200160002060008b73ffffffffffffffffffffffffffffffffffffffff1673ffffffffffffffffffffffffffffffffffffffff168152602001908152602001600020819055508560008089815260200190815260200160002060008a73ffffffffffffffffffffffffffffffffffffffff1673ffffffffffffffffffffffffffffffffffffffff168152602001908152602001600020600082825461235c91906145f3565b925050819055508773ffffffffffffffffffffffffffffffffffffffff168973ffffffffffffffffffffffffffffffffffffffff168573ffffffffffffffffffffffffffffffffffffffff167fc3d58168c5ae7397731d063d5bbf3d657854427343f4c083240f7aacaa2d0f628a8a6040516123d9929190614414565b60405180910390a46123ef848a8a86868a612679565b6123fd848a8a8a8a8a6129a5565b505050505050505050565b60007f7965db0b000000000000000000000000000000000000000000000000000000007bffffffffffffffffffffffffffffffffffffffffffffffffffffffff1916827bffffffffffffffffffffffffffffffffffffffffffffffffffffffff1916148061247b575061247a82612ce3565b5b9050919050565b61248c8282611092565b6125035761249981612dc5565b6124a78360001c6020612df2565b6040516020016124b89291906149b4565b6040516020818303038152906040526040517f08c379a00000000000000000000000000000000000000000000000000000000081526004016124fa919061355d565b60405180910390fd5b5050565b60006005601a9054906101000a900465ffffffffffff16905061252981611bcc565b156125a85761253781611be1565b1561257a57600560149054906101000a900465ffffffffffff166004601a6101000a81548165ffffffffffff021916908365ffffffffffff1602179055506125a7565b7f2b1fa2edafe6f7b9e97c1a9e0c3660e645beb2dcaa2d45bdbf9beaf5472e1ec560405160405180910390a15b5b82600560146101000a81548165ffffffffffff021916908365ffffffffffff160217905550816005601a6101000a81548165ffffffffffff021916908365ffffffffffff160217905550505050565b60606000600167ffffffffffffffff81111561261657612615613651565b5b6040519080825280602002602001820160405280156126445781602001602082028036833780820191505090505b509050828160008151811061265c5761265b614155565b5b60200260200101818152505080915050919050565b505050505050565b505050505050565b6126a08473ffffffffffffffffffffffffffffffffffffffff1661302e565b15612850578373ffffffffffffffffffffffffffffffffffffffff1663bc197c8187878686866040518663ffffffff1660e01b81526004016126e6959493929190614a43565b6020604051808303816000875af192505050801561272257506040513d601f19601f8201168201806040525081019061271f9190614ac0565b60015b6127c75761272e614afa565b806308c379a00361278a5750612742614b1c565b8061274d575061278c565b806040517f08c379a0000000000000000000000000000000000000000000000000000000008152600401612781919061355d565b60405180910390fd5b505b6040517f08c379a00000000000000000000000000000000000000000000000000000000081526004016127be90614c1e565b60405180910390fd5b63bc197c8160e01b7bffffffffffffffffffffffffffffffffffffffffffffffffffffffff1916817bffffffffffffffffffffffffffffffffffffffffffffffffffffffff19161461284e576040517f08c379a000000000000000000000000000000000000000000000000000000000815260040161284590614cb0565b60405180910390fd5b505b505050505050565b6000801b820361291a57600073ffffffffffffffffffffffffffffffffffffffff16612882611059565b73ffffffffffffffffffffffffffffffffffffffff16146128d8576040517f08c379a00000000000000000000000000000000000000000000000000000000081526004016128cf90614d42565b60405180910390fd5b80600560006101000a81548173ffffffffffffffffffffffffffffffffffffffff021916908373ffffffffffffffffffffffffffffffffffffffff1602179055505b6129248282613051565b5050565b6000801b8214801561296c575061293d611059565b73ffffffffffffffffffffffffffffffffffffffff168173ffffffffffffffffffffffffffffffffffffffff16145b1561299757600560006101000a81549073ffffffffffffffffffffffffffffffffffffffff02191690555b6129a18282613132565b5050565b6129c48473ffffffffffffffffffffffffffffffffffffffff1661302e565b15612b74578373ffffffffffffffffffffffffffffffffffffffff1663f23a6e6187878686866040518663ffffffff1660e01b8152600401612a0a959493929190614d62565b6020604051808303816000875af1925050508015612a4657506040513d601f19601f82011682018060405250810190612a439190614ac0565b60015b612aeb57612a52614afa565b806308c379a003612aae5750612a66614b1c565b80612a715750612ab0565b806040517f08c379a0000000000000000000000000000000000000000000000000000000008152600401612aa5919061355d565b60405180910390fd5b505b6040517f08c379a0000000000000000000000000000000000000000000000000000000008152600401612ae290614c1e565b60405180910390fd5b63f23a6e6160e01b7bffffffffffffffffffffffffffffffffffffffffffffffffffffffff1916817bffffffffffffffffffffffffffffffffffffffffffffffffffffffff191614612b72576040517f08c379a0000000000000000000000000000000000000000000000000000000008152600401612b6990614cb0565b60405180910390fd5b505b505050505050565b600065ffffffffffff8016821115612bc9576040517f08c379a0000000000000000000000000000000000000000000000000000000008152600401612bc090614e2e565b60405180910390fd5b819050919050565b6000612bdb61134c565b91505082600460006101000a81548173ffffffffffffffffffffffffffffffffffffffff021916908373ffffffffffffffffffffffffffffffffffffffff16021790555081600460146101000a81548165ffffffffffff021916908365ffffffffffff160217905550612c4d81611bcc565b15612c7f577f8886ebfc4259abdbc16601dd8fb5678e54878f47b3c34836cfc51154a960510960405160405180910390a15b505050565b600080612c8f611251565b90508065ffffffffffff168365ffffffffffff1611612cb9578281612cb49190614e4e565b612cdb565b612cda8365ffffffffffff16612ccd6107eb565b65ffffffffffff16613214565b5b915050919050565b60007fd9b67a26000000000000000000000000000000000000000000000000000000007bffffffffffffffffffffffffffffffffffffffffffffffffffffffff1916827bffffffffffffffffffffffffffffffffffffffffffffffffffffffff19161480612dae57507f0e89341c000000000000000000000000000000000000000000000000000000007bffffffffffffffffffffffffffffffffffffffffffffffffffffffff1916827bffffffffffffffffffffffffffffffffffffffffffffffffffffffff1916145b80612dbe5750612dbd8261322d565b5b9050919050565b6060612deb8273ffffffffffffffffffffffffffffffffffffffff16601460ff16612df2565b9050919050565b606060006002836002612e059190614e88565b612e0f91906145f3565b67ffffffffffffffff811115612e2857612e27613651565b5b6040519080825280601f01601f191660200182016040528015612e5a5781602001600182028036833780820191505090505b5090507f300000000000000000000000000000000000000000000000000000000000000081600081518110612e9257612e91614155565b5b60200101907effffffffffffffffffffffffffffffffffffffffffffffffffffffffffffff1916908160001a9053507f780000000000000000000000000000000000000000000000000000000000000081600181518110612ef657612ef5614155565b5b60200101907effffffffffffffffffffffffffffffffffffffffffffffffffffffffffffff1916908160001a90535060006001846002612f369190614e88565b612f4091906145f3565b90505b6001811115612fe0577f3031323334353637383961626364656600000000000000000000000000000000600f861660108110612f8257612f81614155565b5b1a60f81b828281518110612f9957612f98614155565b5b60200101907effffffffffffffffffffffffffffffffffffffffffffffffffffffffffffff1916908160001a905350600485901c945080612fd990614eca565b9050612f43565b5060008414613024576040517f08c379a000000000000000000000000000000000000000000000000000000000815260040161301b90614f3f565b60405180910390fd5b8091505092915050565b6000808273ffffffffffffffffffffffffffffffffffffffff163b119050919050565b61305b8282611092565b61312e5760016003600084815260200190815260200160002060000160008373ffffffffffffffffffffffffffffffffffffffff1673ffffffffffffffffffffffffffffffffffffffff16815260200190815260200160002060006101000a81548160ff0219169083151502179055506130d3611882565b73ffffffffffffffffffffffffffffffffffffffff168173ffffffffffffffffffffffffffffffffffffffff16837f2f8788117e7eff1d82e926ec794901d17c78024a50270940304540a733656f0d60405160405180910390a45b5050565b61313c8282611092565b156132105760006003600084815260200190815260200160002060000160008373ffffffffffffffffffffffffffffffffffffffff1673ffffffffffffffffffffffffffffffffffffffff16815260200190815260200160002060006101000a81548160ff0219169083151502179055506131b5611882565b73ffffffffffffffffffffffffffffffffffffffff168173ffffffffffffffffffffffffffffffffffffffff16837ff6391f5c32d9c69d2a47ea670b442974b53935d1edc7fd64eb21e047a839171b60405160405180910390a45b5050565b60008183106132235781613225565b825b905092915050565b60007f01ffc9a7000000000000000000000000000000000000000000000000000000007bffffffffffffffffffffffffffffffffffffffffffffffffffffffff1916827bffffffffffffffffffffffffffffffffffffffffffffffffffffffff1916149050919050565b6000604051905090565b600080fd5b600080fd5b600073ffffffffffffffffffffffffffffffffffffffff82169050919050565b60006132d6826132ab565b9050919050565b6132e6816132cb565b81146132f157600080fd5b50565b600081359050613303816132dd565b92915050565b6000819050919050565b61331c81613309565b811461332757600080fd5b50565b60008135905061333981613313565b92915050565b60008060408385031215613356576133556132a1565b5b6000613364858286016132f4565b92505060206133758582860161332a565b9150509250929050565b61338881613309565b82525050565b60006020820190506133a3600083018461337f565b92915050565b60007fffffffff0000000000000000000000000000000000000000000000000000000082169050919050565b6133de816133a9565b81146133e957600080fd5b50565b6000813590506133fb816133d5565b92915050565b600060208284031215613417576134166132a1565b5b6000613425848285016133ec565b91505092915050565b60008115159050919050565b6134438161342e565b82525050565b600060208201905061345e600083018461343a565b92915050565b600065ffffffffffff82169050919050565b61347f81613464565b82525050565b600060208201905061349a6000830184613476565b92915050565b6000602082840312156134b6576134b56132a1565b5b60006134c48482850161332a565b91505092915050565b600081519050919050565b600082825260208201905092915050565b60005b838110156135075780820151818401526020810190506134ec565b60008484015250505050565b6000601f19601f8301169050919050565b600061352f826134cd565b61353981856134d8565b93506135498185602086016134e9565b61355281613513565b840191505092915050565b600060208201905081810360008301526135778184613524565b905092915050565b6000819050919050565b6135928161357f565b811461359d57600080fd5b50565b6000813590506135af81613589565b92915050565b6000602082840312156135cb576135ca6132a1565b5b60006135d9848285016135a0565b91505092915050565b6135eb8161357f565b82525050565b600060208201905061360660008301846135e2565b92915050565b60008060408385031215613623576136226132a1565b5b60006136318582860161332a565b92505060206136428582860161332a565b9150509250929050565b600080fd5b7f4e487b7100000000000000000000000000000000000000000000000000000000600052604160045260246000fd5b61368982613513565b810181811067ffffffffffffffff821117156136a8576136a7613651565b5b80604052505050565b60006136bb613297565b90506136c78282613680565b919050565b600067ffffffffffffffff8211156136e7576136e6613651565b5b602082029050602081019050919050565b600080fd5b600061371061370b846136cc565b6136b1565b90508083825260208201905060208402830185811115613733576137326136f8565b5b835b8181101561375c5780613748888261332a565b845260208401935050602081019050613735565b5050509392505050565b600082601f83011261377b5761377a61364c565b5b813561378b8482602086016136fd565b91505092915050565b600080fd5b600067ffffffffffffffff8211156137b4576137b3613651565b5b6137bd82613513565b9050602081019050919050565b82818337600083830152505050565b60006137ec6137e784613799565b6136b1565b90508281526020810184848401111561380857613807613794565b5b6138138482856137ca565b509392505050565b600082601f8301126138305761382f61364c565b5b81356138408482602086016137d9565b91505092915050565b600080600080600060a08688031215613865576138646132a1565b5b6000613873888289016132f4565b9550506020613884888289016132f4565b945050604086013567ffffffffffffffff8111156138a5576138a46132a6565b5b6138b188828901613766565b935050606086013567ffffffffffffffff8111156138d2576138d16132a6565b5b6138de88828901613766565b925050608086013567ffffffffffffffff8111156138ff576138fe6132a6565b5b61390b8882890161381b565b9150509295509295909350565b6000806040838503121561392f5761392e6132a1565b5b600061393d858286016135a0565b925050602061394e858286016132f4565b9150509250929050565b60006020828403121561396e5761396d6132a1565b5b600061397c848285016132f4565b91505092915050565b600067ffffffffffffffff8211156139a05761399f613651565b5b602082029050602081019050919050565b60006139c46139bf84613985565b6136b1565b905080838252602082019050602084028301858111156139e7576139e66136f8565b5b835b81811015613a1057806139fc88826132f4565b8452602084019350506020810190506139e9565b5050509392505050565b600082601f830112613a2f57613a2e61364c565b5b8135613a3f8482602086016139b1565b91505092915050565b60008060408385031215613a5f57613a5e6132a1565b5b600083013567ffffffffffffffff811115613a7d57613a7c6132a6565b5b613a8985828601613a1a565b925050602083013567ffffffffffffffff811115613aaa57613aa96132a6565b5b613ab685828601613766565b9150509250929050565b600081519050919050565b600082825260208201905092915050565b6000819050602082019050919050565b613af581613309565b82525050565b6000613b078383613aec565b60208301905092915050565b6000602082019050919050565b6000613b2b82613ac0565b613b358185613acb565b9350613b4083613adc565b8060005b83811015613b71578151613b588882613afb565b9750613b6383613b13565b925050600181019050613b44565b5085935050505092915050565b60006020820190508181036000830152613b988184613b20565b905092915050565b613ba981613464565b8114613bb457600080fd5b50565b600081359050613bc681613ba0565b92915050565b600060208284031215613be257613be16132a1565b5b6000613bf084828501613bb7565b91505092915050565b613c02816132cb565b82525050565b6000602082019050613c1d6000830184613bf9565b92915050565b6000604082019050613c386000830185613476565b613c456020830184613476565b9392505050565b613c558161342e565b8114613c6057600080fd5b50565b600081359050613c7281613c4c565b92915050565b60008060408385031215613c8f57613c8e6132a1565b5b6000613c9d858286016132f4565b9250506020613cae85828601613c63565b9150509250929050565b6000604082019050613ccd6000830185613bf9565b613cda6020830184613476565b9392505050565b60008060408385031215613cf857613cf76132a1565b5b6000613d06858286016132f4565b9250506020613d17858286016132f4565b9150509250929050565b600080600080600060a08688031215613d3d57613d3c6132a1565b5b6000613d4b888289016132f4565b9550506020613d5c888289016132f4565b9450506040613d6d8882890161332a565b9350506060613d7e8882890161332a565b925050608086013567ffffffffffffffff811115613d9f57613d9e6132a6565b5b613dab8882890161381b565b9150509295509295909350565b7f455243313135353a2061646472657373207a65726f206973206e6f742061207660008201527f616c6964206f776e657200000000000000000000000000000000000000000000602082015250565b6000613e14602a836134d8565b9150613e1f82613db8565b604082019050919050565b60006020820190508181036000830152613e4381613e07565b9050919050565b7f4e487b7100000000000000000000000000000000000000000000000000000000600052602260045260246000fd5b60006002820490506001821680613e9157607f821691505b602082108103613ea457613ea3613e4a565b5b50919050565b7f455243313135353a2063616c6c6572206973206e6f7420746f6b656e206f776e60008201527f6572206f7220617070726f766564000000000000000000000000000000000000602082015250565b6000613f06602e836134d8565b9150613f1182613eaa565b604082019050919050565b60006020820190508181036000830152613f3581613ef9565b9050919050565b7f416363657373436f6e74726f6c3a2063616e2774206469726563746c7920677260008201527f616e742064656661756c742061646d696e20726f6c6500000000000000000000602082015250565b6000613f986036836134d8565b9150613fa382613f3c565b604082019050919050565b60006020820190508181036000830152613fc781613f8b565b9050919050565b7f416363657373436f6e74726f6c3a206f6e6c792063616e2072656e6f756e636560008201527f20696e2074776f2064656c617965642073746570730000000000000000000000602082015250565b600061402a6035836134d8565b915061403582613fce565b604082019050919050565b600060208201905081810360008301526140598161401d565b9050919050565b7f4e487b7100000000000000000000000000000000000000000000000000000000600052601160045260246000fd5b600061409a82613309565b91506140a583613309565b92508282039050818111156140bd576140bc614060565b5b92915050565b7f455243313135353a206163636f756e747320616e6420696473206c656e67746860008201527f206d69736d617463680000000000000000000000000000000000000000000000602082015250565b600061411f6029836134d8565b915061412a826140c3565b604082019050919050565b6000602082019050818103600083015261414e81614112565b9050919050565b7f4e487b7100000000000000000000000000000000000000000000000000000000600052603260045260246000fd5b600061418f82613309565b91507fffffffffffffffffffffffffffffffffffffffffffffffffffffffffffffffff82036141c1576141c0614060565b5b600182019050919050565b7f416363657373436f6e74726f6c3a2070656e64696e672061646d696e206d757360008201527f7420616363657074000000000000000000000000000000000000000000000000602082015250565b60006142286028836134d8565b9150614233826141cc565b604082019050919050565b600060208201905081810360008301526142578161421b565b9050919050565b7f416363657373436f6e74726f6c3a2063616e2774206469726563746c7920726560008201527f766f6b652064656661756c742061646d696e20726f6c65000000000000000000602082015250565b60006142ba6037836134d8565b91506142c58261425e565b604082019050919050565b600060208201905081810360008301526142e9816142ad565b9050919050565b7f455243313135353a206275726e2066726f6d20746865207a65726f206164647260008201527f6573730000000000000000000000000000000000000000000000000000000000602082015250565b600061434c6023836134d8565b9150614357826142f0565b604082019050919050565b6000602082019050818103600083015261437b8161433f565b9050919050565b7f455243313135353a206275726e20616d6f756e7420657863656564732062616c60008201527f616e636500000000000000000000000000000000000000000000000000000000602082015250565b60006143de6024836134d8565b91506143e982614382565b604082019050919050565b6000602082019050818103600083015261440d816143d1565b9050919050565b6000604082019050614429600083018561337f565b614436602083018461337f565b9392505050565b7f455243313135353a2069647320616e6420616d6f756e7473206c656e6774682060008201527f6d69736d61746368000000000000000000000000000000000000000000000000602082015250565b60006144996028836134d8565b91506144a48261443d565b604082019050919050565b600060208201905081810360008301526144c88161448c565b9050919050565b7f455243313135353a207472616e7366657220746f20746865207a65726f20616460008201527f6472657373000000000000000000000000000000000000000000000000000000602082015250565b600061452b6025836134d8565b9150614536826144cf565b604082019050919050565b6000602082019050818103600083015261455a8161451e565b9050919050565b7f455243313135353a20696e73756666696369656e742062616c616e636520666f60008201527f72207472616e7366657200000000000000000000000000000000000000000000602082015250565b60006145bd602a836134d8565b91506145c882614561565b604082019050919050565b600060208201905081810360008301526145ec816145b0565b9050919050565b60006145fe82613309565b915061460983613309565b925082820190508082111561462157614620614060565b5b92915050565b600060408201905081810360008301526146418185613b20565b905081810360208301526146558184613b20565b90509392505050565b7f416363657373436f6e74726f6c3a2063616e206f6e6c792072656e6f756e636560008201527f20726f6c657320666f722073656c660000000000000000000000000000000000602082015250565b60006146ba602f836134d8565b91506146c58261465e565b604082019050919050565b600060208201905081810360008301526146e9816146ad565b9050919050565b7f455243313135353a206d696e7420746f20746865207a65726f2061646472657360008201527f7300000000000000000000000000000000000000000000000000000000000000602082015250565b600061474c6021836134d8565b9150614757826146f0565b604082019050919050565b6000602082019050818103600083015261477b8161473f565b9050919050565b600061478d82613464565b915061479883613464565b9250828201905065ffffffffffff8111156147b6576147b5614060565b5b92915050565b7f455243313135353a2073657474696e6720617070726f76616c2073746174757360008201527f20666f722073656c660000000000000000000000000000000000000000000000602082015250565b60006148186029836134d8565b9150614823826147bc565b604082019050919050565b600060208201905081810360008301526148478161480b565b9050919050565b7f416363657373436f6e74726f6c3a207472616e736665722064656c6179206e6f60008201527f7420706173736564000000000000000000000000000000000000000000000000602082015250565b60006148aa6028836134d8565b91506148b58261484e565b604082019050919050565b600060208201905081810360008301526148d98161489d565b9050919050565b600081905092915050565b7f416363657373436f6e74726f6c3a206163636f756e7420000000000000000000600082015250565b60006149216017836148e0565b915061492c826148eb565b601782019050919050565b6000614942826134cd565b61494c81856148e0565b935061495c8185602086016134e9565b80840191505092915050565b7f206973206d697373696e6720726f6c6520000000000000000000000000000000600082015250565b600061499e6011836148e0565b91506149a982614968565b601182019050919050565b60006149bf82614914565b91506149cb8285614937565b91506149d682614991565b91506149e28284614937565b91508190509392505050565b600081519050919050565b600082825260208201905092915050565b6000614a15826149ee565b614a1f81856149f9565b9350614a2f8185602086016134e9565b614a3881613513565b840191505092915050565b600060a082019050614a586000830188613bf9565b614a656020830187613bf9565b8181036040830152614a778186613b20565b90508181036060830152614a8b8185613b20565b90508181036080830152614a9f8184614a0a565b90509695505050505050565b600081519050614aba816133d5565b92915050565b600060208284031215614ad657614ad56132a1565b5b6000614ae484828501614aab565b91505092915050565b60008160e01c9050919050565b600060033d1115614b195760046000803e614b16600051614aed565b90505b90565b600060443d10614ba957614b2e613297565b60043d036004823e80513d602482011167ffffffffffffffff82111715614b56575050614ba9565b808201805167ffffffffffffffff811115614b745750505050614ba9565b80602083010160043d038501811115614b91575050505050614ba9565b614ba082602001850186613680565b82955050505050505b90565b7f455243313135353a207472616e7366657220746f206e6f6e2d4552433131353560008201527f526563656976657220696d706c656d656e746572000000000000000000000000602082015250565b6000614c086034836134d8565b9150614c1382614bac565b604082019050919050565b60006020820190508181036000830152614c3781614bfb565b9050919050565b7f455243313135353a204552433131353552656365697665722072656a6563746560008201527f6420746f6b656e73000000000000000000000000000000000000000000000000602082015250565b6000614c9a6028836134d8565b9150614ca582614c3e565b604082019050919050565b60006020820190508181036000830152614cc981614c8d565b9050919050565b7f416363657373436f6e74726f6c3a2064656661756c742061646d696e20616c7260008201527f65616479206772616e7465640000000000000000000000000000000000000000602082015250565b6000614d2c602c836134d8565b9150614d3782614cd0565b604082019050919050565b60006020820190508181036000830152614d5b81614d1f565b9050919050565b600060a082019050614d776000830188613bf9565b614d846020830187613bf9565b614d91604083018661337f565b614d9e606083018561337f565b8181036080830152614db08184614a0a565b90509695505050505050565b7f53616665436173743a2076616c756520646f65736e27742066697420696e203460008201527f3820626974730000000000000000000000000000000000000000000000000000602082015250565b6000614e186026836134d8565b9150614e2382614dbc565b604082019050919050565b60006020820190508181036000830152614e4781614e0b565b9050919050565b6000614e5982613464565b9150614e6483613464565b9250828203905065ffffffffffff811115614e8257614e81614060565b5b92915050565b6000614e9382613309565b9150614e9e83613309565b9250828202614eac81613309565b91508282048414831517614ec357614ec2614060565b5b5092915050565b6000614ed582613309565b915060008203614ee857614ee7614060565b5b600182039050919050565b7f537472696e67733a20686578206c656e67746820696e73756666696369656e74600082015250565b6000614f296020836134d8565b9150614f3482614ef3565b602082019050919050565b60006020820190508181036000830152614f5881614f1c565b905091905056fea264697066735822122005d7330188c84dc39a5a13f5878fee46d863364df793b39ce8b05bd816636ce164736f6c63430008140033697066733a2f2f516d64704559774a6972634634714835696d4a4734624a5433544836724e59787a434c32643842346247375568792f7b69647d",
  "linkReferences": {},
  "deployedLinkReferences": {}
}