{
  "_format": "hh-sol-artifact-1",
  "contractName": "CirclesERC1155",
  "sourceName": "contracts/CirclesERC1155.sol",
  "abi": [
    {
      "inputs": [],
      "stateMutability": "nonpayable",
      "type": "constructor"
    },
    {
      "inputs": [],
      "name": "CirclesERC1155__CooldownNotElapsed",
      "type": "error"
    },
    {
      "inputs": [],
      "name": "CirclesERC1155__InvalidTokenForTrade",
      "type": "error"
    },
    {
      "inputs": [],
      "name": "CirclesERC1155__NotAMinter",
      "type": "error"
    },
    {
      "anonymous": false,
      "inputs": [
        {
          "indexed": true,
          "internalType": "address",
          "name": "account",
          "type": "address"
        },
        {
          "indexed": true,
          "internalType": "address",
          "name": "operator",
          "type": "address"
        },
        {
          "indexed": false,
          "internalType": "bool",
          "name": "approved",
          "type": "bool"
        }
      ],
      "name": "ApprovalForAll",
      "type": "event"
    },
    {
      "anonymous": false,
      "inputs": [
        {
          "indexed": true,
          "internalType": "address",
          "name": "user",
          "type": "address"
        },
        {
          "indexed": true,
          "internalType": "uint256",
          "name": "tokenId",
          "type": "uint256"
        },
        {
          "indexed": false,
          "internalType": "uint256",
          "name": "amount",
          "type": "uint256"
        }
      ],
      "name": "Burned",
      "type": "event"
    },
    {
      "anonymous": false,
      "inputs": [
        {
          "indexed": true,
          "internalType": "address",
          "name": "user",
          "type": "address"
        },
        {
          "indexed": true,
          "internalType": "uint256",
          "name": "tokenId",
          "type": "uint256"
        },
        {
          "indexed": false,
          "internalType": "uint256",
          "name": "amount",
          "type": "uint256"
        }
      ],
      "name": "Minted",
      "type": "event"
    },
    {
      "anonymous": false,
      "inputs": [
        {
          "indexed": true,
          "internalType": "bytes32",
          "name": "role",
          "type": "bytes32"
        },
        {
          "indexed": true,
          "internalType": "bytes32",
          "name": "previousAdminRole",
          "type": "bytes32"
        },
        {
          "indexed": true,
          "internalType": "bytes32",
          "name": "newAdminRole",
          "type": "bytes32"
        }
      ],
      "name": "RoleAdminChanged",
      "type": "event"
    },
    {
      "anonymous": false,
      "inputs": [
        {
          "indexed": true,
          "internalType": "bytes32",
          "name": "role",
          "type": "bytes32"
        },
        {
          "indexed": true,
          "internalType": "address",
          "name": "account",
          "type": "address"
        },
        {
          "indexed": true,
          "internalType": "address",
          "name": "sender",
          "type": "address"
        }
      ],
      "name": "RoleGranted",
      "type": "event"
    },
    {
      "anonymous": false,
      "inputs": [
        {
          "indexed": true,
          "internalType": "bytes32",
          "name": "role",
          "type": "bytes32"
        },
        {
          "indexed": true,
          "internalType": "address",
          "name": "account",
          "type": "address"
        },
        {
          "indexed": true,
          "internalType": "address",
          "name": "sender",
          "type": "address"
        }
      ],
      "name": "RoleRevoked",
      "type": "event"
    },
    {
      "anonymous": false,
      "inputs": [
        {
          "indexed": true,
          "internalType": "address",
          "name": "user",
          "type": "address"
        },
        {
          "indexed": true,
          "internalType": "uint256",
          "name": "tokenIdSold",
          "type": "uint256"
        },
        {
          "indexed": true,
          "internalType": "uint256",
          "name": "tokenIdBought",
          "type": "uint256"
        },
        {
          "indexed": false,
          "internalType": "uint256",
          "name": "amount",
          "type": "uint256"
        }
      ],
      "name": "Traded",
      "type": "event"
    },
    {
      "anonymous": false,
      "inputs": [
        {
          "indexed": true,
          "internalType": "address",
          "name": "operator",
          "type": "address"
        },
        {
          "indexed": true,
          "internalType": "address",
          "name": "from",
          "type": "address"
        },
        {
          "indexed": true,
          "internalType": "address",
          "name": "to",
          "type": "address"
        },
        {
          "indexed": false,
          "internalType": "uint256[]",
          "name": "ids",
          "type": "uint256[]"
        },
        {
          "indexed": false,
          "internalType": "uint256[]",
          "name": "values",
          "type": "uint256[]"
        }
      ],
      "name": "TransferBatch",
      "type": "event"
    },
    {
      "anonymous": false,
      "inputs": [
        {
          "indexed": true,
          "internalType": "address",
          "name": "operator",
          "type": "address"
        },
        {
          "indexed": true,
          "internalType": "address",
          "name": "from",
          "type": "address"
        },
        {
          "indexed": true,
          "internalType": "address",
          "name": "to",
          "type": "address"
        },
        {
          "indexed": false,
          "internalType": "uint256",
          "name": "id",
          "type": "uint256"
        },
        {
          "indexed": false,
          "internalType": "uint256",
          "name": "value",
          "type": "uint256"
        }
      ],
      "name": "TransferSingle",
      "type": "event"
    },
    {
      "anonymous": false,
      "inputs": [
        {
          "indexed": false,
          "internalType": "string",
          "name": "value",
          "type": "string"
        },
        {
          "indexed": true,
          "internalType": "uint256",
          "name": "id",
          "type": "uint256"
        }
      ],
      "name": "URI",
      "type": "event"
    },
    {
      "inputs": [],
      "name": "COOLDOWN_TIME",
      "outputs": [
        {
          "internalType": "uint256",
          "name": "",
          "type": "uint256"
        }
      ],
      "stateMutability": "view",
      "type": "function"
    },
    {
      "inputs": [],
      "name": "DEFAULT_ADMIN_ROLE",
      "outputs": [
        {
          "internalType": "bytes32",
          "name": "",
          "type": "bytes32"
        }
      ],
      "stateMutability": "view",
      "type": "function"
    },
    {
      "inputs": [],
      "name": "MINTER_ROLE",
      "outputs": [
        {
          "internalType": "bytes32",
          "name": "",
          "type": "bytes32"
        }
      ],
      "stateMutability": "view",
      "type": "function"
    },
    {
      "inputs": [],
      "name": "TOKEN_ID_0",
      "outputs": [
        {
          "internalType": "uint256",
          "name": "",
          "type": "uint256"
        }
      ],
      "stateMutability": "view",
      "type": "function"
    },
    {
      "inputs": [],
      "name": "TOKEN_ID_1",
      "outputs": [
        {
          "internalType": "uint256",
          "name": "",
          "type": "uint256"
        }
      ],
      "stateMutability": "view",
      "type": "function"
    },
    {
      "inputs": [],
      "name": "TOKEN_ID_2",
      "outputs": [
        {
          "internalType": "uint256",
          "name": "",
          "type": "uint256"
        }
      ],
      "stateMutability": "view",
      "type": "function"
    },
    {
      "inputs": [
        {
          "internalType": "address",
          "name": "account",
          "type": "address"
        },
        {
          "internalType": "uint256",
          "name": "id",
          "type": "uint256"
        }
      ],
      "name": "balanceOf",
      "outputs": [
        {
          "internalType": "uint256",
          "name": "",
          "type": "uint256"
        }
      ],
      "stateMutability": "view",
      "type": "function"
    },
    {
      "inputs": [
        {
          "internalType": "address[]",
          "name": "accounts",
          "type": "address[]"
        },
        {
          "internalType": "uint256[]",
          "name": "ids",
          "type": "uint256[]"
        }
      ],
      "name": "balanceOfBatch",
      "outputs": [
        {
          "internalType": "uint256[]",
          "name": "",
          "type": "uint256[]"
        }
      ],
      "stateMutability": "view",
      "type": "function"
    },
    {
      "inputs": [
        {
          "internalType": "address",
          "name": "account",
          "type": "address"
        },
        {
          "internalType": "uint256",
          "name": "tokenId",
          "type": "uint256"
        },
        {
          "internalType": "uint256",
          "name": "amount",
          "type": "uint256"
        }
      ],
      "name": "burn",
      "outputs": [],
      "stateMutability": "nonpayable",
      "type": "function"
    },
    {
      "inputs": [
        {
          "internalType": "address",
          "name": "user",
          "type": "address"
        },
        {
          "internalType": "uint256",
          "name": "tokenId",
          "type": "uint256"
        }
      ],
      "name": "getLastMintTimestamp",
      "outputs": [
        {
          "internalType": "uint256",
          "name": "",
          "type": "uint256"
        }
      ],
      "stateMutability": "view",
      "type": "function"
    },
    {
      "inputs": [
        {
          "internalType": "bytes32",
          "name": "role",
          "type": "bytes32"
        }
      ],
      "name": "getRoleAdmin",
      "outputs": [
        {
          "internalType": "bytes32",
          "name": "",
          "type": "bytes32"
        }
      ],
      "stateMutability": "view",
      "type": "function"
    },
    {
      "inputs": [
        {
          "internalType": "bytes32",
          "name": "role",
          "type": "bytes32"
        },
        {
          "internalType": "address",
          "name": "account",
          "type": "address"
        }
      ],
      "name": "grantRole",
      "outputs": [],
      "stateMutability": "nonpayable",
      "type": "function"
    },
    {
      "inputs": [
        {
          "internalType": "bytes32",
          "name": "role",
          "type": "bytes32"
        },
        {
          "internalType": "address",
          "name": "account",
          "type": "address"
        }
      ],
      "name": "hasRole",
      "outputs": [
        {
          "internalType": "bool",
          "name": "",
          "type": "bool"
        }
      ],
      "stateMutability": "view",
      "type": "function"
    },
    {
      "inputs": [
        {
          "internalType": "address",
          "name": "account",
          "type": "address"
        },
        {
          "internalType": "address",
          "name": "operator",
          "type": "address"
        }
      ],
      "name": "isApprovedForAll",
      "outputs": [
        {
          "internalType": "bool",
          "name": "",
          "type": "bool"
        }
      ],
      "stateMutability": "view",
      "type": "function"
    },
    {
      "inputs": [
        {
          "internalType": "address",
          "name": "account",
          "type": "address"
        },
        {
          "internalType": "uint256",
          "name": "tokenId",
          "type": "uint256"
        },
        {
          "internalType": "uint256",
          "name": "amount",
          "type": "uint256"
        }
      ],
      "name": "mint",
      "outputs": [],
      "stateMutability": "nonpayable",
      "type": "function"
    },
    {
      "inputs": [
        {
          "internalType": "bytes32",
          "name": "role",
          "type": "bytes32"
        },
        {
          "internalType": "address",
          "name": "account",
          "type": "address"
        }
      ],
      "name": "renounceRole",
      "outputs": [],
      "stateMutability": "nonpayable",
      "type": "function"
    },
    {
      "inputs": [
        {
          "internalType": "bytes32",
          "name": "role",
          "type": "bytes32"
        },
        {
          "internalType": "address",
          "name": "account",
          "type": "address"
        }
      ],
      "name": "revokeRole",
      "outputs": [],
      "stateMutability": "nonpayable",
      "type": "function"
    },
    {
      "inputs": [
        {
          "internalType": "address",
          "name": "from",
          "type": "address"
        },
        {
          "internalType": "address",
          "name": "to",
          "type": "address"
        },
        {
          "internalType": "uint256[]",
          "name": "ids",
          "type": "uint256[]"
        },
        {
          "internalType": "uint256[]",
          "name": "amounts",
          "type": "uint256[]"
        },
        {
          "internalType": "bytes",
          "name": "data",
          "type": "bytes"
        }
      ],
      "name": "safeBatchTransferFrom",
      "outputs": [],
      "stateMutability": "nonpayable",
      "type": "function"
    },
    {
      "inputs": [
        {
          "internalType": "address",
          "name": "from",
          "type": "address"
        },
        {
          "internalType": "address",
          "name": "to",
          "type": "address"
        },
        {
          "internalType": "uint256",
          "name": "id",
          "type": "uint256"
        },
        {
          "internalType": "uint256",
          "name": "amount",
          "type": "uint256"
        },
        {
          "internalType": "bytes",
          "name": "data",
          "type": "bytes"
        }
      ],
      "name": "safeTransferFrom",
      "outputs": [],
      "stateMutability": "nonpayable",
      "type": "function"
    },
    {
      "inputs": [
        {
          "internalType": "address",
          "name": "operator",
          "type": "address"
        },
        {
          "internalType": "bool",
          "name": "approved",
          "type": "bool"
        }
      ],
      "name": "setApprovalForAll",
      "outputs": [],
      "stateMutability": "nonpayable",
      "type": "function"
    },
    {
      "inputs": [
        {
          "internalType": "address",
          "name": "_forgingContract",
          "type": "address"
        }
      ],
      "name": "setForgingContract",
      "outputs": [],
      "stateMutability": "nonpayable",
      "type": "function"
    },
    {
      "inputs": [
        {
          "internalType": "bytes4",
          "name": "interfaceId",
          "type": "bytes4"
        }
      ],
      "name": "supportsInterface",
      "outputs": [
        {
          "internalType": "bool",
          "name": "",
          "type": "bool"
        }
      ],
      "stateMutability": "view",
      "type": "function"
    },
    {
      "inputs": [
        {
          "internalType": "uint256",
          "name": "tokenId",
          "type": "uint256"
        },
        {
          "internalType": "uint256",
          "name": "desiredToken",
          "type": "uint256"
        },
        {
          "internalType": "uint256",
          "name": "amount",
          "type": "uint256"
        }
      ],
      "name": "tradeToken",
      "outputs": [],
      "stateMutability": "nonpayable",
      "type": "function"
    },
    {
      "inputs": [
        {
          "internalType": "uint256",
          "name": "",
          "type": "uint256"
        }
      ],
      "name": "uri",
      "outputs": [
        {
          "internalType": "string",
          "name": "",
          "type": "string"
        }
      ],
      "stateMutability": "view",
      "type": "function"
    }
  ],
  "bytecode": "0x60806040523480156200001157600080fd5b506040518060600160405280603a815260200162004352603a91396200003d816200005960201b60201c565b50620000536000801b336200006e60201b60201c565b62000534565b80600290816200006a91906200044d565b5050565b6200008082826200016060201b60201c565b6200015c5760016003600084815260200190815260200160002060000160008373ffffffffffffffffffffffffffffffffffffffff1673ffffffffffffffffffffffffffffffffffffffff16815260200190815260200160002060006101000a81548160ff02191690831515021790555062000101620001cb60201b60201c565b73ffffffffffffffffffffffffffffffffffffffff168173ffffffffffffffffffffffffffffffffffffffff16837f2f8788117e7eff1d82e926ec794901d17c78024a50270940304540a733656f0d60405160405180910390a45b5050565b60006003600084815260200190815260200160002060000160008373ffffffffffffffffffffffffffffffffffffffff1673ffffffffffffffffffffffffffffffffffffffff16815260200190815260200160002060009054906101000a900460ff16905092915050565b600033905090565b600081519050919050565b7f4e487b7100000000000000000000000000000000000000000000000000000000600052604160045260246000fd5b7f4e487b7100000000000000000000000000000000000000000000000000000000600052602260045260246000fd5b600060028204905060018216806200025557607f821691505b6020821081036200026b576200026a6200020d565b5b50919050565b60008190508160005260206000209050919050565b60006020601f8301049050919050565b600082821b905092915050565b600060088302620002d57fffffffffffffffffffffffffffffffffffffffffffffffffffffffffffffffff8262000296565b620002e1868362000296565b95508019841693508086168417925050509392505050565b6000819050919050565b6000819050919050565b60006200032e620003286200032284620002f9565b62000303565b620002f9565b9050919050565b6000819050919050565b6200034a836200030d565b62000362620003598262000335565b848454620002a3565b825550505050565b600090565b620003796200036a565b620003868184846200033f565b505050565b5b81811015620003ae57620003a26000826200036f565b6001810190506200038c565b5050565b601f821115620003fd57620003c78162000271565b620003d28462000286565b81016020851015620003e2578190505b620003fa620003f18562000286565b8301826200038b565b50505b505050565b600082821c905092915050565b6000620004226000198460080262000402565b1980831691505092915050565b60006200043d83836200040f565b9150826002028217905092915050565b6200045882620001d3565b67ffffffffffffffff811115620004745762000473620001de565b5b6200048082546200023c565b6200048d828285620003b2565b600060209050601f831160018114620004c55760008415620004b0578287015190505b620004bc85826200042f565b8655506200052c565b601f198416620004d58662000271565b60005b82811015620004ff57848901518255600182019150602085019450602081019050620004d8565b868310156200051f57848901516200051b601f8916826200040f565b8355505b6001600288020188555050505b505050505050565b613e0e80620005446000396000f3fe608060405234801561001057600080fd5b50600436106101575760003560e01c80637ae178b8116100c3578063c1b0adc91161007c578063c1b0adc9146103e8578063d539139314610406578063d547741f14610424578063e985e9c514610440578063f242432a14610470578063f5298aca1461048c57610157565b80637ae178b8146103145780637d2632451461034457806391d148541461036257806398e783f014610392578063a217fddf146103ae578063a22cb465146103cc57610157565b80632f2ff15d116101155780632f2ff15d1461025457806336568abe1461027057806344c14e961461028c5780634e1273f4146102a857806367dde6d5146102d85780636ad9e4b5146102f657610157565b8062fdd58e1461015c57806301ffc9a71461018c5780630e89341c146101bc578063156e29f6146101ec578063248a9ca3146102085780632eb2c2d614610238575b600080fd5b6101766004803603810190610171919061265a565b6104a8565b60405161018391906126a9565b60405180910390f35b6101a660048036038101906101a1919061271c565b610570565b6040516101b39190612764565b60405180910390f35b6101d660048036038101906101d1919061277f565b610582565b6040516101e3919061283c565b60405180910390f35b6102066004803603810190610201919061285e565b610616565b005b610222600480360381019061021d91906128e7565b6107de565b60405161022f9190612923565b60405180910390f35b610252600480360381019061024d9190612b3b565b6107fe565b005b61026e60048036038101906102699190612c0a565b61089f565b005b61028a60048036038101906102859190612c0a565b6108c0565b005b6102a660048036038101906102a19190612c4a565b610943565b005b6102c260048036038101906102bd9190612d3a565b610ac2565b6040516102cf9190612e70565b60405180910390f35b6102e0610bdb565b6040516102ed91906126a9565b60405180910390f35b6102fe610be0565b60405161030b91906126a9565b60405180910390f35b61032e6004803603810190610329919061265a565b610be5565b60405161033b91906126a9565b60405180910390f35b61034c610c40565b60405161035991906126a9565b60405180910390f35b61037c60048036038101906103779190612c0a565b610c45565b6040516103899190612764565b60405180910390f35b6103ac60048036038101906103a79190612e92565b610cb0565b005b6103b6610dab565b6040516103c39190612923565b60405180910390f35b6103e660048036038101906103e19190612f11565b610db2565b005b6103f0610dc8565b6040516103fd91906126a9565b60405180910390f35b61040e610dcd565b60405161041b9190612923565b60405180910390f35b61043e60048036038101906104399190612c0a565b610df1565b005b61045a60048036038101906104559190612f51565b610e12565b6040516104679190612764565b60405180910390f35b61048a60048036038101906104859190612f91565b610ea6565b005b6104a660048036038101906104a1919061285e565b610f47565b005b60008073ffffffffffffffffffffffffffffffffffffffff168373ffffffffffffffffffffffffffffffffffffffff1603610518576040517f08c379a000000000000000000000000000000000000000000000000000000000815260040161050f9061309a565b60405180910390fd5b60008083815260200190815260200160002060008473ffffffffffffffffffffffffffffffffffffffff1673ffffffffffffffffffffffffffffffffffffffff16815260200190815260200160002054905092915050565b600061057b82610fa6565b9050919050565b606060028054610591906130e9565b80601f01602080910402602001604051908101604052809291908181526020018280546105bd906130e9565b801561060a5780601f106105df5761010080835404028352916020019161060a565b820191906000526020600020905b8154815290600101906020018083116105ed57829003601f168201915b50505050509050919050565b6002821161070e57603c600560003373ffffffffffffffffffffffffffffffffffffffff1673ffffffffffffffffffffffffffffffffffffffff1681526020019081526020016000206000848152602001908152602001600020544261067c9190613149565b10156106b4576040517f3b5a910b00000000000000000000000000000000000000000000000000000000815260040160405180910390fd5b42600560003373ffffffffffffffffffffffffffffffffffffffff1673ffffffffffffffffffffffffffffffffffffffff16815260200190815260200160002060008481526020019081526020016000208190555061076f565b6107387f9f2df0fed2c77648de5860a4cc508cd0818c85b8b8a1ab4ceeef8d981c8956a633610c45565b61076e576040517f7b628f9f00000000000000000000000000000000000000000000000000000000815260040160405180910390fd5b5b61078a83838360405180602001604052806000815250611020565b813373ffffffffffffffffffffffffffffffffffffffff167f25b428dfde728ccfaddad7e29e4ac23c24ed7fd1a6e3e3f91894a9a073f5dfff836040516107d191906126a9565b60405180910390a3505050565b600060036000838152602001908152602001600020600101549050919050565b6108066111d0565b73ffffffffffffffffffffffffffffffffffffffff168573ffffffffffffffffffffffffffffffffffffffff16148061084c575061084b856108466111d0565b610e12565b5b61088b576040517f08c379a0000000000000000000000000000000000000000000000000000000008152600401610882906131ef565b60405180910390fd5b61089885858585856111d8565b5050505050565b6108a8826107de565b6108b1816114f9565b6108bb838361150d565b505050565b6108c86111d0565b73ffffffffffffffffffffffffffffffffffffffff168173ffffffffffffffffffffffffffffffffffffffff1614610935576040517f08c379a000000000000000000000000000000000000000000000000000000000815260040161092c90613281565b60405180910390fd5b61093f82826115ee565b5050565b6109506000801b33610c45565b61098f576040517f08c379a0000000000000000000000000000000000000000000000000000000008152600401610986906132ed565b60405180910390fd5b600073ffffffffffffffffffffffffffffffffffffffff16600460009054906101000a900473ffffffffffffffffffffffffffffffffffffffff1673ffffffffffffffffffffffffffffffffffffffff1614610a3257610a317f9f2df0fed2c77648de5860a4cc508cd0818c85b8b8a1ab4ceeef8d981c8956a6600460009054906101000a900473ffffffffffffffffffffffffffffffffffffffff16610df1565b5b80600460006101000a81548173ffffffffffffffffffffffffffffffffffffffff021916908373ffffffffffffffffffffffffffffffffffffffff160217905550610abf7f9f2df0fed2c77648de5860a4cc508cd0818c85b8b8a1ab4ceeef8d981c8956a6600460009054906101000a900473ffffffffffffffffffffffffffffffffffffffff1661089f565b50565b60608151835114610b08576040517f08c379a0000000000000000000000000000000000000000000000000000000008152600401610aff9061337f565b60405180910390fd5b6000835167ffffffffffffffff811115610b2557610b24612943565b5b604051908082528060200260200182016040528015610b535781602001602082028036833780820191505090505b50905060005b8451811015610bd057610ba0858281518110610b7857610b7761339f565b5b6020026020010151858381518110610b9357610b9261339f565b5b60200260200101516104a8565b828281518110610bb357610bb261339f565b5b60200260200101818152505080610bc9906133ce565b9050610b59565b508091505092915050565b600281565b600181565b6000600560008473ffffffffffffffffffffffffffffffffffffffff1673ffffffffffffffffffffffffffffffffffffffff168152602001908152602001600020600083815260200190815260200160002054905092915050565b603c81565b60006003600084815260200190815260200160002060000160008373ffffffffffffffffffffffffffffffffffffffff1673ffffffffffffffffffffffffffffffffffffffff16815260200190815260200160002060009054906101000a900460ff16905092915050565b60038310158015610cc2575060068311155b610cf8576040517f95726d7700000000000000000000000000000000000000000000000000000000815260040160405180910390fd5b60008210158015610d0a575060028211155b610d40576040517f95726d7700000000000000000000000000000000000000000000000000000000815260040160405180910390fd5b610d4b3384836116d0565b610d56338383610616565b81833373ffffffffffffffffffffffffffffffffffffffff167f17c5b36beecc08bb34c131595b72648615701863750cb5dd40952abd4128af7784604051610d9e91906126a9565b60405180910390a4505050565b6000801b81565b610dc4610dbd6111d0565b8383611916565b5050565b600081565b7f9f2df0fed2c77648de5860a4cc508cd0818c85b8b8a1ab4ceeef8d981c8956a681565b610dfa826107de565b610e03816114f9565b610e0d83836115ee565b505050565b6000600160008473ffffffffffffffffffffffffffffffffffffffff1673ffffffffffffffffffffffffffffffffffffffff16815260200190815260200160002060008373ffffffffffffffffffffffffffffffffffffffff1673ffffffffffffffffffffffffffffffffffffffff16815260200190815260200160002060009054906101000a900460ff16905092915050565b610eae6111d0565b73ffffffffffffffffffffffffffffffffffffffff168573ffffffffffffffffffffffffffffffffffffffff161480610ef45750610ef385610eee6111d0565b610e12565b5b610f33576040517f08c379a0000000000000000000000000000000000000000000000000000000008152600401610f2a906131ef565b60405180910390fd5b610f408585858585611a82565b5050505050565b610f528383836116d0565b818373ffffffffffffffffffffffffffffffffffffffff167f23ff0e75edf108e3d0392d92e13e8c8a868ef19001bd49f9e94876dc46dff87f83604051610f9991906126a9565b60405180910390a3505050565b60007f7965db0b000000000000000000000000000000000000000000000000000000007bffffffffffffffffffffffffffffffffffffffffffffffffffffffff1916827bffffffffffffffffffffffffffffffffffffffffffffffffffffffff19161480611019575061101882611d1d565b5b9050919050565b600073ffffffffffffffffffffffffffffffffffffffff168473ffffffffffffffffffffffffffffffffffffffff160361108f576040517f08c379a000000000000000000000000000000000000000000000000000000000815260040161108690613488565b60405180910390fd5b60006110996111d0565b905060006110a685611dff565b905060006110b385611dff565b90506110c483600089858589611e79565b8460008088815260200190815260200160002060008973ffffffffffffffffffffffffffffffffffffffff1673ffffffffffffffffffffffffffffffffffffffff168152602001908152602001600020600082825461112391906134a8565b925050819055508673ffffffffffffffffffffffffffffffffffffffff16600073ffffffffffffffffffffffffffffffffffffffff168473ffffffffffffffffffffffffffffffffffffffff167fc3d58168c5ae7397731d063d5bbf3d657854427343f4c083240f7aacaa2d0f6289896040516111a19291906134dc565b60405180910390a46111b883600089858589611e81565b6111c783600089898989611e89565b50505050505050565b600033905090565b815183511461121c576040517f08c379a000000000000000000000000000000000000000000000000000000000815260040161121390613577565b60405180910390fd5b600073ffffffffffffffffffffffffffffffffffffffff168473ffffffffffffffffffffffffffffffffffffffff160361128b576040517f08c379a000000000000000000000000000000000000000000000000000000000815260040161128290613609565b60405180910390fd5b60006112956111d0565b90506112a5818787878787611e79565b60005b84518110156114565760008582815181106112c6576112c561339f565b5b6020026020010151905060008583815181106112e5576112e461339f565b5b60200260200101519050600080600084815260200190815260200160002060008b73ffffffffffffffffffffffffffffffffffffffff1673ffffffffffffffffffffffffffffffffffffffff16815260200190815260200160002054905081811015611386576040517f08c379a000000000000000000000000000000000000000000000000000000000815260040161137d9061369b565b60405180910390fd5b81810360008085815260200190815260200160002060008c73ffffffffffffffffffffffffffffffffffffffff1673ffffffffffffffffffffffffffffffffffffffff168152602001908152602001600020819055508160008085815260200190815260200160002060008b73ffffffffffffffffffffffffffffffffffffffff1673ffffffffffffffffffffffffffffffffffffffff168152602001908152602001600020600082825461143b91906134a8565b925050819055505050508061144f906133ce565b90506112a8565b508473ffffffffffffffffffffffffffffffffffffffff168673ffffffffffffffffffffffffffffffffffffffff168273ffffffffffffffffffffffffffffffffffffffff167f4a39dc06d4c0dbc64b70af90fd698a233a518aa5d07e595d983b8c0526c8f7fb87876040516114cd9291906136bb565b60405180910390a46114e3818787878787611e81565b6114f1818787878787612060565b505050505050565b61150a816115056111d0565b612237565b50565b6115178282610c45565b6115ea5760016003600084815260200190815260200160002060000160008373ffffffffffffffffffffffffffffffffffffffff1673ffffffffffffffffffffffffffffffffffffffff16815260200190815260200160002060006101000a81548160ff02191690831515021790555061158f6111d0565b73ffffffffffffffffffffffffffffffffffffffff168173ffffffffffffffffffffffffffffffffffffffff16837f2f8788117e7eff1d82e926ec794901d17c78024a50270940304540a733656f0d60405160405180910390a45b5050565b6115f88282610c45565b156116cc5760006003600084815260200190815260200160002060000160008373ffffffffffffffffffffffffffffffffffffffff1673ffffffffffffffffffffffffffffffffffffffff16815260200190815260200160002060006101000a81548160ff0219169083151502179055506116716111d0565b73ffffffffffffffffffffffffffffffffffffffff168173ffffffffffffffffffffffffffffffffffffffff16837ff6391f5c32d9c69d2a47ea670b442974b53935d1edc7fd64eb21e047a839171b60405160405180910390a45b5050565b600073ffffffffffffffffffffffffffffffffffffffff168373ffffffffffffffffffffffffffffffffffffffff160361173f576040517f08c379a000000000000000000000000000000000000000000000000000000000815260040161173690613764565b60405180910390fd5b60006117496111d0565b9050600061175684611dff565b9050600061176384611dff565b905061178383876000858560405180602001604052806000815250611e79565b600080600087815260200190815260200160002060008873ffffffffffffffffffffffffffffffffffffffff1673ffffffffffffffffffffffffffffffffffffffff1681526020019081526020016000205490508481101561181a576040517f08c379a0000000000000000000000000000000000000000000000000000000008152600401611811906137f6565b60405180910390fd5b84810360008088815260200190815260200160002060008973ffffffffffffffffffffffffffffffffffffffff1673ffffffffffffffffffffffffffffffffffffffff16815260200190815260200160002081905550600073ffffffffffffffffffffffffffffffffffffffff168773ffffffffffffffffffffffffffffffffffffffff168573ffffffffffffffffffffffffffffffffffffffff167fc3d58168c5ae7397731d063d5bbf3d657854427343f4c083240f7aacaa2d0f6289896040516118e79291906134dc565b60405180910390a461190d84886000868660405180602001604052806000815250611e81565b50505050505050565b8173ffffffffffffffffffffffffffffffffffffffff168373ffffffffffffffffffffffffffffffffffffffff1603611984576040517f08c379a000000000000000000000000000000000000000000000000000000000815260040161197b90613888565b60405180910390fd5b80600160008573ffffffffffffffffffffffffffffffffffffffff1673ffffffffffffffffffffffffffffffffffffffff16815260200190815260200160002060008473ffffffffffffffffffffffffffffffffffffffff1673ffffffffffffffffffffffffffffffffffffffff16815260200190815260200160002060006101000a81548160ff0219169083151502179055508173ffffffffffffffffffffffffffffffffffffffff168373ffffffffffffffffffffffffffffffffffffffff167f17307eab39ab6107e8899845ad3d59bd9653f200f220920489ca2b5937696c3183604051611a759190612764565b60405180910390a3505050565b600073ffffffffffffffffffffffffffffffffffffffff168473ffffffffffffffffffffffffffffffffffffffff1603611af1576040517f08c379a0000000000000000000000000000000000000000000000000000000008152600401611ae890613609565b60405180910390fd5b6000611afb6111d0565b90506000611b0885611dff565b90506000611b1585611dff565b9050611b25838989858589611e79565b600080600088815260200190815260200160002060008a73ffffffffffffffffffffffffffffffffffffffff1673ffffffffffffffffffffffffffffffffffffffff16815260200190815260200160002054905085811015611bbc576040517f08c379a0000000000000000000000000000000000000000000000000000000008152600401611bb39061369b565b60405180910390fd5b85810360008089815260200190815260200160002060008b73ffffffffffffffffffffffffffffffffffffffff1673ffffffffffffffffffffffffffffffffffffffff168152602001908152602001600020819055508560008089815260200190815260200160002060008a73ffffffffffffffffffffffffffffffffffffffff1673ffffffffffffffffffffffffffffffffffffffff1681526020019081526020016000206000828254611c7191906134a8565b925050819055508773ffffffffffffffffffffffffffffffffffffffff168973ffffffffffffffffffffffffffffffffffffffff168573ffffffffffffffffffffffffffffffffffffffff167fc3d58168c5ae7397731d063d5bbf3d657854427343f4c083240f7aacaa2d0f628a8a604051611cee9291906134dc565b60405180910390a4611d04848a8a86868a611e81565b611d12848a8a8a8a8a611e89565b505050505050505050565b60007fd9b67a26000000000000000000000000000000000000000000000000000000007bffffffffffffffffffffffffffffffffffffffffffffffffffffffff1916827bffffffffffffffffffffffffffffffffffffffffffffffffffffffff19161480611de857507f0e89341c000000000000000000000000000000000000000000000000000000007bffffffffffffffffffffffffffffffffffffffffffffffffffffffff1916827bffffffffffffffffffffffffffffffffffffffffffffffffffffffff1916145b80611df85750611df7826122bc565b5b9050919050565b60606000600167ffffffffffffffff811115611e1e57611e1d612943565b5b604051908082528060200260200182016040528015611e4c5781602001602082028036833780820191505090505b5090508281600081518110611e6457611e6361339f565b5b60200260200101818152505080915050919050565b505050505050565b505050505050565b611ea88473ffffffffffffffffffffffffffffffffffffffff16612326565b15612058578373ffffffffffffffffffffffffffffffffffffffff1663f23a6e6187878686866040518663ffffffff1660e01b8152600401611eee95949392919061390c565b6020604051808303816000875af1925050508015611f2a57506040513d601f19601f82011682018060405250810190611f27919061397b565b60015b611fcf57611f366139b5565b806308c379a003611f925750611f4a6139d7565b80611f555750611f94565b806040517f08c379a0000000000000000000000000000000000000000000000000000000008152600401611f89919061283c565b60405180910390fd5b505b6040517f08c379a0000000000000000000000000000000000000000000000000000000008152600401611fc690613ad9565b60405180910390fd5b63f23a6e6160e01b7bffffffffffffffffffffffffffffffffffffffffffffffffffffffff1916817bffffffffffffffffffffffffffffffffffffffffffffffffffffffff191614612056576040517f08c379a000000000000000000000000000000000000000000000000000000000815260040161204d90613b6b565b60405180910390fd5b505b505050505050565b61207f8473ffffffffffffffffffffffffffffffffffffffff16612326565b1561222f578373ffffffffffffffffffffffffffffffffffffffff1663bc197c8187878686866040518663ffffffff1660e01b81526004016120c5959493929190613b8b565b6020604051808303816000875af192505050801561210157506040513d601f19601f820116820180604052508101906120fe919061397b565b60015b6121a65761210d6139b5565b806308c379a00361216957506121216139d7565b8061212c575061216b565b806040517f08c379a0000000000000000000000000000000000000000000000000000000008152600401612160919061283c565b60405180910390fd5b505b6040517f08c379a000000000000000000000000000000000000000000000000000000000815260040161219d90613ad9565b60405180910390fd5b63bc197c8160e01b7bffffffffffffffffffffffffffffffffffffffffffffffffffffffff1916817bffffffffffffffffffffffffffffffffffffffffffffffffffffffff19161461222d576040517f08c379a000000000000000000000000000000000000000000000000000000000815260040161222490613b6b565b60405180910390fd5b505b505050505050565b6122418282610c45565b6122b85761224e81612349565b61225c8360001c6020612376565b60405160200161226d929190613cc7565b6040516020818303038152906040526040517f08c379a00000000000000000000000000000000000000000000000000000000081526004016122af919061283c565b60405180910390fd5b5050565b60007f01ffc9a7000000000000000000000000000000000000000000000000000000007bffffffffffffffffffffffffffffffffffffffffffffffffffffffff1916827bffffffffffffffffffffffffffffffffffffffffffffffffffffffff1916149050919050565b6000808273ffffffffffffffffffffffffffffffffffffffff163b119050919050565b606061236f8273ffffffffffffffffffffffffffffffffffffffff16601460ff16612376565b9050919050565b6060600060028360026123899190613d01565b61239391906134a8565b67ffffffffffffffff8111156123ac576123ab612943565b5b6040519080825280601f01601f1916602001820160405280156123de5781602001600182028036833780820191505090505b5090507f3000000000000000000000000000000000000000000000000000000000000000816000815181106124165761241561339f565b5b60200101907effffffffffffffffffffffffffffffffffffffffffffffffffffffffffffff1916908160001a9053507f78000000000000000000000000000000000000000000000000000000000000008160018151811061247a5761247961339f565b5b60200101907effffffffffffffffffffffffffffffffffffffffffffffffffffffffffffff1916908160001a905350600060018460026124ba9190613d01565b6124c491906134a8565b90505b6001811115612564577f3031323334353637383961626364656600000000000000000000000000000000600f8616601081106125065761250561339f565b5b1a60f81b82828151811061251d5761251c61339f565b5b60200101907effffffffffffffffffffffffffffffffffffffffffffffffffffffffffffff1916908160001a905350600485901c94508061255d90613d43565b90506124c7565b50600084146125a8576040517f08c379a000000000000000000000000000000000000000000000000000000000815260040161259f90613db8565b60405180910390fd5b8091505092915050565b6000604051905090565b600080fd5b600080fd5b600073ffffffffffffffffffffffffffffffffffffffff82169050919050565b60006125f1826125c6565b9050919050565b612601816125e6565b811461260c57600080fd5b50565b60008135905061261e816125f8565b92915050565b6000819050919050565b61263781612624565b811461264257600080fd5b50565b6000813590506126548161262e565b92915050565b60008060408385031215612671576126706125bc565b5b600061267f8582860161260f565b925050602061269085828601612645565b9150509250929050565b6126a381612624565b82525050565b60006020820190506126be600083018461269a565b92915050565b60007fffffffff0000000000000000000000000000000000000000000000000000000082169050919050565b6126f9816126c4565b811461270457600080fd5b50565b600081359050612716816126f0565b92915050565b600060208284031215612732576127316125bc565b5b600061274084828501612707565b91505092915050565b60008115159050919050565b61275e81612749565b82525050565b60006020820190506127796000830184612755565b92915050565b600060208284031215612795576127946125bc565b5b60006127a384828501612645565b91505092915050565b600081519050919050565b600082825260208201905092915050565b60005b838110156127e65780820151818401526020810190506127cb565b60008484015250505050565b6000601f19601f8301169050919050565b600061280e826127ac565b61281881856127b7565b93506128288185602086016127c8565b612831816127f2565b840191505092915050565b600060208201905081810360008301526128568184612803565b905092915050565b600080600060608486031215612877576128766125bc565b5b60006128858682870161260f565b935050602061289686828701612645565b92505060406128a786828701612645565b9150509250925092565b6000819050919050565b6128c4816128b1565b81146128cf57600080fd5b50565b6000813590506128e1816128bb565b92915050565b6000602082840312156128fd576128fc6125bc565b5b600061290b848285016128d2565b91505092915050565b61291d816128b1565b82525050565b60006020820190506129386000830184612914565b92915050565b600080fd5b7f4e487b7100000000000000000000000000000000000000000000000000000000600052604160045260246000fd5b61297b826127f2565b810181811067ffffffffffffffff8211171561299a57612999612943565b5b80604052505050565b60006129ad6125b2565b90506129b98282612972565b919050565b600067ffffffffffffffff8211156129d9576129d8612943565b5b602082029050602081019050919050565b600080fd5b6000612a026129fd846129be565b6129a3565b90508083825260208201905060208402830185811115612a2557612a246129ea565b5b835b81811015612a4e5780612a3a8882612645565b845260208401935050602081019050612a27565b5050509392505050565b600082601f830112612a6d57612a6c61293e565b5b8135612a7d8482602086016129ef565b91505092915050565b600080fd5b600067ffffffffffffffff821115612aa657612aa5612943565b5b612aaf826127f2565b9050602081019050919050565b82818337600083830152505050565b6000612ade612ad984612a8b565b6129a3565b905082815260208101848484011115612afa57612af9612a86565b5b612b05848285612abc565b509392505050565b600082601f830112612b2257612b2161293e565b5b8135612b32848260208601612acb565b91505092915050565b600080600080600060a08688031215612b5757612b566125bc565b5b6000612b658882890161260f565b9550506020612b768882890161260f565b945050604086013567ffffffffffffffff811115612b9757612b966125c1565b5b612ba388828901612a58565b935050606086013567ffffffffffffffff811115612bc457612bc36125c1565b5b612bd088828901612a58565b925050608086013567ffffffffffffffff811115612bf157612bf06125c1565b5b612bfd88828901612b0d565b9150509295509295909350565b60008060408385031215612c2157612c206125bc565b5b6000612c2f858286016128d2565b9250506020612c408582860161260f565b9150509250929050565b600060208284031215612c6057612c5f6125bc565b5b6000612c6e8482850161260f565b91505092915050565b600067ffffffffffffffff821115612c9257612c91612943565b5b602082029050602081019050919050565b6000612cb6612cb184612c77565b6129a3565b90508083825260208201905060208402830185811115612cd957612cd86129ea565b5b835b81811015612d025780612cee888261260f565b845260208401935050602081019050612cdb565b5050509392505050565b600082601f830112612d2157612d2061293e565b5b8135612d31848260208601612ca3565b91505092915050565b60008060408385031215612d5157612d506125bc565b5b600083013567ffffffffffffffff811115612d6f57612d6e6125c1565b5b612d7b85828601612d0c565b925050602083013567ffffffffffffffff811115612d9c57612d9b6125c1565b5b612da885828601612a58565b9150509250929050565b600081519050919050565b600082825260208201905092915050565b6000819050602082019050919050565b612de781612624565b82525050565b6000612df98383612dde565b60208301905092915050565b6000602082019050919050565b6000612e1d82612db2565b612e278185612dbd565b9350612e3283612dce565b8060005b83811015612e63578151612e4a8882612ded565b9750612e5583612e05565b925050600181019050612e36565b5085935050505092915050565b60006020820190508181036000830152612e8a8184612e12565b905092915050565b600080600060608486031215612eab57612eaa6125bc565b5b6000612eb986828701612645565b9350506020612eca86828701612645565b9250506040612edb86828701612645565b9150509250925092565b612eee81612749565b8114612ef957600080fd5b50565b600081359050612f0b81612ee5565b92915050565b60008060408385031215612f2857612f276125bc565b5b6000612f368582860161260f565b9250506020612f4785828601612efc565b9150509250929050565b60008060408385031215612f6857612f676125bc565b5b6000612f768582860161260f565b9250506020612f878582860161260f565b9150509250929050565b600080600080600060a08688031215612fad57612fac6125bc565b5b6000612fbb8882890161260f565b9550506020612fcc8882890161260f565b9450506040612fdd88828901612645565b9350506060612fee88828901612645565b925050608086013567ffffffffffffffff81111561300f5761300e6125c1565b5b61301b88828901612b0d565b9150509295509295909350565b7f455243313135353a2061646472657373207a65726f206973206e6f742061207660008201527f616c6964206f776e657200000000000000000000000000000000000000000000602082015250565b6000613084602a836127b7565b915061308f82613028565b604082019050919050565b600060208201905081810360008301526130b381613077565b9050919050565b7f4e487b7100000000000000000000000000000000000000000000000000000000600052602260045260246000fd5b6000600282049050600182168061310157607f821691505b602082108103613114576131136130ba565b5b50919050565b7f4e487b7100000000000000000000000000000000000000000000000000000000600052601160045260246000fd5b600061315482612624565b915061315f83612624565b92508282039050818111156131775761317661311a565b5b92915050565b7f455243313135353a2063616c6c6572206973206e6f7420746f6b656e206f776e60008201527f6572206f7220617070726f766564000000000000000000000000000000000000602082015250565b60006131d9602e836127b7565b91506131e48261317d565b604082019050919050565b60006020820190508181036000830152613208816131cc565b9050919050565b7f416363657373436f6e74726f6c3a2063616e206f6e6c792072656e6f756e636560008201527f20726f6c657320666f722073656c660000000000000000000000000000000000602082015250565b600061326b602f836127b7565b91506132768261320f565b604082019050919050565b6000602082019050818103600083015261329a8161325e565b9050919050565b7f4e6f7420616e2061646d696e0000000000000000000000000000000000000000600082015250565b60006132d7600c836127b7565b91506132e2826132a1565b602082019050919050565b60006020820190508181036000830152613306816132ca565b9050919050565b7f455243313135353a206163636f756e747320616e6420696473206c656e67746860008201527f206d69736d617463680000000000000000000000000000000000000000000000602082015250565b60006133696029836127b7565b91506133748261330d565b604082019050919050565b600060208201905081810360008301526133988161335c565b9050919050565b7f4e487b7100000000000000000000000000000000000000000000000000000000600052603260045260246000fd5b60006133d982612624565b91507fffffffffffffffffffffffffffffffffffffffffffffffffffffffffffffffff820361340b5761340a61311a565b5b600182019050919050565b7f455243313135353a206d696e7420746f20746865207a65726f2061646472657360008201527f7300000000000000000000000000000000000000000000000000000000000000602082015250565b60006134726021836127b7565b915061347d82613416565b604082019050919050565b600060208201905081810360008301526134a181613465565b9050919050565b60006134b382612624565b91506134be83612624565b92508282019050808211156134d6576134d561311a565b5b92915050565b60006040820190506134f1600083018561269a565b6134fe602083018461269a565b9392505050565b7f455243313135353a2069647320616e6420616d6f756e7473206c656e6774682060008201527f6d69736d61746368000000000000000000000000000000000000000000000000602082015250565b60006135616028836127b7565b915061356c82613505565b604082019050919050565b6000602082019050818103600083015261359081613554565b9050919050565b7f455243313135353a207472616e7366657220746f20746865207a65726f20616460008201527f6472657373000000000000000000000000000000000000000000000000000000602082015250565b60006135f36025836127b7565b91506135fe82613597565b604082019050919050565b60006020820190508181036000830152613622816135e6565b9050919050565b7f455243313135353a20696e73756666696369656e742062616c616e636520666f60008201527f72207472616e7366657200000000000000000000000000000000000000000000602082015250565b6000613685602a836127b7565b915061369082613629565b604082019050919050565b600060208201905081810360008301526136b481613678565b9050919050565b600060408201905081810360008301526136d58185612e12565b905081810360208301526136e98184612e12565b90509392505050565b7f455243313135353a206275726e2066726f6d20746865207a65726f206164647260008201527f6573730000000000000000000000000000000000000000000000000000000000602082015250565b600061374e6023836127b7565b9150613759826136f2565b604082019050919050565b6000602082019050818103600083015261377d81613741565b9050919050565b7f455243313135353a206275726e20616d6f756e7420657863656564732062616c60008201527f616e636500000000000000000000000000000000000000000000000000000000602082015250565b60006137e06024836127b7565b91506137eb82613784565b604082019050919050565b6000602082019050818103600083015261380f816137d3565b9050919050565b7f455243313135353a2073657474696e6720617070726f76616c2073746174757360008201527f20666f722073656c660000000000000000000000000000000000000000000000602082015250565b60006138726029836127b7565b915061387d82613816565b604082019050919050565b600060208201905081810360008301526138a181613865565b9050919050565b6138b1816125e6565b82525050565b600081519050919050565b600082825260208201905092915050565b60006138de826138b7565b6138e881856138c2565b93506138f88185602086016127c8565b613901816127f2565b840191505092915050565b600060a08201905061392160008301886138a8565b61392e60208301876138a8565b61393b604083018661269a565b613948606083018561269a565b818103608083015261395a81846138d3565b90509695505050505050565b600081519050613975816126f0565b92915050565b600060208284031215613991576139906125bc565b5b600061399f84828501613966565b91505092915050565b60008160e01c9050919050565b600060033d11156139d45760046000803e6139d16000516139a8565b90505b90565b600060443d10613a64576139e96125b2565b60043d036004823e80513d602482011167ffffffffffffffff82111715613a11575050613a64565b808201805167ffffffffffffffff811115613a2f5750505050613a64565b80602083010160043d038501811115613a4c575050505050613a64565b613a5b82602001850186612972565b82955050505050505b90565b7f455243313135353a207472616e7366657220746f206e6f6e2d4552433131353560008201527f526563656976657220696d706c656d656e746572000000000000000000000000602082015250565b6000613ac36034836127b7565b9150613ace82613a67565b604082019050919050565b60006020820190508181036000830152613af281613ab6565b9050919050565b7f455243313135353a204552433131353552656365697665722072656a6563746560008201527f6420746f6b656e73000000000000000000000000000000000000000000000000602082015250565b6000613b556028836127b7565b9150613b6082613af9565b604082019050919050565b60006020820190508181036000830152613b8481613b48565b9050919050565b600060a082019050613ba060008301886138a8565b613bad60208301876138a8565b8181036040830152613bbf8186612e12565b90508181036060830152613bd38185612e12565b90508181036080830152613be781846138d3565b90509695505050505050565b600081905092915050565b7f416363657373436f6e74726f6c3a206163636f756e7420000000000000000000600082015250565b6000613c34601783613bf3565b9150613c3f82613bfe565b601782019050919050565b6000613c55826127ac565b613c5f8185613bf3565b9350613c6f8185602086016127c8565b80840191505092915050565b7f206973206d697373696e6720726f6c6520000000000000000000000000000000600082015250565b6000613cb1601183613bf3565b9150613cbc82613c7b565b601182019050919050565b6000613cd282613c27565b9150613cde8285613c4a565b9150613ce982613ca4565b9150613cf58284613c4a565b91508190509392505050565b6000613d0c82612624565b9150613d1783612624565b9250828202613d2581612624565b91508282048414831517613d3c57613d3b61311a565b5b5092915050565b6000613d4e82612624565b915060008203613d6157613d6061311a565b5b600182039050919050565b7f537472696e67733a20686578206c656e67746820696e73756666696369656e74600082015250565b6000613da26020836127b7565b9150613dad82613d6c565b602082019050919050565b60006020820190508181036000830152613dd181613d95565b905091905056fea26469706673582212207654533703832626d3a989fd164076662cee2b256fbbd5d92eb3f57144c73a0f64736f6c63430008140033697066733a2f2f516d64704559774a6972634634714835696d4a4734624a5433544836724e59787a434c32643842346247375568792f7b69647d",
  "linkReferences": {},
  "deployedLinkReferences": {}
}