{
  "_format": "hh-sol-artifact-1",
  "contractName": "CirclesERC1155",
  "sourceName": "contracts/CirclesERC1155.sol",
  "abi": [
    {
      "inputs": [],
      "stateMutability": "nonpayable",
      "type": "constructor"
    },
    {
      "inputs": [],
      "name": "CirclesERC1155__CooldownNotElapsed",
      "type": "error"
    },
    {
      "inputs": [],
      "name": "CirclesERC1155__InvalidTokenForBurn",
      "type": "error"
    },
    {
      "inputs": [],
      "name": "CirclesERC1155__InvalidTokenForTrade",
      "type": "error"
    },
    {
      "inputs": [],
      "name": "CirclesERC1155__NotAMinter",
      "type": "error"
    },
    {
      "inputs": [],
      "name": "CirclesERC1155__NotAnAdmin",
      "type": "error"
    },
    {
      "anonymous": false,
      "inputs": [
        {
          "indexed": true,
          "internalType": "address",
          "name": "account",
          "type": "address"
        },
        {
          "indexed": true,
          "internalType": "address",
          "name": "operator",
          "type": "address"
        },
        {
          "indexed": false,
          "internalType": "bool",
          "name": "approved",
          "type": "bool"
        }
      ],
      "name": "ApprovalForAll",
      "type": "event"
    },
    {
      "anonymous": false,
      "inputs": [
        {
          "indexed": true,
          "internalType": "address",
          "name": "account",
          "type": "address"
        },
        {
          "indexed": true,
          "internalType": "uint256",
          "name": "tokenId",
          "type": "uint256"
        }
      ],
      "name": "Burned",
      "type": "event"
    },
    {
      "anonymous": false,
      "inputs": [],
      "name": "DefaultAdminDelayChangeCanceled",
      "type": "event"
    },
    {
      "anonymous": false,
      "inputs": [
        {
          "indexed": false,
          "internalType": "uint48",
          "name": "newDelay",
          "type": "uint48"
        },
        {
          "indexed": false,
          "internalType": "uint48",
          "name": "effectSchedule",
          "type": "uint48"
        }
      ],
      "name": "DefaultAdminDelayChangeScheduled",
      "type": "event"
    },
    {
      "anonymous": false,
      "inputs": [],
      "name": "DefaultAdminTransferCanceled",
      "type": "event"
    },
    {
      "anonymous": false,
      "inputs": [
        {
          "indexed": true,
          "internalType": "address",
          "name": "newAdmin",
          "type": "address"
        },
        {
          "indexed": false,
          "internalType": "uint48",
          "name": "acceptSchedule",
          "type": "uint48"
        }
      ],
      "name": "DefaultAdminTransferScheduled",
      "type": "event"
    },
    {
      "anonymous": false,
      "inputs": [
        {
          "indexed": true,
          "internalType": "address",
          "name": "account",
          "type": "address"
        },
        {
          "indexed": true,
          "internalType": "uint256",
          "name": "tokenId",
          "type": "uint256"
        }
      ],
      "name": "Minted",
      "type": "event"
    },
    {
      "anonymous": false,
      "inputs": [
        {
          "indexed": true,
          "internalType": "bytes32",
          "name": "role",
          "type": "bytes32"
        },
        {
          "indexed": true,
          "internalType": "bytes32",
          "name": "previousAdminRole",
          "type": "bytes32"
        },
        {
          "indexed": true,
          "internalType": "bytes32",
          "name": "newAdminRole",
          "type": "bytes32"
        }
      ],
      "name": "RoleAdminChanged",
      "type": "event"
    },
    {
      "anonymous": false,
      "inputs": [
        {
          "indexed": true,
          "internalType": "bytes32",
          "name": "role",
          "type": "bytes32"
        },
        {
          "indexed": true,
          "internalType": "address",
          "name": "account",
          "type": "address"
        },
        {
          "indexed": true,
          "internalType": "address",
          "name": "sender",
          "type": "address"
        }
      ],
      "name": "RoleGranted",
      "type": "event"
    },
    {
      "anonymous": false,
      "inputs": [
        {
          "indexed": true,
          "internalType": "bytes32",
          "name": "role",
          "type": "bytes32"
        },
        {
          "indexed": true,
          "internalType": "address",
          "name": "account",
          "type": "address"
        },
        {
          "indexed": true,
          "internalType": "address",
          "name": "sender",
          "type": "address"
        }
      ],
      "name": "RoleRevoked",
      "type": "event"
    },
    {
      "anonymous": false,
      "inputs": [
        {
          "indexed": true,
          "internalType": "address",
          "name": "user",
          "type": "address"
        },
        {
          "indexed": true,
          "internalType": "uint256",
          "name": "tokenIdSold",
          "type": "uint256"
        },
        {
          "indexed": true,
          "internalType": "uint256",
          "name": "tokenIdBought",
          "type": "uint256"
        }
      ],
      "name": "Traded",
      "type": "event"
    },
    {
      "anonymous": false,
      "inputs": [
        {
          "indexed": true,
          "internalType": "address",
          "name": "operator",
          "type": "address"
        },
        {
          "indexed": true,
          "internalType": "address",
          "name": "from",
          "type": "address"
        },
        {
          "indexed": true,
          "internalType": "address",
          "name": "to",
          "type": "address"
        },
        {
          "indexed": false,
          "internalType": "uint256[]",
          "name": "ids",
          "type": "uint256[]"
        },
        {
          "indexed": false,
          "internalType": "uint256[]",
          "name": "values",
          "type": "uint256[]"
        }
      ],
      "name": "TransferBatch",
      "type": "event"
    },
    {
      "anonymous": false,
      "inputs": [
        {
          "indexed": true,
          "internalType": "address",
          "name": "operator",
          "type": "address"
        },
        {
          "indexed": true,
          "internalType": "address",
          "name": "from",
          "type": "address"
        },
        {
          "indexed": true,
          "internalType": "address",
          "name": "to",
          "type": "address"
        },
        {
          "indexed": false,
          "internalType": "uint256",
          "name": "id",
          "type": "uint256"
        },
        {
          "indexed": false,
          "internalType": "uint256",
          "name": "value",
          "type": "uint256"
        }
      ],
      "name": "TransferSingle",
      "type": "event"
    },
    {
      "anonymous": false,
      "inputs": [
        {
          "indexed": false,
          "internalType": "string",
          "name": "value",
          "type": "string"
        },
        {
          "indexed": true,
          "internalType": "uint256",
          "name": "id",
          "type": "uint256"
        }
      ],
      "name": "URI",
      "type": "event"
    },
    {
      "inputs": [],
      "name": "COOLDOWN_TIME",
      "outputs": [
        {
          "internalType": "uint256",
          "name": "",
          "type": "uint256"
        }
      ],
      "stateMutability": "view",
      "type": "function"
    },
    {
      "inputs": [],
      "name": "DEFAULT_ADMIN_ROLE",
      "outputs": [
        {
          "internalType": "bytes32",
          "name": "",
          "type": "bytes32"
        }
      ],
      "stateMutability": "view",
      "type": "function"
    },
    {
      "inputs": [],
      "name": "MINTER_ROLE",
      "outputs": [
        {
          "internalType": "bytes32",
          "name": "",
          "type": "bytes32"
        }
      ],
      "stateMutability": "view",
      "type": "function"
    },
    {
      "inputs": [],
      "name": "TOKEN_ID_0",
      "outputs": [
        {
          "internalType": "uint256",
          "name": "",
          "type": "uint256"
        }
      ],
      "stateMutability": "view",
      "type": "function"
    },
    {
      "inputs": [],
      "name": "TOKEN_ID_1",
      "outputs": [
        {
          "internalType": "uint256",
          "name": "",
          "type": "uint256"
        }
      ],
      "stateMutability": "view",
      "type": "function"
    },
    {
      "inputs": [],
      "name": "TOKEN_ID_2",
      "outputs": [
        {
          "internalType": "uint256",
          "name": "",
          "type": "uint256"
        }
      ],
      "stateMutability": "view",
      "type": "function"
    },
    {
      "inputs": [],
      "name": "TOKEN_ID_3",
      "outputs": [
        {
          "internalType": "uint256",
          "name": "",
          "type": "uint256"
        }
      ],
      "stateMutability": "view",
      "type": "function"
    },
    {
      "inputs": [],
      "name": "TOKEN_ID_4",
      "outputs": [
        {
          "internalType": "uint256",
          "name": "",
          "type": "uint256"
        }
      ],
      "stateMutability": "view",
      "type": "function"
    },
    {
      "inputs": [],
      "name": "TOKEN_ID_5",
      "outputs": [
        {
          "internalType": "uint256",
          "name": "",
          "type": "uint256"
        }
      ],
      "stateMutability": "view",
      "type": "function"
    },
    {
      "inputs": [],
      "name": "TOKEN_ID_6",
      "outputs": [
        {
          "internalType": "uint256",
          "name": "",
          "type": "uint256"
        }
      ],
      "stateMutability": "view",
      "type": "function"
    },
    {
      "inputs": [],
      "name": "acceptDefaultAdminTransfer",
      "outputs": [],
      "stateMutability": "nonpayable",
      "type": "function"
    },
    {
      "inputs": [
        {
          "internalType": "address",
          "name": "account",
          "type": "address"
        },
        {
          "internalType": "uint256",
          "name": "id",
          "type": "uint256"
        }
      ],
      "name": "balanceOf",
      "outputs": [
        {
          "internalType": "uint256",
          "name": "",
          "type": "uint256"
        }
      ],
      "stateMutability": "view",
      "type": "function"
    },
    {
      "inputs": [
        {
          "internalType": "address[]",
          "name": "accounts",
          "type": "address[]"
        },
        {
          "internalType": "uint256[]",
          "name": "ids",
          "type": "uint256[]"
        }
      ],
      "name": "balanceOfBatch",
      "outputs": [
        {
          "internalType": "uint256[]",
          "name": "",
          "type": "uint256[]"
        }
      ],
      "stateMutability": "view",
      "type": "function"
    },
    {
      "inputs": [
        {
          "internalType": "address",
          "name": "newAdmin",
          "type": "address"
        }
      ],
      "name": "beginDefaultAdminTransfer",
      "outputs": [],
      "stateMutability": "nonpayable",
      "type": "function"
    },
    {
      "inputs": [
        {
          "internalType": "address",
          "name": "account",
          "type": "address"
        },
        {
          "internalType": "uint256",
          "name": "tokenId",
          "type": "uint256"
        }
      ],
      "name": "burn",
      "outputs": [],
      "stateMutability": "nonpayable",
      "type": "function"
    },
    {
      "inputs": [],
      "name": "cancelDefaultAdminTransfer",
      "outputs": [],
      "stateMutability": "nonpayable",
      "type": "function"
    },
    {
      "inputs": [
        {
          "internalType": "uint48",
          "name": "newDelay",
          "type": "uint48"
        }
      ],
      "name": "changeDefaultAdminDelay",
      "outputs": [],
      "stateMutability": "nonpayable",
      "type": "function"
    },
    {
      "inputs": [],
      "name": "defaultAdmin",
      "outputs": [
        {
          "internalType": "address",
          "name": "",
          "type": "address"
        }
      ],
      "stateMutability": "view",
      "type": "function"
    },
    {
      "inputs": [],
      "name": "defaultAdminDelay",
      "outputs": [
        {
          "internalType": "uint48",
          "name": "",
          "type": "uint48"
        }
      ],
      "stateMutability": "view",
      "type": "function"
    },
    {
      "inputs": [],
      "name": "defaultAdminDelayIncreaseWait",
      "outputs": [
        {
          "internalType": "uint48",
          "name": "",
          "type": "uint48"
        }
      ],
      "stateMutability": "view",
      "type": "function"
    },
    {
      "inputs": [
        {
          "internalType": "address",
          "name": "user",
          "type": "address"
        }
      ],
      "name": "getLastMintTimestamp",
      "outputs": [
        {
          "internalType": "uint256",
          "name": "",
          "type": "uint256"
        }
      ],
      "stateMutability": "view",
      "type": "function"
    },
    {
      "inputs": [
        {
          "internalType": "bytes32",
          "name": "role",
          "type": "bytes32"
        }
      ],
      "name": "getRoleAdmin",
      "outputs": [
        {
          "internalType": "bytes32",
          "name": "",
          "type": "bytes32"
        }
      ],
      "stateMutability": "view",
      "type": "function"
    },
    {
      "inputs": [
        {
          "internalType": "bytes32",
          "name": "role",
          "type": "bytes32"
        },
        {
          "internalType": "address",
          "name": "account",
          "type": "address"
        }
      ],
      "name": "grantRole",
      "outputs": [],
      "stateMutability": "nonpayable",
      "type": "function"
    },
    {
      "inputs": [
        {
          "internalType": "bytes32",
          "name": "role",
          "type": "bytes32"
        },
        {
          "internalType": "address",
          "name": "account",
          "type": "address"
        }
      ],
      "name": "hasRole",
      "outputs": [
        {
          "internalType": "bool",
          "name": "",
          "type": "bool"
        }
      ],
      "stateMutability": "view",
      "type": "function"
    },
    {
      "inputs": [
        {
          "internalType": "address",
          "name": "account",
          "type": "address"
        },
        {
          "internalType": "address",
          "name": "operator",
          "type": "address"
        }
      ],
      "name": "isApprovedForAll",
      "outputs": [
        {
          "internalType": "bool",
          "name": "",
          "type": "bool"
        }
      ],
      "stateMutability": "view",
      "type": "function"
    },
    {
      "inputs": [
        {
          "internalType": "address",
          "name": "account",
          "type": "address"
        },
        {
          "internalType": "uint256",
          "name": "tokenId",
          "type": "uint256"
        }
      ],
      "name": "mint",
      "outputs": [],
      "stateMutability": "nonpayable",
      "type": "function"
    },
    {
      "inputs": [],
      "name": "owner",
      "outputs": [
        {
          "internalType": "address",
          "name": "",
          "type": "address"
        }
      ],
      "stateMutability": "view",
      "type": "function"
    },
    {
      "inputs": [],
      "name": "pendingDefaultAdmin",
      "outputs": [
        {
          "internalType": "address",
          "name": "newAdmin",
          "type": "address"
        },
        {
          "internalType": "uint48",
          "name": "schedule",
          "type": "uint48"
        }
      ],
      "stateMutability": "view",
      "type": "function"
    },
    {
      "inputs": [],
      "name": "pendingDefaultAdminDelay",
      "outputs": [
        {
          "internalType": "uint48",
          "name": "newDelay",
          "type": "uint48"
        },
        {
          "internalType": "uint48",
          "name": "schedule",
          "type": "uint48"
        }
      ],
      "stateMutability": "view",
      "type": "function"
    },
    {
      "inputs": [
        {
          "internalType": "bytes32",
          "name": "role",
          "type": "bytes32"
        },
        {
          "internalType": "address",
          "name": "account",
          "type": "address"
        }
      ],
      "name": "renounceRole",
      "outputs": [],
      "stateMutability": "nonpayable",
      "type": "function"
    },
    {
      "inputs": [
        {
          "internalType": "bytes32",
          "name": "role",
          "type": "bytes32"
        },
        {
          "internalType": "address",
          "name": "account",
          "type": "address"
        }
      ],
      "name": "revokeRole",
      "outputs": [],
      "stateMutability": "nonpayable",
      "type": "function"
    },
    {
      "inputs": [],
      "name": "rollbackDefaultAdminDelay",
      "outputs": [],
      "stateMutability": "nonpayable",
      "type": "function"
    },
    {
      "inputs": [
        {
          "internalType": "address",
          "name": "from",
          "type": "address"
        },
        {
          "internalType": "address",
          "name": "to",
          "type": "address"
        },
        {
          "internalType": "uint256[]",
          "name": "ids",
          "type": "uint256[]"
        },
        {
          "internalType": "uint256[]",
          "name": "amounts",
          "type": "uint256[]"
        },
        {
          "internalType": "bytes",
          "name": "data",
          "type": "bytes"
        }
      ],
      "name": "safeBatchTransferFrom",
      "outputs": [],
      "stateMutability": "nonpayable",
      "type": "function"
    },
    {
      "inputs": [
        {
          "internalType": "address",
          "name": "from",
          "type": "address"
        },
        {
          "internalType": "address",
          "name": "to",
          "type": "address"
        },
        {
          "internalType": "uint256",
          "name": "id",
          "type": "uint256"
        },
        {
          "internalType": "uint256",
          "name": "amount",
          "type": "uint256"
        },
        {
          "internalType": "bytes",
          "name": "data",
          "type": "bytes"
        }
      ],
      "name": "safeTransferFrom",
      "outputs": [],
      "stateMutability": "nonpayable",
      "type": "function"
    },
    {
      "inputs": [
        {
          "internalType": "address",
          "name": "operator",
          "type": "address"
        },
        {
          "internalType": "bool",
          "name": "approved",
          "type": "bool"
        }
      ],
      "name": "setApprovalForAll",
      "outputs": [],
      "stateMutability": "nonpayable",
      "type": "function"
    },
    {
      "inputs": [
        {
          "internalType": "address",
          "name": "_forgingContract",
          "type": "address"
        }
      ],
      "name": "setForgingContract",
      "outputs": [],
      "stateMutability": "nonpayable",
      "type": "function"
    },
    {
      "inputs": [
        {
          "internalType": "bytes4",
          "name": "interfaceId",
          "type": "bytes4"
        }
      ],
      "name": "supportsInterface",
      "outputs": [
        {
          "internalType": "bool",
          "name": "",
          "type": "bool"
        }
      ],
      "stateMutability": "view",
      "type": "function"
    },
    {
      "inputs": [
        {
          "internalType": "uint256",
          "name": "tokenId",
          "type": "uint256"
        },
        {
          "internalType": "uint256",
          "name": "desiredToken",
          "type": "uint256"
        }
      ],
      "name": "tradeToken",
      "outputs": [],
      "stateMutability": "nonpayable",
      "type": "function"
    },
    {
      "inputs": [
        {
          "internalType": "uint256",
          "name": "",
          "type": "uint256"
        }
      ],
      "name": "uri",
      "outputs": [
        {
          "internalType": "string",
          "name": "",
          "type": "string"
        }
      ],
      "stateMutability": "view",
      "type": "function"
    }
  ],
  "bytecode": "0x60806040523480156200001157600080fd5b5062015180336040518060600160405280603a815260200162005774603a91396200004281620000f760201b60201c565b50600073ffffffffffffffffffffffffffffffffffffffff168173ffffffffffffffffffffffffffffffffffffffff1603620000b5576040517f08c379a0000000000000000000000000000000000000000000000000000000008152600401620000ac90620003e0565b60405180910390fd5b816004601a6101000a81548165ffffffffffff021916908365ffffffffffff160217905550620000ef6000801b826200010c60201b60201c565b5050620007fb565b80600290816200010891906200067c565b5050565b6000801b8203620001da57600073ffffffffffffffffffffffffffffffffffffffff166200013f620001f060201b60201c565b73ffffffffffffffffffffffffffffffffffffffff161462000198576040517f08c379a00000000000000000000000000000000000000000000000000000000081526004016200018f90620007d9565b60405180910390fd5b80600560006101000a81548173ffffffffffffffffffffffffffffffffffffffff021916908373ffffffffffffffffffffffffffffffffffffffff1602179055505b620001ec82826200021a60201b60201c565b5050565b6000600560009054906101000a900473ffffffffffffffffffffffffffffffffffffffff16905090565b6200022c82826200030c60201b60201c565b620003085760016003600084815260200190815260200160002060000160008373ffffffffffffffffffffffffffffffffffffffff1673ffffffffffffffffffffffffffffffffffffffff16815260200190815260200160002060006101000a81548160ff021916908315150217905550620002ad6200037760201b60201c565b73ffffffffffffffffffffffffffffffffffffffff168173ffffffffffffffffffffffffffffffffffffffff16837f2f8788117e7eff1d82e926ec794901d17c78024a50270940304540a733656f0d60405160405180910390a45b5050565b60006003600084815260200190815260200160002060000160008373ffffffffffffffffffffffffffffffffffffffff1673ffffffffffffffffffffffffffffffffffffffff16815260200190815260200160002060009054906101000a900460ff16905092915050565b600033905090565b600082825260208201905092915050565b7f416363657373436f6e74726f6c3a20302064656661756c742061646d696e0000600082015250565b6000620003c8601e836200037f565b9150620003d58262000390565b602082019050919050565b60006020820190508181036000830152620003fb81620003b9565b9050919050565b600081519050919050565b7f4e487b7100000000000000000000000000000000000000000000000000000000600052604160045260246000fd5b7f4e487b7100000000000000000000000000000000000000000000000000000000600052602260045260246000fd5b600060028204905060018216806200048457607f821691505b6020821081036200049a57620004996200043c565b5b50919050565b60008190508160005260206000209050919050565b60006020601f8301049050919050565b600082821b905092915050565b600060088302620005047fffffffffffffffffffffffffffffffffffffffffffffffffffffffffffffffff82620004c5565b620005108683620004c5565b95508019841693508086168417925050509392505050565b6000819050919050565b6000819050919050565b60006200055d62000557620005518462000528565b62000532565b62000528565b9050919050565b6000819050919050565b62000579836200053c565b62000591620005888262000564565b848454620004d2565b825550505050565b600090565b620005a862000599565b620005b58184846200056e565b505050565b5b81811015620005dd57620005d16000826200059e565b600181019050620005bb565b5050565b601f8211156200062c57620005f681620004a0565b6200060184620004b5565b8101602085101562000611578190505b620006296200062085620004b5565b830182620005ba565b50505b505050565b600082821c905092915050565b6000620006516000198460080262000631565b1980831691505092915050565b60006200066c83836200063e565b9150826002028217905092915050565b620006878262000402565b67ffffffffffffffff811115620006a357620006a26200040d565b5b620006af82546200046b565b620006bc828285620005e1565b600060209050601f831160018114620006f45760008415620006df578287015190505b620006eb85826200065e565b8655506200075b565b601f1984166200070486620004a0565b60005b828110156200072e5784890151825560018201915060208501945060208101905062000707565b868310156200074e57848901516200074a601f8916826200063e565b8355505b6001600288020188555050505b505050505050565b7f416363657373436f6e74726f6c3a2064656661756c742061646d696e20616c7260008201527f65616479206772616e7465640000000000000000000000000000000000000000602082015250565b6000620007c1602c836200037f565b9150620007ce8262000763565b604082019050919050565b60006020820190508181036000830152620007f481620007b2565b9050919050565b614f69806200080b6000396000f3fe608060405234801561001057600080fd5b506004361061023c5760003560e01c80637d2632451161013b578063cc8463c8116100b8578063d602b9fd1161007c578063d602b9fd1461066d578063d752f33814610677578063e5617bba14610695578063e985e9c5146106c5578063f242432a146106f55761023c565b8063cc8463c8146105ec578063cefc14291461060a578063cf6eefb714610614578063d539139314610633578063d547741f146106515761023c565b8063a1eda53c116100ff578063a1eda53c14610557578063a217fddf14610576578063a22cb46514610594578063b605cd30146105b0578063c1b0adc9146105ce5761023c565b80637d263245146104b157806384ef8ffc146104cf5780638da5cb5b146104ed57806391d148541461050b5780639dc29fac1461053b5761023c565b80632f2ff15d116101c9578063634e93da1161018d578063634e93da1461041f578063649a5ec71461043b57806367dde6d5146104575780636ad9e4b514610475578063732dcfa8146104935761023c565b80632f2ff15d1461037f57806336568abe1461039b57806340c10f19146103b757806344c14e96146103d35780634e1273f4146103ef5761023c565b80630e89341c116102105780630e89341c146102c95780630f73bcce146102f9578063248a9ca3146103175780632d854d4c146103475780632eb2c2d6146103635761023c565b8062fdd58e1461024157806301ffc9a714610271578063022d63fb146102a15780630aa6220b146102bf575b600080fd5b61025b60048036038101906102569190613313565b610711565b6040516102689190613362565b60405180910390f35b61028b600480360381019061028691906133d5565b6107d9565b604051610298919061341d565b60405180910390f35b6102a96107eb565b6040516102b69190613459565b60405180910390f35b6102c76107f6565b005b6102e360048036038101906102de9190613474565b61080e565b6040516102f09190613531565b60405180910390f35b6103016108a2565b60405161030e9190613362565b60405180910390f35b610331600480360381019061032c9190613589565b6108a7565b60405161033e91906135c5565b60405180910390f35b610361600480360381019061035c91906135e0565b6108c7565b005b61037d6004803603810190610378919061381d565b6109b6565b005b610399600480360381019061039491906138ec565b610a57565b005b6103b560048036038101906103b091906138ec565b610aaa565b005b6103d160048036038101906103cc9190613313565b610bbb565b005b6103ed60048036038101906103e8919061392c565b610d56565b005b61040960048036038101906104049190613a1c565b610ecc565b6040516104169190613b52565b60405180910390f35b6104396004803603810190610434919061392c565b610fe5565b005b61045560048036038101906104509190613ba0565b610fff565b005b61045f611019565b60405161046c9190613362565b60405180910390f35b61047d61101e565b60405161048a9190613362565b60405180910390f35b61049b611023565b6040516104a89190613362565b60405180910390f35b6104b9611028565b6040516104c69190613362565b60405180910390f35b6104d761102d565b6040516104e49190613bdc565b60405180910390f35b6104f5611057565b6040516105029190613bdc565b60405180910390f35b610525600480360381019061052091906138ec565b611066565b604051610532919061341d565b60405180910390f35b61055560048036038101906105509190613313565b6110d1565b005b61055f61119e565b60405161056d929190613bf7565b60405180910390f35b61057e6111fe565b60405161058b91906135c5565b60405180910390f35b6105ae60048036038101906105a99190613c4c565b611205565b005b6105b861121b565b6040516105c59190613362565b60405180910390f35b6105d6611220565b6040516105e39190613362565b60405180910390f35b6105f4611225565b6040516106019190613459565b60405180910390f35b610612611293565b005b61061c611320565b60405161062a929190613c8c565b60405180910390f35b61063b611363565b60405161064891906135c5565b60405180910390f35b61066b600480360381019061066691906138ec565b611387565b005b6106756113da565b005b61067f6113f2565b60405161068c9190613362565b60405180910390f35b6106af60048036038101906106aa919061392c565b6113f7565b6040516106bc9190613362565b60405180910390f35b6106df60048036038101906106da9190613cb5565b611440565b6040516106ec919061341d565b60405180910390f35b61070f600480360381019061070a9190613cf5565b6114d4565b005b60008073ffffffffffffffffffffffffffffffffffffffff168373ffffffffffffffffffffffffffffffffffffffff1603610781576040517f08c379a000000000000000000000000000000000000000000000000000000000815260040161077890613dfe565b60405180910390fd5b60008083815260200190815260200160002060008473ffffffffffffffffffffffffffffffffffffffff1673ffffffffffffffffffffffffffffffffffffffff16815260200190815260200160002054905092915050565b60006107e482611575565b9050919050565b600062069780905090565b6000801b610803816115ef565b61080b611603565b50565b60606002805461081d90613e4d565b80601f016020809104026020016040519081016040528092919081815260200182805461084990613e4d565b80156108965780601f1061086b57610100808354040283529160200191610896565b820191906000526020600020905b81548152906001019060200180831161087957829003601f168201915b50505050509050919050565b600381565b600060036000838152602001908152602001600020600101549050919050565b600382101580156108d9575060068211155b61090f576040517f95726d7700000000000000000000000000000000000000000000000000000000815260040160405180910390fd5b60008110158015610921575060028111155b610957576040517f95726d7700000000000000000000000000000000000000000000000000000000815260040160405180910390fd5b61096333836001611610565b61096d3382610bbb565b80823373ffffffffffffffffffffffffffffffffffffffff167f78d2a71fcafab043e19f93e059dae12d27022e6cf5d2d55df924207e6a0ab29e60405160405180910390a45050565b6109be611856565b73ffffffffffffffffffffffffffffffffffffffff168573ffffffffffffffffffffffffffffffffffffffff161480610a045750610a03856109fe611856565b611440565b5b610a43576040517f08c379a0000000000000000000000000000000000000000000000000000000008152600401610a3a90613ef0565b60405180910390fd5b610a50858585858561185e565b5050505050565b6000801b8203610a9c576040517f08c379a0000000000000000000000000000000000000000000000000000000008152600401610a9390613f82565b60405180910390fd5b610aa68282611b7f565b5050565b6000801b82148015610aee5750610abf61102d565b73ffffffffffffffffffffffffffffffffffffffff168173ffffffffffffffffffffffffffffffffffffffff16145b15610bad57600080610afe611320565b91509150600073ffffffffffffffffffffffffffffffffffffffff168273ffffffffffffffffffffffffffffffffffffffff16148015610b435750610b4281611ba0565b5b8015610b545750610b5381611bb5565b5b610b93576040517f08c379a0000000000000000000000000000000000000000000000000000000008152600401610b8a90614014565b60405180910390fd5b600460146101000a81549065ffffffffffff021916905550505b610bb78282611bc9565b5050565b60028111610c9157603c600760003373ffffffffffffffffffffffffffffffffffffffff1673ffffffffffffffffffffffffffffffffffffffff1681526020019081526020016000205442610c109190614063565b1015610c48576040517f3b5a910b00000000000000000000000000000000000000000000000000000000815260040160405180910390fd5b42600760003373ffffffffffffffffffffffffffffffffffffffff1673ffffffffffffffffffffffffffffffffffffffff16815260200190815260200160002081905550610cf2565b610cbb7f9f2df0fed2c77648de5860a4cc508cd0818c85b8b8a1ab4ceeef8d981c8956a633611066565b610cf1576040517f7b628f9f00000000000000000000000000000000000000000000000000000000815260040160405180910390fd5b5b610d0e8282600160405180602001604052806000815250611c4c565b803373ffffffffffffffffffffffffffffffffffffffff167f30385c845b448a36257a6a1716e6ad2e1bc2cbe333cde1e69fe849ad6511adfe60405160405180910390a35050565b610d636000801b33611066565b610d99576040517f4c7a419500000000000000000000000000000000000000000000000000000000815260040160405180910390fd5b600073ffffffffffffffffffffffffffffffffffffffff16600660009054906101000a900473ffffffffffffffffffffffffffffffffffffffff1673ffffffffffffffffffffffffffffffffffffffff1614610e3c57610e3b7f9f2df0fed2c77648de5860a4cc508cd0818c85b8b8a1ab4ceeef8d981c8956a6600660009054906101000a900473ffffffffffffffffffffffffffffffffffffffff16611387565b5b80600660006101000a81548173ffffffffffffffffffffffffffffffffffffffff021916908373ffffffffffffffffffffffffffffffffffffffff160217905550610ec97f9f2df0fed2c77648de5860a4cc508cd0818c85b8b8a1ab4ceeef8d981c8956a6600660009054906101000a900473ffffffffffffffffffffffffffffffffffffffff16610a57565b50565b60608151835114610f12576040517f08c379a0000000000000000000000000000000000000000000000000000000008152600401610f0990614109565b60405180910390fd5b6000835167ffffffffffffffff811115610f2f57610f2e613625565b5b604051908082528060200260200182016040528015610f5d5781602001602082028036833780820191505090505b50905060005b8451811015610fda57610faa858281518110610f8257610f81614129565b5b6020026020010151858381518110610f9d57610f9c614129565b5b6020026020010151610711565b828281518110610fbd57610fbc614129565b5b60200260200101818152505080610fd390614158565b9050610f63565b508091505092915050565b6000801b610ff2816115ef565b610ffb82611dfc565b5050565b6000801b61100c816115ef565b61101582611e77565b5050565b600281565b600181565b600481565b603c81565b6000600560009054906101000a900473ffffffffffffffffffffffffffffffffffffffff16905090565b600061106161102d565b905090565b60006003600084815260200190815260200160002060000160008373ffffffffffffffffffffffffffffffffffffffff1673ffffffffffffffffffffffffffffffffffffffff16815260200190815260200160002060009054906101000a900460ff16905092915050565b6110fb7f9f2df0fed2c77648de5860a4cc508cd0818c85b8b8a1ab4ceeef8d981c8956a633611066565b158015611113575060038110806111125750600681115b5b1561114a576040517fdc1be6e600000000000000000000000000000000000000000000000000000000815260040160405180910390fd5b61115682826001611610565b808273ffffffffffffffffffffffffffffffffffffffff167f696de425f79f4a40bc6d2122ca50507f0efbeabbff86a84871b7196ab8ea8df760405160405180910390a35050565b6000806005601a9054906101000a900465ffffffffffff1690506111c181611ba0565b80156111d357506111d181611bb5565b155b6111df576000806111f6565b600560149054906101000a900465ffffffffffff16815b915091509091565b6000801b81565b611217611210611856565b8383611ede565b5050565b600681565b600081565b6000806005601a9054906101000a900465ffffffffffff16905061124881611ba0565b8015611259575061125881611bb5565b5b611277576004601a9054906101000a900465ffffffffffff1661128d565b600560149054906101000a900465ffffffffffff165b91505090565b600061129d611320565b5090508073ffffffffffffffffffffffffffffffffffffffff166112bf611856565b73ffffffffffffffffffffffffffffffffffffffff1614611315576040517f08c379a000000000000000000000000000000000000000000000000000000000815260040161130c90614212565b60405180910390fd5b61131d61204a565b50565b600080600460009054906101000a900473ffffffffffffffffffffffffffffffffffffffff16600460149054906101000a900465ffffffffffff16915091509091565b7f9f2df0fed2c77648de5860a4cc508cd0818c85b8b8a1ab4ceeef8d981c8956a681565b6000801b82036113cc576040517f08c379a00000000000000000000000000000000000000000000000000000000081526004016113c3906142a4565b60405180910390fd5b6113d68282612113565b5050565b6000801b6113e7816115ef565b6113ef612134565b50565b600581565b6000600760008373ffffffffffffffffffffffffffffffffffffffff1673ffffffffffffffffffffffffffffffffffffffff168152602001908152602001600020549050919050565b6000600160008473ffffffffffffffffffffffffffffffffffffffff1673ffffffffffffffffffffffffffffffffffffffff16815260200190815260200160002060008373ffffffffffffffffffffffffffffffffffffffff1673ffffffffffffffffffffffffffffffffffffffff16815260200190815260200160002060009054906101000a900460ff16905092915050565b6114dc611856565b73ffffffffffffffffffffffffffffffffffffffff168573ffffffffffffffffffffffffffffffffffffffff16148061152257506115218561151c611856565b611440565b5b611561576040517f08c379a000000000000000000000000000000000000000000000000000000000815260040161155890613ef0565b60405180910390fd5b61156e8585858585612141565b5050505050565b60007f31498786000000000000000000000000000000000000000000000000000000007bffffffffffffffffffffffffffffffffffffffffffffffffffffffff1916827bffffffffffffffffffffffffffffffffffffffffffffffffffffffff191614806115e857506115e7826123dc565b5b9050919050565b611600816115fb611856565b612456565b50565b61160e6000806124db565b565b600073ffffffffffffffffffffffffffffffffffffffff168373ffffffffffffffffffffffffffffffffffffffff160361167f576040517f08c379a000000000000000000000000000000000000000000000000000000000815260040161167690614336565b60405180910390fd5b6000611689611856565b90506000611696846125cb565b905060006116a3846125cb565b90506116c383876000858560405180602001604052806000815250612645565b600080600087815260200190815260200160002060008873ffffffffffffffffffffffffffffffffffffffff1673ffffffffffffffffffffffffffffffffffffffff1681526020019081526020016000205490508481101561175a576040517f08c379a0000000000000000000000000000000000000000000000000000000008152600401611751906143c8565b60405180910390fd5b84810360008088815260200190815260200160002060008973ffffffffffffffffffffffffffffffffffffffff1673ffffffffffffffffffffffffffffffffffffffff16815260200190815260200160002081905550600073ffffffffffffffffffffffffffffffffffffffff168773ffffffffffffffffffffffffffffffffffffffff168573ffffffffffffffffffffffffffffffffffffffff167fc3d58168c5ae7397731d063d5bbf3d657854427343f4c083240f7aacaa2d0f6289896040516118279291906143e8565b60405180910390a461184d8488600086866040518060200160405280600081525061264d565b50505050505050565b600033905090565b81518351146118a2576040517f08c379a000000000000000000000000000000000000000000000000000000000815260040161189990614483565b60405180910390fd5b600073ffffffffffffffffffffffffffffffffffffffff168473ffffffffffffffffffffffffffffffffffffffff1603611911576040517f08c379a000000000000000000000000000000000000000000000000000000000815260040161190890614515565b60405180910390fd5b600061191b611856565b905061192b818787878787612645565b60005b8451811015611adc57600085828151811061194c5761194b614129565b5b60200260200101519050600085838151811061196b5761196a614129565b5b60200260200101519050600080600084815260200190815260200160002060008b73ffffffffffffffffffffffffffffffffffffffff1673ffffffffffffffffffffffffffffffffffffffff16815260200190815260200160002054905081811015611a0c576040517f08c379a0000000000000000000000000000000000000000000000000000000008152600401611a03906145a7565b60405180910390fd5b81810360008085815260200190815260200160002060008c73ffffffffffffffffffffffffffffffffffffffff1673ffffffffffffffffffffffffffffffffffffffff168152602001908152602001600020819055508160008085815260200190815260200160002060008b73ffffffffffffffffffffffffffffffffffffffff1673ffffffffffffffffffffffffffffffffffffffff1681526020019081526020016000206000828254611ac191906145c7565b9250508190555050505080611ad590614158565b905061192e565b508473ffffffffffffffffffffffffffffffffffffffff168673ffffffffffffffffffffffffffffffffffffffff168273ffffffffffffffffffffffffffffffffffffffff167f4a39dc06d4c0dbc64b70af90fd698a233a518aa5d07e595d983b8c0526c8f7fb8787604051611b539291906145fb565b60405180910390a4611b6981878787878761264d565b611b77818787878787612655565b505050505050565b611b88826108a7565b611b91816115ef565b611b9b838361282c565b505050565b6000808265ffffffffffff1614159050919050565b6000428265ffffffffffff16109050919050565b611bd1611856565b73ffffffffffffffffffffffffffffffffffffffff168173ffffffffffffffffffffffffffffffffffffffff1614611c3e576040517f08c379a0000000000000000000000000000000000000000000000000000000008152600401611c35906146a4565b60405180910390fd5b611c4882826128fc565b5050565b600073ffffffffffffffffffffffffffffffffffffffff168473ffffffffffffffffffffffffffffffffffffffff1603611cbb576040517f08c379a0000000000000000000000000000000000000000000000000000000008152600401611cb290614736565b60405180910390fd5b6000611cc5611856565b90506000611cd2856125cb565b90506000611cdf856125cb565b9050611cf083600089858589612645565b8460008088815260200190815260200160002060008973ffffffffffffffffffffffffffffffffffffffff1673ffffffffffffffffffffffffffffffffffffffff1681526020019081526020016000206000828254611d4f91906145c7565b925050819055508673ffffffffffffffffffffffffffffffffffffffff16600073ffffffffffffffffffffffffffffffffffffffff168473ffffffffffffffffffffffffffffffffffffffff167fc3d58168c5ae7397731d063d5bbf3d657854427343f4c083240f7aacaa2d0f628989604051611dcd9291906143e8565b60405180910390a4611de48360008985858961264d565b611df383600089898989612979565b50505050505050565b6000611e06611225565b611e0f42612b50565b611e199190614756565b9050611e258282612ba5565b8173ffffffffffffffffffffffffffffffffffffffff167f3377dc44241e779dd06afab5b788a35ca5f3b778836e2990bdb26a2a4b2e5ed682604051611e6b9190613459565b60405180910390a25050565b6000611e8282612c58565b611e8b42612b50565b611e959190614756565b9050611ea182826124db565b7ff1038c18cf84a56e432fdbfaf746924b7ea511dfe03a6506a0ceba4888788d9b8282604051611ed2929190613bf7565b60405180910390a15050565b8173ffffffffffffffffffffffffffffffffffffffff168373ffffffffffffffffffffffffffffffffffffffff1603611f4c576040517f08c379a0000000000000000000000000000000000000000000000000000000008152600401611f4390614802565b60405180910390fd5b80600160008573ffffffffffffffffffffffffffffffffffffffff1673ffffffffffffffffffffffffffffffffffffffff16815260200190815260200160002060008473ffffffffffffffffffffffffffffffffffffffff1673ffffffffffffffffffffffffffffffffffffffff16815260200190815260200160002060006101000a81548160ff0219169083151502179055508173ffffffffffffffffffffffffffffffffffffffff168373ffffffffffffffffffffffffffffffffffffffff167f17307eab39ab6107e8899845ad3d59bd9653f200f220920489ca2b5937696c318360405161203d919061341d565b60405180910390a3505050565b600080612055611320565b9150915061206281611ba0565b8015612073575061207281611bb5565b5b6120b2576040517f08c379a00000000000000000000000000000000000000000000000000000000081526004016120a990614894565b60405180910390fd5b6120c66000801b6120c161102d565b6128fc565b6120d36000801b8361282c565b600460006101000a81549073ffffffffffffffffffffffffffffffffffffffff0219169055600460146101000a81549065ffffffffffff02191690555050565b61211c826108a7565b612125816115ef565b61212f83836128fc565b505050565b61213f600080612ba5565b565b600073ffffffffffffffffffffffffffffffffffffffff168473ffffffffffffffffffffffffffffffffffffffff16036121b0576040517f08c379a00000000000000000000000000000000000000000000000000000000081526004016121a790614515565b60405180910390fd5b60006121ba611856565b905060006121c7856125cb565b905060006121d4856125cb565b90506121e4838989858589612645565b600080600088815260200190815260200160002060008a73ffffffffffffffffffffffffffffffffffffffff1673ffffffffffffffffffffffffffffffffffffffff1681526020019081526020016000205490508581101561227b576040517f08c379a0000000000000000000000000000000000000000000000000000000008152600401612272906145a7565b60405180910390fd5b85810360008089815260200190815260200160002060008b73ffffffffffffffffffffffffffffffffffffffff1673ffffffffffffffffffffffffffffffffffffffff168152602001908152602001600020819055508560008089815260200190815260200160002060008a73ffffffffffffffffffffffffffffffffffffffff1673ffffffffffffffffffffffffffffffffffffffff168152602001908152602001600020600082825461233091906145c7565b925050819055508773ffffffffffffffffffffffffffffffffffffffff168973ffffffffffffffffffffffffffffffffffffffff168573ffffffffffffffffffffffffffffffffffffffff167fc3d58168c5ae7397731d063d5bbf3d657854427343f4c083240f7aacaa2d0f628a8a6040516123ad9291906143e8565b60405180910390a46123c3848a8a86868a61264d565b6123d1848a8a8a8a8a612979565b505050505050505050565b60007f7965db0b000000000000000000000000000000000000000000000000000000007bffffffffffffffffffffffffffffffffffffffffffffffffffffffff1916827bffffffffffffffffffffffffffffffffffffffffffffffffffffffff1916148061244f575061244e82612cb7565b5b9050919050565b6124608282611066565b6124d75761246d81612d99565b61247b8360001c6020612dc6565b60405160200161248c929190614988565b6040516020818303038152906040526040517f08c379a00000000000000000000000000000000000000000000000000000000081526004016124ce9190613531565b60405180910390fd5b5050565b60006005601a9054906101000a900465ffffffffffff1690506124fd81611ba0565b1561257c5761250b81611bb5565b1561254e57600560149054906101000a900465ffffffffffff166004601a6101000a81548165ffffffffffff021916908365ffffffffffff16021790555061257b565b7f2b1fa2edafe6f7b9e97c1a9e0c3660e645beb2dcaa2d45bdbf9beaf5472e1ec560405160405180910390a15b5b82600560146101000a81548165ffffffffffff021916908365ffffffffffff160217905550816005601a6101000a81548165ffffffffffff021916908365ffffffffffff160217905550505050565b60606000600167ffffffffffffffff8111156125ea576125e9613625565b5b6040519080825280602002602001820160405280156126185781602001602082028036833780820191505090505b50905082816000815181106126305761262f614129565b5b60200260200101818152505080915050919050565b505050505050565b505050505050565b6126748473ffffffffffffffffffffffffffffffffffffffff16613002565b15612824578373ffffffffffffffffffffffffffffffffffffffff1663bc197c8187878686866040518663ffffffff1660e01b81526004016126ba959493929190614a17565b6020604051808303816000875af19250505080156126f657506040513d601f19601f820116820180604052508101906126f39190614a94565b60015b61279b57612702614ace565b806308c379a00361275e5750612716614af0565b806127215750612760565b806040517f08c379a00000000000000000000000000000000000000000000000000000000081526004016127559190613531565b60405180910390fd5b505b6040517f08c379a000000000000000000000000000000000000000000000000000000000815260040161279290614bf2565b60405180910390fd5b63bc197c8160e01b7bffffffffffffffffffffffffffffffffffffffffffffffffffffffff1916817bffffffffffffffffffffffffffffffffffffffffffffffffffffffff191614612822576040517f08c379a000000000000000000000000000000000000000000000000000000000815260040161281990614c84565b60405180910390fd5b505b505050505050565b6000801b82036128ee57600073ffffffffffffffffffffffffffffffffffffffff1661285661102d565b73ffffffffffffffffffffffffffffffffffffffff16146128ac576040517f08c379a00000000000000000000000000000000000000000000000000000000081526004016128a390614d16565b60405180910390fd5b80600560006101000a81548173ffffffffffffffffffffffffffffffffffffffff021916908373ffffffffffffffffffffffffffffffffffffffff1602179055505b6128f88282613025565b5050565b6000801b82148015612940575061291161102d565b73ffffffffffffffffffffffffffffffffffffffff168173ffffffffffffffffffffffffffffffffffffffff16145b1561296b57600560006101000a81549073ffffffffffffffffffffffffffffffffffffffff02191690555b6129758282613106565b5050565b6129988473ffffffffffffffffffffffffffffffffffffffff16613002565b15612b48578373ffffffffffffffffffffffffffffffffffffffff1663f23a6e6187878686866040518663ffffffff1660e01b81526004016129de959493929190614d36565b6020604051808303816000875af1925050508015612a1a57506040513d601f19601f82011682018060405250810190612a179190614a94565b60015b612abf57612a26614ace565b806308c379a003612a825750612a3a614af0565b80612a455750612a84565b806040517f08c379a0000000000000000000000000000000000000000000000000000000008152600401612a799190613531565b60405180910390fd5b505b6040517f08c379a0000000000000000000000000000000000000000000000000000000008152600401612ab690614bf2565b60405180910390fd5b63f23a6e6160e01b7bffffffffffffffffffffffffffffffffffffffffffffffffffffffff1916817bffffffffffffffffffffffffffffffffffffffffffffffffffffffff191614612b46576040517f08c379a0000000000000000000000000000000000000000000000000000000008152600401612b3d90614c84565b60405180910390fd5b505b505050505050565b600065ffffffffffff8016821115612b9d576040517f08c379a0000000000000000000000000000000000000000000000000000000008152600401612b9490614e02565b60405180910390fd5b819050919050565b6000612baf611320565b91505082600460006101000a81548173ffffffffffffffffffffffffffffffffffffffff021916908373ffffffffffffffffffffffffffffffffffffffff16021790555081600460146101000a81548165ffffffffffff021916908365ffffffffffff160217905550612c2181611ba0565b15612c53577f8886ebfc4259abdbc16601dd8fb5678e54878f47b3c34836cfc51154a960510960405160405180910390a15b505050565b600080612c63611225565b90508065ffffffffffff168365ffffffffffff1611612c8d578281612c889190614e22565b612caf565b612cae8365ffffffffffff16612ca16107eb565b65ffffffffffff166131e8565b5b915050919050565b60007fd9b67a26000000000000000000000000000000000000000000000000000000007bffffffffffffffffffffffffffffffffffffffffffffffffffffffff1916827bffffffffffffffffffffffffffffffffffffffffffffffffffffffff19161480612d8257507f0e89341c000000000000000000000000000000000000000000000000000000007bffffffffffffffffffffffffffffffffffffffffffffffffffffffff1916827bffffffffffffffffffffffffffffffffffffffffffffffffffffffff1916145b80612d925750612d9182613201565b5b9050919050565b6060612dbf8273ffffffffffffffffffffffffffffffffffffffff16601460ff16612dc6565b9050919050565b606060006002836002612dd99190614e5c565b612de391906145c7565b67ffffffffffffffff811115612dfc57612dfb613625565b5b6040519080825280601f01601f191660200182016040528015612e2e5781602001600182028036833780820191505090505b5090507f300000000000000000000000000000000000000000000000000000000000000081600081518110612e6657612e65614129565b5b60200101907effffffffffffffffffffffffffffffffffffffffffffffffffffffffffffff1916908160001a9053507f780000000000000000000000000000000000000000000000000000000000000081600181518110612eca57612ec9614129565b5b60200101907effffffffffffffffffffffffffffffffffffffffffffffffffffffffffffff1916908160001a90535060006001846002612f0a9190614e5c565b612f1491906145c7565b90505b6001811115612fb4577f3031323334353637383961626364656600000000000000000000000000000000600f861660108110612f5657612f55614129565b5b1a60f81b828281518110612f6d57612f6c614129565b5b60200101907effffffffffffffffffffffffffffffffffffffffffffffffffffffffffffff1916908160001a905350600485901c945080612fad90614e9e565b9050612f17565b5060008414612ff8576040517f08c379a0000000000000000000000000000000000000000000000000000000008152600401612fef90614f13565b60405180910390fd5b8091505092915050565b6000808273ffffffffffffffffffffffffffffffffffffffff163b119050919050565b61302f8282611066565b6131025760016003600084815260200190815260200160002060000160008373ffffffffffffffffffffffffffffffffffffffff1673ffffffffffffffffffffffffffffffffffffffff16815260200190815260200160002060006101000a81548160ff0219169083151502179055506130a7611856565b73ffffffffffffffffffffffffffffffffffffffff168173ffffffffffffffffffffffffffffffffffffffff16837f2f8788117e7eff1d82e926ec794901d17c78024a50270940304540a733656f0d60405160405180910390a45b5050565b6131108282611066565b156131e45760006003600084815260200190815260200160002060000160008373ffffffffffffffffffffffffffffffffffffffff1673ffffffffffffffffffffffffffffffffffffffff16815260200190815260200160002060006101000a81548160ff021916908315150217905550613189611856565b73ffffffffffffffffffffffffffffffffffffffff168173ffffffffffffffffffffffffffffffffffffffff16837ff6391f5c32d9c69d2a47ea670b442974b53935d1edc7fd64eb21e047a839171b60405160405180910390a45b5050565b60008183106131f757816131f9565b825b905092915050565b60007f01ffc9a7000000000000000000000000000000000000000000000000000000007bffffffffffffffffffffffffffffffffffffffffffffffffffffffff1916827bffffffffffffffffffffffffffffffffffffffffffffffffffffffff1916149050919050565b6000604051905090565b600080fd5b600080fd5b600073ffffffffffffffffffffffffffffffffffffffff82169050919050565b60006132aa8261327f565b9050919050565b6132ba8161329f565b81146132c557600080fd5b50565b6000813590506132d7816132b1565b92915050565b6000819050919050565b6132f0816132dd565b81146132fb57600080fd5b50565b60008135905061330d816132e7565b92915050565b6000806040838503121561332a57613329613275565b5b6000613338858286016132c8565b9250506020613349858286016132fe565b9150509250929050565b61335c816132dd565b82525050565b60006020820190506133776000830184613353565b92915050565b60007fffffffff0000000000000000000000000000000000000000000000000000000082169050919050565b6133b28161337d565b81146133bd57600080fd5b50565b6000813590506133cf816133a9565b92915050565b6000602082840312156133eb576133ea613275565b5b60006133f9848285016133c0565b91505092915050565b60008115159050919050565b61341781613402565b82525050565b6000602082019050613432600083018461340e565b92915050565b600065ffffffffffff82169050919050565b61345381613438565b82525050565b600060208201905061346e600083018461344a565b92915050565b60006020828403121561348a57613489613275565b5b6000613498848285016132fe565b91505092915050565b600081519050919050565b600082825260208201905092915050565b60005b838110156134db5780820151818401526020810190506134c0565b60008484015250505050565b6000601f19601f8301169050919050565b6000613503826134a1565b61350d81856134ac565b935061351d8185602086016134bd565b613526816134e7565b840191505092915050565b6000602082019050818103600083015261354b81846134f8565b905092915050565b6000819050919050565b61356681613553565b811461357157600080fd5b50565b6000813590506135838161355d565b92915050565b60006020828403121561359f5761359e613275565b5b60006135ad84828501613574565b91505092915050565b6135bf81613553565b82525050565b60006020820190506135da60008301846135b6565b92915050565b600080604083850312156135f7576135f6613275565b5b6000613605858286016132fe565b9250506020613616858286016132fe565b9150509250929050565b600080fd5b7f4e487b7100000000000000000000000000000000000000000000000000000000600052604160045260246000fd5b61365d826134e7565b810181811067ffffffffffffffff8211171561367c5761367b613625565b5b80604052505050565b600061368f61326b565b905061369b8282613654565b919050565b600067ffffffffffffffff8211156136bb576136ba613625565b5b602082029050602081019050919050565b600080fd5b60006136e46136df846136a0565b613685565b90508083825260208201905060208402830185811115613707576137066136cc565b5b835b81811015613730578061371c88826132fe565b845260208401935050602081019050613709565b5050509392505050565b600082601f83011261374f5761374e613620565b5b813561375f8482602086016136d1565b91505092915050565b600080fd5b600067ffffffffffffffff82111561378857613787613625565b5b613791826134e7565b9050602081019050919050565b82818337600083830152505050565b60006137c06137bb8461376d565b613685565b9050828152602081018484840111156137dc576137db613768565b5b6137e784828561379e565b509392505050565b600082601f83011261380457613803613620565b5b81356138148482602086016137ad565b91505092915050565b600080600080600060a0868803121561383957613838613275565b5b6000613847888289016132c8565b9550506020613858888289016132c8565b945050604086013567ffffffffffffffff8111156138795761387861327a565b5b6138858882890161373a565b935050606086013567ffffffffffffffff8111156138a6576138a561327a565b5b6138b28882890161373a565b925050608086013567ffffffffffffffff8111156138d3576138d261327a565b5b6138df888289016137ef565b9150509295509295909350565b6000806040838503121561390357613902613275565b5b600061391185828601613574565b9250506020613922858286016132c8565b9150509250929050565b60006020828403121561394257613941613275565b5b6000613950848285016132c8565b91505092915050565b600067ffffffffffffffff82111561397457613973613625565b5b602082029050602081019050919050565b600061399861399384613959565b613685565b905080838252602082019050602084028301858111156139bb576139ba6136cc565b5b835b818110156139e457806139d088826132c8565b8452602084019350506020810190506139bd565b5050509392505050565b600082601f830112613a0357613a02613620565b5b8135613a13848260208601613985565b91505092915050565b60008060408385031215613a3357613a32613275565b5b600083013567ffffffffffffffff811115613a5157613a5061327a565b5b613a5d858286016139ee565b925050602083013567ffffffffffffffff811115613a7e57613a7d61327a565b5b613a8a8582860161373a565b9150509250929050565b600081519050919050565b600082825260208201905092915050565b6000819050602082019050919050565b613ac9816132dd565b82525050565b6000613adb8383613ac0565b60208301905092915050565b6000602082019050919050565b6000613aff82613a94565b613b098185613a9f565b9350613b1483613ab0565b8060005b83811015613b45578151613b2c8882613acf565b9750613b3783613ae7565b925050600181019050613b18565b5085935050505092915050565b60006020820190508181036000830152613b6c8184613af4565b905092915050565b613b7d81613438565b8114613b8857600080fd5b50565b600081359050613b9a81613b74565b92915050565b600060208284031215613bb657613bb5613275565b5b6000613bc484828501613b8b565b91505092915050565b613bd68161329f565b82525050565b6000602082019050613bf16000830184613bcd565b92915050565b6000604082019050613c0c600083018561344a565b613c19602083018461344a565b9392505050565b613c2981613402565b8114613c3457600080fd5b50565b600081359050613c4681613c20565b92915050565b60008060408385031215613c6357613c62613275565b5b6000613c71858286016132c8565b9250506020613c8285828601613c37565b9150509250929050565b6000604082019050613ca16000830185613bcd565b613cae602083018461344a565b9392505050565b60008060408385031215613ccc57613ccb613275565b5b6000613cda858286016132c8565b9250506020613ceb858286016132c8565b9150509250929050565b600080600080600060a08688031215613d1157613d10613275565b5b6000613d1f888289016132c8565b9550506020613d30888289016132c8565b9450506040613d41888289016132fe565b9350506060613d52888289016132fe565b925050608086013567ffffffffffffffff811115613d7357613d7261327a565b5b613d7f888289016137ef565b9150509295509295909350565b7f455243313135353a2061646472657373207a65726f206973206e6f742061207660008201527f616c6964206f776e657200000000000000000000000000000000000000000000602082015250565b6000613de8602a836134ac565b9150613df382613d8c565b604082019050919050565b60006020820190508181036000830152613e1781613ddb565b9050919050565b7f4e487b7100000000000000000000000000000000000000000000000000000000600052602260045260246000fd5b60006002820490506001821680613e6557607f821691505b602082108103613e7857613e77613e1e565b5b50919050565b7f455243313135353a2063616c6c6572206973206e6f7420746f6b656e206f776e60008201527f6572206f7220617070726f766564000000000000000000000000000000000000602082015250565b6000613eda602e836134ac565b9150613ee582613e7e565b604082019050919050565b60006020820190508181036000830152613f0981613ecd565b9050919050565b7f416363657373436f6e74726f6c3a2063616e2774206469726563746c7920677260008201527f616e742064656661756c742061646d696e20726f6c6500000000000000000000602082015250565b6000613f6c6036836134ac565b9150613f7782613f10565b604082019050919050565b60006020820190508181036000830152613f9b81613f5f565b9050919050565b7f416363657373436f6e74726f6c3a206f6e6c792063616e2072656e6f756e636560008201527f20696e2074776f2064656c617965642073746570730000000000000000000000602082015250565b6000613ffe6035836134ac565b915061400982613fa2565b604082019050919050565b6000602082019050818103600083015261402d81613ff1565b9050919050565b7f4e487b7100000000000000000000000000000000000000000000000000000000600052601160045260246000fd5b600061406e826132dd565b9150614079836132dd565b925082820390508181111561409157614090614034565b5b92915050565b7f455243313135353a206163636f756e747320616e6420696473206c656e67746860008201527f206d69736d617463680000000000000000000000000000000000000000000000602082015250565b60006140f36029836134ac565b91506140fe82614097565b604082019050919050565b60006020820190508181036000830152614122816140e6565b9050919050565b7f4e487b7100000000000000000000000000000000000000000000000000000000600052603260045260246000fd5b6000614163826132dd565b91507fffffffffffffffffffffffffffffffffffffffffffffffffffffffffffffffff820361419557614194614034565b5b600182019050919050565b7f416363657373436f6e74726f6c3a2070656e64696e672061646d696e206d757360008201527f7420616363657074000000000000000000000000000000000000000000000000602082015250565b60006141fc6028836134ac565b9150614207826141a0565b604082019050919050565b6000602082019050818103600083015261422b816141ef565b9050919050565b7f416363657373436f6e74726f6c3a2063616e2774206469726563746c7920726560008201527f766f6b652064656661756c742061646d696e20726f6c65000000000000000000602082015250565b600061428e6037836134ac565b915061429982614232565b604082019050919050565b600060208201905081810360008301526142bd81614281565b9050919050565b7f455243313135353a206275726e2066726f6d20746865207a65726f206164647260008201527f6573730000000000000000000000000000000000000000000000000000000000602082015250565b60006143206023836134ac565b915061432b826142c4565b604082019050919050565b6000602082019050818103600083015261434f81614313565b9050919050565b7f455243313135353a206275726e20616d6f756e7420657863656564732062616c60008201527f616e636500000000000000000000000000000000000000000000000000000000602082015250565b60006143b26024836134ac565b91506143bd82614356565b604082019050919050565b600060208201905081810360008301526143e1816143a5565b9050919050565b60006040820190506143fd6000830185613353565b61440a6020830184613353565b9392505050565b7f455243313135353a2069647320616e6420616d6f756e7473206c656e6774682060008201527f6d69736d61746368000000000000000000000000000000000000000000000000602082015250565b600061446d6028836134ac565b915061447882614411565b604082019050919050565b6000602082019050818103600083015261449c81614460565b9050919050565b7f455243313135353a207472616e7366657220746f20746865207a65726f20616460008201527f6472657373000000000000000000000000000000000000000000000000000000602082015250565b60006144ff6025836134ac565b915061450a826144a3565b604082019050919050565b6000602082019050818103600083015261452e816144f2565b9050919050565b7f455243313135353a20696e73756666696369656e742062616c616e636520666f60008201527f72207472616e7366657200000000000000000000000000000000000000000000602082015250565b6000614591602a836134ac565b915061459c82614535565b604082019050919050565b600060208201905081810360008301526145c081614584565b9050919050565b60006145d2826132dd565b91506145dd836132dd565b92508282019050808211156145f5576145f4614034565b5b92915050565b600060408201905081810360008301526146158185613af4565b905081810360208301526146298184613af4565b90509392505050565b7f416363657373436f6e74726f6c3a2063616e206f6e6c792072656e6f756e636560008201527f20726f6c657320666f722073656c660000000000000000000000000000000000602082015250565b600061468e602f836134ac565b915061469982614632565b604082019050919050565b600060208201905081810360008301526146bd81614681565b9050919050565b7f455243313135353a206d696e7420746f20746865207a65726f2061646472657360008201527f7300000000000000000000000000000000000000000000000000000000000000602082015250565b60006147206021836134ac565b915061472b826146c4565b604082019050919050565b6000602082019050818103600083015261474f81614713565b9050919050565b600061476182613438565b915061476c83613438565b9250828201905065ffffffffffff81111561478a57614789614034565b5b92915050565b7f455243313135353a2073657474696e6720617070726f76616c2073746174757360008201527f20666f722073656c660000000000000000000000000000000000000000000000602082015250565b60006147ec6029836134ac565b91506147f782614790565b604082019050919050565b6000602082019050818103600083015261481b816147df565b9050919050565b7f416363657373436f6e74726f6c3a207472616e736665722064656c6179206e6f60008201527f7420706173736564000000000000000000000000000000000000000000000000602082015250565b600061487e6028836134ac565b915061488982614822565b604082019050919050565b600060208201905081810360008301526148ad81614871565b9050919050565b600081905092915050565b7f416363657373436f6e74726f6c3a206163636f756e7420000000000000000000600082015250565b60006148f56017836148b4565b9150614900826148bf565b601782019050919050565b6000614916826134a1565b61492081856148b4565b93506149308185602086016134bd565b80840191505092915050565b7f206973206d697373696e6720726f6c6520000000000000000000000000000000600082015250565b60006149726011836148b4565b915061497d8261493c565b601182019050919050565b6000614993826148e8565b915061499f828561490b565b91506149aa82614965565b91506149b6828461490b565b91508190509392505050565b600081519050919050565b600082825260208201905092915050565b60006149e9826149c2565b6149f381856149cd565b9350614a038185602086016134bd565b614a0c816134e7565b840191505092915050565b600060a082019050614a2c6000830188613bcd565b614a396020830187613bcd565b8181036040830152614a4b8186613af4565b90508181036060830152614a5f8185613af4565b90508181036080830152614a7381846149de565b90509695505050505050565b600081519050614a8e816133a9565b92915050565b600060208284031215614aaa57614aa9613275565b5b6000614ab884828501614a7f565b91505092915050565b60008160e01c9050919050565b600060033d1115614aed5760046000803e614aea600051614ac1565b90505b90565b600060443d10614b7d57614b0261326b565b60043d036004823e80513d602482011167ffffffffffffffff82111715614b2a575050614b7d565b808201805167ffffffffffffffff811115614b485750505050614b7d565b80602083010160043d038501811115614b65575050505050614b7d565b614b7482602001850186613654565b82955050505050505b90565b7f455243313135353a207472616e7366657220746f206e6f6e2d4552433131353560008201527f526563656976657220696d706c656d656e746572000000000000000000000000602082015250565b6000614bdc6034836134ac565b9150614be782614b80565b604082019050919050565b60006020820190508181036000830152614c0b81614bcf565b9050919050565b7f455243313135353a204552433131353552656365697665722072656a6563746560008201527f6420746f6b656e73000000000000000000000000000000000000000000000000602082015250565b6000614c6e6028836134ac565b9150614c7982614c12565b604082019050919050565b60006020820190508181036000830152614c9d81614c61565b9050919050565b7f416363657373436f6e74726f6c3a2064656661756c742061646d696e20616c7260008201527f65616479206772616e7465640000000000000000000000000000000000000000602082015250565b6000614d00602c836134ac565b9150614d0b82614ca4565b604082019050919050565b60006020820190508181036000830152614d2f81614cf3565b9050919050565b600060a082019050614d4b6000830188613bcd565b614d586020830187613bcd565b614d656040830186613353565b614d726060830185613353565b8181036080830152614d8481846149de565b90509695505050505050565b7f53616665436173743a2076616c756520646f65736e27742066697420696e203460008201527f3820626974730000000000000000000000000000000000000000000000000000602082015250565b6000614dec6026836134ac565b9150614df782614d90565b604082019050919050565b60006020820190508181036000830152614e1b81614ddf565b9050919050565b6000614e2d82613438565b9150614e3883613438565b9250828203905065ffffffffffff811115614e5657614e55614034565b5b92915050565b6000614e67826132dd565b9150614e72836132dd565b9250828202614e80816132dd565b91508282048414831517614e9757614e96614034565b5b5092915050565b6000614ea9826132dd565b915060008203614ebc57614ebb614034565b5b600182039050919050565b7f537472696e67733a20686578206c656e67746820696e73756666696369656e74600082015250565b6000614efd6020836134ac565b9150614f0882614ec7565b602082019050919050565b60006020820190508181036000830152614f2c81614ef0565b905091905056fea26469706673582212208bdab5a836f8d5928063827c13c48dad7533183b55bf4174daaecd5664dfdf6964736f6c63430008140033697066733a2f2f516d64704559774a6972634634714835696d4a4734624a5433544836724e59787a434c32643842346247375568792f7b69647d",
  "linkReferences": {},
  "deployedLinkReferences": {}
}