{
  "_format": "hh-sol-artifact-1",
  "contractName": "CirclesForge",
  "sourceName": "contracts/CirlcesForge.sol",
  "abi": [
    {
      "inputs": [
        {
          "internalType": "address",
          "name": "_erc1155Address",
          "type": "address"
        }
      ],
      "stateMutability": "nonpayable",
      "type": "constructor"
    },
    {
      "inputs": [],
      "name": "CirclesForge__InsufficientToken0",
      "type": "error"
    },
    {
      "inputs": [],
      "name": "CirclesForge__InsufficientToken1",
      "type": "error"
    },
    {
      "inputs": [],
      "name": "CirclesForge__InsufficientToken2",
      "type": "error"
    },
    {
      "anonymous": false,
      "inputs": [
        {
          "indexed": true,
          "internalType": "address",
          "name": "user",
          "type": "address"
        },
        {
          "indexed": true,
          "internalType": "uint256",
          "name": "tokenId",
          "type": "uint256"
        }
      ],
      "name": "TokenForged",
      "type": "event"
    },
    {
      "inputs": [],
      "name": "TOKEN_ID_0",
      "outputs": [
        {
          "internalType": "uint256",
          "name": "",
          "type": "uint256"
        }
      ],
      "stateMutability": "view",
      "type": "function"
    },
    {
      "inputs": [],
      "name": "TOKEN_ID_1",
      "outputs": [
        {
          "internalType": "uint256",
          "name": "",
          "type": "uint256"
        }
      ],
      "stateMutability": "view",
      "type": "function"
    },
    {
      "inputs": [],
      "name": "TOKEN_ID_2",
      "outputs": [
        {
          "internalType": "uint256",
          "name": "",
          "type": "uint256"
        }
      ],
      "stateMutability": "view",
      "type": "function"
    },
    {
      "inputs": [],
      "name": "TOKEN_ID_3",
      "outputs": [
        {
          "internalType": "uint256",
          "name": "",
          "type": "uint256"
        }
      ],
      "stateMutability": "view",
      "type": "function"
    },
    {
      "inputs": [],
      "name": "TOKEN_ID_4",
      "outputs": [
        {
          "internalType": "uint256",
          "name": "",
          "type": "uint256"
        }
      ],
      "stateMutability": "view",
      "type": "function"
    },
    {
      "inputs": [],
      "name": "TOKEN_ID_5",
      "outputs": [
        {
          "internalType": "uint256",
          "name": "",
          "type": "uint256"
        }
      ],
      "stateMutability": "view",
      "type": "function"
    },
    {
      "inputs": [],
      "name": "TOKEN_ID_6",
      "outputs": [
        {
          "internalType": "uint256",
          "name": "",
          "type": "uint256"
        }
      ],
      "stateMutability": "view",
      "type": "function"
    },
    {
      "inputs": [],
      "name": "forgeToken3",
      "outputs": [],
      "stateMutability": "nonpayable",
      "type": "function"
    },
    {
      "inputs": [],
      "name": "forgeToken4",
      "outputs": [],
      "stateMutability": "nonpayable",
      "type": "function"
    },
    {
      "inputs": [],
      "name": "forgeToken5",
      "outputs": [],
      "stateMutability": "nonpayable",
      "type": "function"
    },
    {
      "inputs": [],
      "name": "forgeToken6",
      "outputs": [],
      "stateMutability": "nonpayable",
      "type": "function"
    }
  ],
  "bytecode": "0x60806040523480156200001157600080fd5b50604051620013ff380380620013ff8339818101604052810190620000379190620000e8565b806000806101000a81548173ffffffffffffffffffffffffffffffffffffffff021916908373ffffffffffffffffffffffffffffffffffffffff160217905550506200011a565b600080fd5b600073ffffffffffffffffffffffffffffffffffffffff82169050919050565b6000620000b08262000083565b9050919050565b620000c281620000a3565b8114620000ce57600080fd5b50565b600081519050620000e281620000b7565b92915050565b6000602082840312156200010157620001006200007e565b5b60006200011184828501620000d1565b91505092915050565b6112d5806200012a6000396000f3fe608060405234801561001057600080fd5b50600436106100a95760003560e01c80636ad9e4b5116100715780636ad9e4b514610108578063732dcfa814610126578063796debfc14610144578063b605cd301461014e578063c1b0adc91461016c578063d752f3381461018a576100a9565b80630f73bcce146100ae578063122b95cc146100cc5780633413ea13146100d65780634d5b937b146100e057806367dde6d5146100ea575b600080fd5b6100b66101a8565b6040516100c391906111bc565b60405180910390f35b6100d46101ad565b005b6100de61054a565b005b6100e86108e7565b005b6100f2610de8565b6040516100ff91906111bc565b60405180910390f35b610110610ded565b60405161011d91906111bc565b60405180910390f35b61012e610df2565b60405161013b91906111bc565b60405180910390f35b61014c610df7565b005b610156611194565b60405161016391906111bc565b60405180910390f35b610174611199565b60405161018191906111bc565b60405180910390f35b61019261119e565b60405161019f91906111bc565b60405180910390f35b600381565b600160008054906101000a900473ffffffffffffffffffffffffffffffffffffffff1673ffffffffffffffffffffffffffffffffffffffff1662fdd58e3360006040518363ffffffff1660e01b815260040161020a929190611218565b602060405180830381865afa158015610227573d6000803e3d6000fd5b505050506040513d601f19601f8201168201806040525081019061024b9190611272565b1015610283576040517f4f9a441e00000000000000000000000000000000000000000000000000000000815260040160405180910390fd5b600160008054906101000a900473ffffffffffffffffffffffffffffffffffffffff1673ffffffffffffffffffffffffffffffffffffffff1662fdd58e3360016040518363ffffffff1660e01b81526004016102e0929190611218565b602060405180830381865afa1580156102fd573d6000803e3d6000fd5b505050506040513d601f19601f820116820180604052508101906103219190611272565b1015610359576040517f208fbe3f00000000000000000000000000000000000000000000000000000000815260040160405180910390fd5b60008054906101000a900473ffffffffffffffffffffffffffffffffffffffff1673ffffffffffffffffffffffffffffffffffffffff16639dc29fac3360006040518363ffffffff1660e01b81526004016103b5929190611218565b600060405180830381600087803b1580156103cf57600080fd5b505af11580156103e3573d6000803e3d6000fd5b5050505060008054906101000a900473ffffffffffffffffffffffffffffffffffffffff1673ffffffffffffffffffffffffffffffffffffffff16639dc29fac3360016040518363ffffffff1660e01b8152600401610443929190611218565b600060405180830381600087803b15801561045d57600080fd5b505af1158015610471573d6000803e3d6000fd5b5050505060008054906101000a900473ffffffffffffffffffffffffffffffffffffffff1673ffffffffffffffffffffffffffffffffffffffff166340c10f193360036040518363ffffffff1660e01b81526004016104d1929190611218565b600060405180830381600087803b1580156104eb57600080fd5b505af11580156104ff573d6000803e3d6000fd5b5050505060033373ffffffffffffffffffffffffffffffffffffffff167feaff6984934711b19c3fb7fa2120d134395da3681074a4654dd4ce63228c4c1060405160405180910390a3565b600160008054906101000a900473ffffffffffffffffffffffffffffffffffffffff1673ffffffffffffffffffffffffffffffffffffffff1662fdd58e3360006040518363ffffffff1660e01b81526004016105a7929190611218565b602060405180830381865afa1580156105c4573d6000803e3d6000fd5b505050506040513d601f19601f820116820180604052508101906105e89190611272565b1015610620576040517f4f9a441e00000000000000000000000000000000000000000000000000000000815260040160405180910390fd5b600160008054906101000a900473ffffffffffffffffffffffffffffffffffffffff1673ffffffffffffffffffffffffffffffffffffffff1662fdd58e3360026040518363ffffffff1660e01b815260040161067d929190611218565b602060405180830381865afa15801561069a573d6000803e3d6000fd5b505050506040513d601f19601f820116820180604052508101906106be9190611272565b10156106f6576040517fd0ea747100000000000000000000000000000000000000000000000000000000815260040160405180910390fd5b60008054906101000a900473ffffffffffffffffffffffffffffffffffffffff1673ffffffffffffffffffffffffffffffffffffffff16639dc29fac3360006040518363ffffffff1660e01b8152600401610752929190611218565b600060405180830381600087803b15801561076c57600080fd5b505af1158015610780573d6000803e3d6000fd5b5050505060008054906101000a900473ffffffffffffffffffffffffffffffffffffffff1673ffffffffffffffffffffffffffffffffffffffff16639dc29fac3360026040518363ffffffff1660e01b81526004016107e0929190611218565b600060405180830381600087803b1580156107fa57600080fd5b505af115801561080e573d6000803e3d6000fd5b5050505060008054906101000a900473ffffffffffffffffffffffffffffffffffffffff1673ffffffffffffffffffffffffffffffffffffffff166340c10f193360056040518363ffffffff1660e01b815260040161086e929190611218565b600060405180830381600087803b15801561088857600080fd5b505af115801561089c573d6000803e3d6000fd5b5050505060053373ffffffffffffffffffffffffffffffffffffffff167feaff6984934711b19c3fb7fa2120d134395da3681074a4654dd4ce63228c4c1060405160405180910390a3565b600160008054906101000a900473ffffffffffffffffffffffffffffffffffffffff1673ffffffffffffffffffffffffffffffffffffffff1662fdd58e3360006040518363ffffffff1660e01b8152600401610944929190611218565b602060405180830381865afa158015610961573d6000803e3d6000fd5b505050506040513d601f19601f820116820180604052508101906109859190611272565b10156109bd576040517f4f9a441e00000000000000000000000000000000000000000000000000000000815260040160405180910390fd5b600160008054906101000a900473ffffffffffffffffffffffffffffffffffffffff1673ffffffffffffffffffffffffffffffffffffffff1662fdd58e3360016040518363ffffffff1660e01b8152600401610a1a929190611218565b602060405180830381865afa158015610a37573d6000803e3d6000fd5b505050506040513d601f19601f82011682018060405250810190610a5b9190611272565b1015610a93576040517f208fbe3f00000000000000000000000000000000000000000000000000000000815260040160405180910390fd5b600160008054906101000a900473ffffffffffffffffffffffffffffffffffffffff1673ffffffffffffffffffffffffffffffffffffffff1662fdd58e3360026040518363ffffffff1660e01b8152600401610af0929190611218565b602060405180830381865afa158015610b0d573d6000803e3d6000fd5b505050506040513d601f19601f82011682018060405250810190610b319190611272565b1015610b69576040517fd0ea747100000000000000000000000000000000000000000000000000000000815260040160405180910390fd5b60008054906101000a900473ffffffffffffffffffffffffffffffffffffffff1673ffffffffffffffffffffffffffffffffffffffff16639dc29fac3360006040518363ffffffff1660e01b8152600401610bc5929190611218565b600060405180830381600087803b158015610bdf57600080fd5b505af1158015610bf3573d6000803e3d6000fd5b5050505060008054906101000a900473ffffffffffffffffffffffffffffffffffffffff1673ffffffffffffffffffffffffffffffffffffffff16639dc29fac3360016040518363ffffffff1660e01b8152600401610c53929190611218565b600060405180830381600087803b158015610c6d57600080fd5b505af1158015610c81573d6000803e3d6000fd5b5050505060008054906101000a900473ffffffffffffffffffffffffffffffffffffffff1673ffffffffffffffffffffffffffffffffffffffff16639dc29fac3360026040518363ffffffff1660e01b8152600401610ce1929190611218565b600060405180830381600087803b158015610cfb57600080fd5b505af1158015610d0f573d6000803e3d6000fd5b5050505060008054906101000a900473ffffffffffffffffffffffffffffffffffffffff1673ffffffffffffffffffffffffffffffffffffffff166340c10f193360066040518363ffffffff1660e01b8152600401610d6f929190611218565b600060405180830381600087803b158015610d8957600080fd5b505af1158015610d9d573d6000803e3d6000fd5b5050505060063373ffffffffffffffffffffffffffffffffffffffff167feaff6984934711b19c3fb7fa2120d134395da3681074a4654dd4ce63228c4c1060405160405180910390a3565b600281565b600181565b600481565b600160008054906101000a900473ffffffffffffffffffffffffffffffffffffffff1673ffffffffffffffffffffffffffffffffffffffff1662fdd58e3360016040518363ffffffff1660e01b8152600401610e54929190611218565b602060405180830381865afa158015610e71573d6000803e3d6000fd5b505050506040513d601f19601f82011682018060405250810190610e959190611272565b1015610ecd576040517f208fbe3f00000000000000000000000000000000000000000000000000000000815260040160405180910390fd5b600160008054906101000a900473ffffffffffffffffffffffffffffffffffffffff1673ffffffffffffffffffffffffffffffffffffffff1662fdd58e3360026040518363ffffffff1660e01b8152600401610f2a929190611218565b602060405180830381865afa158015610f47573d6000803e3d6000fd5b505050506040513d601f19601f82011682018060405250810190610f6b9190611272565b1015610fa3576040517fd0ea747100000000000000000000000000000000000000000000000000000000815260040160405180910390fd5b60008054906101000a900473ffffffffffffffffffffffffffffffffffffffff1673ffffffffffffffffffffffffffffffffffffffff16639dc29fac3360016040518363ffffffff1660e01b8152600401610fff929190611218565b600060405180830381600087803b15801561101957600080fd5b505af115801561102d573d6000803e3d6000fd5b5050505060008054906101000a900473ffffffffffffffffffffffffffffffffffffffff1673ffffffffffffffffffffffffffffffffffffffff16639dc29fac3360026040518363ffffffff1660e01b815260040161108d929190611218565b600060405180830381600087803b1580156110a757600080fd5b505af11580156110bb573d6000803e3d6000fd5b5050505060008054906101000a900473ffffffffffffffffffffffffffffffffffffffff1673ffffffffffffffffffffffffffffffffffffffff166340c10f193360046040518363ffffffff1660e01b815260040161111b929190611218565b600060405180830381600087803b15801561113557600080fd5b505af1158015611149573d6000803e3d6000fd5b5050505060043373ffffffffffffffffffffffffffffffffffffffff167feaff6984934711b19c3fb7fa2120d134395da3681074a4654dd4ce63228c4c1060405160405180910390a3565b600681565b600081565b600581565b6000819050919050565b6111b6816111a3565b82525050565b60006020820190506111d160008301846111ad565b92915050565b600073ffffffffffffffffffffffffffffffffffffffff82169050919050565b6000611202826111d7565b9050919050565b611212816111f7565b82525050565b600060408201905061122d6000830185611209565b61123a60208301846111ad565b9392505050565b600080fd5b61124f816111a3565b811461125a57600080fd5b50565b60008151905061126c81611246565b92915050565b60006020828403121561128857611287611241565b5b60006112968482850161125d565b9150509291505056fea26469706673582212208b0020561cd78d7df36c0fe1e116ac565b959c0c84098d6751e16c282126d9b664736f6c63430008140033",
  "linkReferences": {},
  "deployedLinkReferences": {}
}