{
  "_format": "hh-sol-artifact-1",
  "contractName": "CirclesForge",
  "sourceName": "contracts/CirlcesForge.sol",
  "abi": [
    {
      "inputs": [
        {
          "internalType": "address",
          "name": "_erc1155Address",
          "type": "address"
        }
      ],
      "stateMutability": "nonpayable",
      "type": "constructor"
    },
    {
      "inputs": [],
      "name": "CirclesForge__InsufficientToken0",
      "type": "error"
    },
    {
      "inputs": [],
      "name": "CirclesForge__InsufficientToken1",
      "type": "error"
    },
    {
      "inputs": [],
      "name": "CirclesForge__InsufficientToken2",
      "type": "error"
    },
    {
      "anonymous": false,
      "inputs": [
        {
          "indexed": true,
          "internalType": "address",
          "name": "user",
          "type": "address"
        },
        {
          "indexed": true,
          "internalType": "uint256",
          "name": "tokenId",
          "type": "uint256"
        },
        {
          "indexed": true,
          "internalType": "uint256",
          "name": "amount",
          "type": "uint256"
        }
      ],
      "name": "TokenForged",
      "type": "event"
    },
    {
      "inputs": [],
      "name": "TOKEN_ID_0",
      "outputs": [
        {
          "internalType": "uint256",
          "name": "",
          "type": "uint256"
        }
      ],
      "stateMutability": "view",
      "type": "function"
    },
    {
      "inputs": [],
      "name": "TOKEN_ID_1",
      "outputs": [
        {
          "internalType": "uint256",
          "name": "",
          "type": "uint256"
        }
      ],
      "stateMutability": "view",
      "type": "function"
    },
    {
      "inputs": [],
      "name": "TOKEN_ID_2",
      "outputs": [
        {
          "internalType": "uint256",
          "name": "",
          "type": "uint256"
        }
      ],
      "stateMutability": "view",
      "type": "function"
    },
    {
      "inputs": [],
      "name": "TOKEN_ID_3",
      "outputs": [
        {
          "internalType": "uint256",
          "name": "",
          "type": "uint256"
        }
      ],
      "stateMutability": "view",
      "type": "function"
    },
    {
      "inputs": [],
      "name": "TOKEN_ID_4",
      "outputs": [
        {
          "internalType": "uint256",
          "name": "",
          "type": "uint256"
        }
      ],
      "stateMutability": "view",
      "type": "function"
    },
    {
      "inputs": [],
      "name": "TOKEN_ID_5",
      "outputs": [
        {
          "internalType": "uint256",
          "name": "",
          "type": "uint256"
        }
      ],
      "stateMutability": "view",
      "type": "function"
    },
    {
      "inputs": [],
      "name": "TOKEN_ID_6",
      "outputs": [
        {
          "internalType": "uint256",
          "name": "",
          "type": "uint256"
        }
      ],
      "stateMutability": "view",
      "type": "function"
    },
    {
      "inputs": [
        {
          "internalType": "uint256",
          "name": "_amount",
          "type": "uint256"
        }
      ],
      "name": "forgeToken3",
      "outputs": [],
      "stateMutability": "nonpayable",
      "type": "function"
    },
    {
      "inputs": [
        {
          "internalType": "uint256",
          "name": "_amount",
          "type": "uint256"
        }
      ],
      "name": "forgeToken4",
      "outputs": [],
      "stateMutability": "nonpayable",
      "type": "function"
    },
    {
      "inputs": [
        {
          "internalType": "uint256",
          "name": "_amount",
          "type": "uint256"
        }
      ],
      "name": "forgeToken5",
      "outputs": [],
      "stateMutability": "nonpayable",
      "type": "function"
    },
    {
      "inputs": [
        {
          "internalType": "uint256",
          "name": "_amount",
          "type": "uint256"
        }
      ],
      "name": "forgeToken6",
      "outputs": [],
      "stateMutability": "nonpayable",
      "type": "function"
    }
  ],
  "bytecode": "0x60806040523480156200001157600080fd5b506040516200167f3803806200167f8339818101604052810190620000379190620000e8565b806000806101000a81548173ffffffffffffffffffffffffffffffffffffffff021916908373ffffffffffffffffffffffffffffffffffffffff160217905550506200011a565b600080fd5b600073ffffffffffffffffffffffffffffffffffffffff82169050919050565b6000620000b08262000083565b9050919050565b620000c281620000a3565b8114620000ce57600080fd5b50565b600081519050620000e281620000b7565b92915050565b6000602082840312156200010157620001006200007e565b5b60006200011184828501620000d1565b91505092915050565b611555806200012a6000396000f3fe608060405234801561001057600080fd5b50600436106100a95760003560e01c806372607447116100715780637260744714610140578063732dcfa81461015c578063786b30011461017a578063b605cd3014610196578063c1b0adc9146101b4578063d752f338146101d2576100a9565b806307843ca1146100ae5780630f73bcce146100ca57806351667dd1146100e857806367dde6d5146101045780636ad9e4b514610122575b600080fd5b6100c860048036038101906100c39190611290565b6101f0565b005b6100d2610713565b6040516100df91906112cc565b60405180910390f35b61010260048036038101906100fd9190611290565b610718565b005b61010c610acd565b60405161011991906112cc565b60405180910390f35b61012a610ad2565b60405161013791906112cc565b60405180910390f35b61015a60048036038101906101559190611290565b610ad7565b005b610164610e8c565b60405161017191906112cc565b60405180910390f35b610194600480360381019061018f9190611290565b610e91565b005b61019e611246565b6040516101ab91906112cc565b60405180910390f35b6101bc61124b565b6040516101c991906112cc565b60405180910390f35b6101da611250565b6040516101e791906112cc565b60405180910390f35b8060008054906101000a900473ffffffffffffffffffffffffffffffffffffffff1673ffffffffffffffffffffffffffffffffffffffff1662fdd58e3360006040518363ffffffff1660e01b815260040161024c929190611328565b602060405180830381865afa158015610269573d6000803e3d6000fd5b505050506040513d601f19601f8201168201806040525081019061028d9190611366565b10156102ce576040517f08c379a00000000000000000000000000000000000000000000000000000000081526004016102c5906113f0565b60405180910390fd5b8060008054906101000a900473ffffffffffffffffffffffffffffffffffffffff1673ffffffffffffffffffffffffffffffffffffffff1662fdd58e3360016040518363ffffffff1660e01b815260040161032a929190611328565b602060405180830381865afa158015610347573d6000803e3d6000fd5b505050506040513d601f19601f8201168201806040525081019061036b9190611366565b10156103ac576040517f08c379a00000000000000000000000000000000000000000000000000000000081526004016103a39061145c565b60405180910390fd5b8060008054906101000a900473ffffffffffffffffffffffffffffffffffffffff1673ffffffffffffffffffffffffffffffffffffffff1662fdd58e3360026040518363ffffffff1660e01b8152600401610408929190611328565b602060405180830381865afa158015610425573d6000803e3d6000fd5b505050506040513d601f19601f820116820180604052508101906104499190611366565b101561048a576040517f08c379a0000000000000000000000000000000000000000000000000000000008152600401610481906114c8565b60405180910390fd5b60008054906101000a900473ffffffffffffffffffffffffffffffffffffffff1673ffffffffffffffffffffffffffffffffffffffff1663f5298aca336000846040518463ffffffff1660e01b81526004016104e8939291906114e8565b600060405180830381600087803b15801561050257600080fd5b505af1158015610516573d6000803e3d6000fd5b5050505060008054906101000a900473ffffffffffffffffffffffffffffffffffffffff1673ffffffffffffffffffffffffffffffffffffffff1663f5298aca336001846040518463ffffffff1660e01b8152600401610578939291906114e8565b600060405180830381600087803b15801561059257600080fd5b505af11580156105a6573d6000803e3d6000fd5b5050505060008054906101000a900473ffffffffffffffffffffffffffffffffffffffff1673ffffffffffffffffffffffffffffffffffffffff1663f5298aca336002846040518463ffffffff1660e01b8152600401610608939291906114e8565b600060405180830381600087803b15801561062257600080fd5b505af1158015610636573d6000803e3d6000fd5b5050505060008054906101000a900473ffffffffffffffffffffffffffffffffffffffff1673ffffffffffffffffffffffffffffffffffffffff1663156e29f6336006846040518463ffffffff1660e01b8152600401610698939291906114e8565b600060405180830381600087803b1580156106b257600080fd5b505af11580156106c6573d6000803e3d6000fd5b505050508060063373ffffffffffffffffffffffffffffffffffffffff167fd1b3b9e90cb0395fdbeab9eb199c836fe1e8c56dfe0beda0ad9964cced8fb87860405160405180910390a450565b600381565b8060008054906101000a900473ffffffffffffffffffffffffffffffffffffffff1673ffffffffffffffffffffffffffffffffffffffff1662fdd58e3360006040518363ffffffff1660e01b8152600401610774929190611328565b602060405180830381865afa158015610791573d6000803e3d6000fd5b505050506040513d601f19601f820116820180604052508101906107b59190611366565b10156107f6576040517f08c379a00000000000000000000000000000000000000000000000000000000081526004016107ed906113f0565b60405180910390fd5b8060008054906101000a900473ffffffffffffffffffffffffffffffffffffffff1673ffffffffffffffffffffffffffffffffffffffff1662fdd58e3360016040518363ffffffff1660e01b8152600401610852929190611328565b602060405180830381865afa15801561086f573d6000803e3d6000fd5b505050506040513d601f19601f820116820180604052508101906108939190611366565b10156108d4576040517f08c379a00000000000000000000000000000000000000000000000000000000081526004016108cb9061145c565b60405180910390fd5b60008054906101000a900473ffffffffffffffffffffffffffffffffffffffff1673ffffffffffffffffffffffffffffffffffffffff1663f5298aca336000846040518463ffffffff1660e01b8152600401610932939291906114e8565b600060405180830381600087803b15801561094c57600080fd5b505af1158015610960573d6000803e3d6000fd5b5050505060008054906101000a900473ffffffffffffffffffffffffffffffffffffffff1673ffffffffffffffffffffffffffffffffffffffff1663f5298aca336001846040518463ffffffff1660e01b81526004016109c2939291906114e8565b600060405180830381600087803b1580156109dc57600080fd5b505af11580156109f0573d6000803e3d6000fd5b5050505060008054906101000a900473ffffffffffffffffffffffffffffffffffffffff1673ffffffffffffffffffffffffffffffffffffffff1663156e29f6336003846040518463ffffffff1660e01b8152600401610a52939291906114e8565b600060405180830381600087803b158015610a6c57600080fd5b505af1158015610a80573d6000803e3d6000fd5b505050508060033373ffffffffffffffffffffffffffffffffffffffff167fd1b3b9e90cb0395fdbeab9eb199c836fe1e8c56dfe0beda0ad9964cced8fb87860405160405180910390a450565b600281565b600181565b8060008054906101000a900473ffffffffffffffffffffffffffffffffffffffff1673ffffffffffffffffffffffffffffffffffffffff1662fdd58e3360016040518363ffffffff1660e01b8152600401610b33929190611328565b602060405180830381865afa158015610b50573d6000803e3d6000fd5b505050506040513d601f19601f82011682018060405250810190610b749190611366565b1015610bb5576040517f08c379a0000000000000000000000000000000000000000000000000000000008152600401610bac9061145c565b60405180910390fd5b8060008054906101000a900473ffffffffffffffffffffffffffffffffffffffff1673ffffffffffffffffffffffffffffffffffffffff1662fdd58e3360026040518363ffffffff1660e01b8152600401610c11929190611328565b602060405180830381865afa158015610c2e573d6000803e3d6000fd5b505050506040513d601f19601f82011682018060405250810190610c529190611366565b1015610c93576040517f08c379a0000000000000000000000000000000000000000000000000000000008152600401610c8a906114c8565b60405180910390fd5b60008054906101000a900473ffffffffffffffffffffffffffffffffffffffff1673ffffffffffffffffffffffffffffffffffffffff1663f5298aca336001846040518463ffffffff1660e01b8152600401610cf1939291906114e8565b600060405180830381600087803b158015610d0b57600080fd5b505af1158015610d1f573d6000803e3d6000fd5b5050505060008054906101000a900473ffffffffffffffffffffffffffffffffffffffff1673ffffffffffffffffffffffffffffffffffffffff1663f5298aca336002846040518463ffffffff1660e01b8152600401610d81939291906114e8565b600060405180830381600087803b158015610d9b57600080fd5b505af1158015610daf573d6000803e3d6000fd5b5050505060008054906101000a900473ffffffffffffffffffffffffffffffffffffffff1673ffffffffffffffffffffffffffffffffffffffff1663156e29f6336004846040518463ffffffff1660e01b8152600401610e11939291906114e8565b600060405180830381600087803b158015610e2b57600080fd5b505af1158015610e3f573d6000803e3d6000fd5b505050508060043373ffffffffffffffffffffffffffffffffffffffff167fd1b3b9e90cb0395fdbeab9eb199c836fe1e8c56dfe0beda0ad9964cced8fb87860405160405180910390a450565b600481565b8060008054906101000a900473ffffffffffffffffffffffffffffffffffffffff1673ffffffffffffffffffffffffffffffffffffffff1662fdd58e3360006040518363ffffffff1660e01b8152600401610eed929190611328565b602060405180830381865afa158015610f0a573d6000803e3d6000fd5b505050506040513d601f19601f82011682018060405250810190610f2e9190611366565b1015610f6f576040517f08c379a0000000000000000000000000000000000000000000000000000000008152600401610f66906113f0565b60405180910390fd5b8060008054906101000a900473ffffffffffffffffffffffffffffffffffffffff1673ffffffffffffffffffffffffffffffffffffffff1662fdd58e3360026040518363ffffffff1660e01b8152600401610fcb929190611328565b602060405180830381865afa158015610fe8573d6000803e3d6000fd5b505050506040513d601f19601f8201168201806040525081019061100c9190611366565b101561104d576040517f08c379a0000000000000000000000000000000000000000000000000000000008152600401611044906114c8565b60405180910390fd5b60008054906101000a900473ffffffffffffffffffffffffffffffffffffffff1673ffffffffffffffffffffffffffffffffffffffff1663f5298aca336000846040518463ffffffff1660e01b81526004016110ab939291906114e8565b600060405180830381600087803b1580156110c557600080fd5b505af11580156110d9573d6000803e3d6000fd5b5050505060008054906101000a900473ffffffffffffffffffffffffffffffffffffffff1673ffffffffffffffffffffffffffffffffffffffff1663f5298aca336002846040518463ffffffff1660e01b815260040161113b939291906114e8565b600060405180830381600087803b15801561115557600080fd5b505af1158015611169573d6000803e3d6000fd5b5050505060008054906101000a900473ffffffffffffffffffffffffffffffffffffffff1673ffffffffffffffffffffffffffffffffffffffff1663156e29f6336005846040518463ffffffff1660e01b81526004016111cb939291906114e8565b600060405180830381600087803b1580156111e557600080fd5b505af11580156111f9573d6000803e3d6000fd5b505050508060053373ffffffffffffffffffffffffffffffffffffffff167fd1b3b9e90cb0395fdbeab9eb199c836fe1e8c56dfe0beda0ad9964cced8fb87860405160405180910390a450565b600681565b600081565b600581565b600080fd5b6000819050919050565b61126d8161125a565b811461127857600080fd5b50565b60008135905061128a81611264565b92915050565b6000602082840312156112a6576112a5611255565b5b60006112b48482850161127b565b91505092915050565b6112c68161125a565b82525050565b60006020820190506112e160008301846112bd565b92915050565b600073ffffffffffffffffffffffffffffffffffffffff82169050919050565b6000611312826112e7565b9050919050565b61132281611307565b82525050565b600060408201905061133d6000830185611319565b61134a60208301846112bd565b9392505050565b60008151905061136081611264565b92915050565b60006020828403121561137c5761137b611255565b5b600061138a84828501611351565b91505092915050565b600082825260208201905092915050565b7f436972636c6573466f7267655f5f496e73756666696369656e74546f6b656e30600082015250565b60006113da602083611393565b91506113e5826113a4565b602082019050919050565b60006020820190508181036000830152611409816113cd565b9050919050565b7f436972636c6573466f7267655f5f496e73756666696369656e74546f6b656e31600082015250565b6000611446602083611393565b915061145182611410565b602082019050919050565b6000602082019050818103600083015261147581611439565b9050919050565b7f436972636c6573466f7267655f5f496e73756666696369656e74546f6b656e32600082015250565b60006114b2602083611393565b91506114bd8261147c565b602082019050919050565b600060208201905081810360008301526114e1816114a5565b9050919050565b60006060820190506114fd6000830186611319565b61150a60208301856112bd565b61151760408301846112bd565b94935050505056fea264697066735822122013bbd901f4a1c5c388998d913ef70b6c1e2d1c8bf09cf55be802cb5cff08903164736f6c63430008140033",
  "linkReferences": {},
  "deployedLinkReferences": {}
}