{
  "_format": "hh-sol-artifact-1",
  "contractName": "CirclesForge",
  "sourceName": "contracts/CirlcesForge.sol",
  "abi": [
    {
      "inputs": [
        {
          "internalType": "address",
          "name": "_erc1155Address",
          "type": "address"
        }
      ],
      "stateMutability": "nonpayable",
      "type": "constructor"
    },
    {
      "inputs": [],
      "name": "CirclesForge__InsufficientToken0",
      "type": "error"
    },
    {
      "inputs": [],
      "name": "CirclesForge__InsufficientToken1",
      "type": "error"
    },
    {
      "inputs": [],
      "name": "CirclesForge__InsufficientToken2",
      "type": "error"
    },
    {
      "inputs": [],
      "name": "CirclesForge__InvalidTokenId",
      "type": "error"
    },
    {
      "anonymous": false,
      "inputs": [
        {
          "indexed": true,
          "internalType": "address",
          "name": "user",
          "type": "address"
        },
        {
          "indexed": true,
          "internalType": "uint256",
          "name": "tokenId",
          "type": "uint256"
        },
        {
          "indexed": true,
          "internalType": "uint256",
          "name": "amount",
          "type": "uint256"
        }
      ],
      "name": "TokenForged",
      "type": "event"
    },
    {
      "inputs": [],
      "name": "TOKEN_ID_0",
      "outputs": [
        {
          "internalType": "uint256",
          "name": "",
          "type": "uint256"
        }
      ],
      "stateMutability": "view",
      "type": "function"
    },
    {
      "inputs": [],
      "name": "TOKEN_ID_1",
      "outputs": [
        {
          "internalType": "uint256",
          "name": "",
          "type": "uint256"
        }
      ],
      "stateMutability": "view",
      "type": "function"
    },
    {
      "inputs": [],
      "name": "TOKEN_ID_2",
      "outputs": [
        {
          "internalType": "uint256",
          "name": "",
          "type": "uint256"
        }
      ],
      "stateMutability": "view",
      "type": "function"
    },
    {
      "inputs": [],
      "name": "TOKEN_ID_3",
      "outputs": [
        {
          "internalType": "uint256",
          "name": "",
          "type": "uint256"
        }
      ],
      "stateMutability": "view",
      "type": "function"
    },
    {
      "inputs": [],
      "name": "TOKEN_ID_4",
      "outputs": [
        {
          "internalType": "uint256",
          "name": "",
          "type": "uint256"
        }
      ],
      "stateMutability": "view",
      "type": "function"
    },
    {
      "inputs": [],
      "name": "TOKEN_ID_5",
      "outputs": [
        {
          "internalType": "uint256",
          "name": "",
          "type": "uint256"
        }
      ],
      "stateMutability": "view",
      "type": "function"
    },
    {
      "inputs": [],
      "name": "TOKEN_ID_6",
      "outputs": [
        {
          "internalType": "uint256",
          "name": "",
          "type": "uint256"
        }
      ],
      "stateMutability": "view",
      "type": "function"
    },
    {
      "inputs": [
        {
          "internalType": "uint256",
          "name": "_amount",
          "type": "uint256"
        }
      ],
      "name": "forgeToken3",
      "outputs": [],
      "stateMutability": "nonpayable",
      "type": "function"
    },
    {
      "inputs": [
        {
          "internalType": "uint256",
          "name": "_amount",
          "type": "uint256"
        }
      ],
      "name": "forgeToken4",
      "outputs": [],
      "stateMutability": "nonpayable",
      "type": "function"
    },
    {
      "inputs": [
        {
          "internalType": "uint256",
          "name": "_amount",
          "type": "uint256"
        }
      ],
      "name": "forgeToken5",
      "outputs": [],
      "stateMutability": "nonpayable",
      "type": "function"
    },
    {
      "inputs": [
        {
          "internalType": "uint256",
          "name": "_amount",
          "type": "uint256"
        }
      ],
      "name": "forgeToken6",
      "outputs": [],
      "stateMutability": "nonpayable",
      "type": "function"
    },
    {
      "inputs": [
        {
          "internalType": "uint256",
          "name": "_tokenId",
          "type": "uint256"
        },
        {
          "internalType": "uint256",
          "name": "_amount",
          "type": "uint256"
        }
      ],
      "name": "mintTokensForContract",
      "outputs": [],
      "stateMutability": "nonpayable",
      "type": "function"
    },
    {
      "inputs": [
        {
          "internalType": "address",
          "name": "",
          "type": "address"
        },
        {
          "internalType": "address",
          "name": "",
          "type": "address"
        },
        {
          "internalType": "uint256[]",
          "name": "",
          "type": "uint256[]"
        },
        {
          "internalType": "uint256[]",
          "name": "",
          "type": "uint256[]"
        },
        {
          "internalType": "bytes",
          "name": "",
          "type": "bytes"
        }
      ],
      "name": "onERC1155BatchReceived",
      "outputs": [
        {
          "internalType": "bytes4",
          "name": "",
          "type": "bytes4"
        }
      ],
      "stateMutability": "pure",
      "type": "function"
    },
    {
      "inputs": [
        {
          "internalType": "address",
          "name": "",
          "type": "address"
        },
        {
          "internalType": "address",
          "name": "",
          "type": "address"
        },
        {
          "internalType": "uint256",
          "name": "",
          "type": "uint256"
        },
        {
          "internalType": "uint256",
          "name": "",
          "type": "uint256"
        },
        {
          "internalType": "bytes",
          "name": "",
          "type": "bytes"
        }
      ],
      "name": "onERC1155Received",
      "outputs": [
        {
          "internalType": "bytes4",
          "name": "",
          "type": "bytes4"
        }
      ],
      "stateMutability": "pure",
      "type": "function"
    },
    {
      "inputs": [
        {
          "internalType": "bytes4",
          "name": "interfaceId",
          "type": "bytes4"
        }
      ],
      "name": "supportsInterface",
      "outputs": [
        {
          "internalType": "bool",
          "name": "",
          "type": "bool"
        }
      ],
      "stateMutability": "pure",
      "type": "function"
    }
  ],
  "bytecode": "0x60806040523480156200001157600080fd5b50604051620018a2380380620018a2833981810160405281019062000037919062000095565b806000806101000a81548173ffffffffffffffffffffffffffffffffffffffff021916908373ffffffffffffffffffffffffffffffffffffffff160217905550506200011a565b6000815190506200008f8162000100565b92915050565b600060208284031215620000ae57620000ad620000fb565b5b6000620000be848285016200007e565b91505092915050565b6000620000d482620000db565b9050919050565b600073ffffffffffffffffffffffffffffffffffffffff82169050919050565b600080fd5b6200010b81620000c7565b81146200011757600080fd5b50565b611778806200012a6000396000f3fe608060405234801561001057600080fd5b50600436106100f55760003560e01c8063732dcfa811610097578063bc197c8111610066578063bc197c811461024c578063c1b0adc91461027c578063d752f3381461029a578063f23a6e61146102b8576100f5565b8063732dcfa8146101d8578063786b3001146101f6578063a454d11214610212578063b605cd301461022e576100f5565b806351667dd1116100d357806351667dd11461016457806367dde6d5146101805780636ad9e4b51461019e57806372607447146101bc576100f5565b806301ffc9a7146100fa57806307843ca11461012a5780630f73bcce14610146575b600080fd5b610114600480360381019061010f919061148d565b6102e8565b604051610121919061159a565b60405180910390f35b610144600480360381019061013f91906114ba565b610352565b005b61014e61077b565b60405161015b91906115d0565b60405180910390f35b61017e600480360381019061017991906114ba565b610780565b005b610188610a8e565b60405161019591906115d0565b60405180910390f35b6101a6610a93565b6040516101b391906115d0565b60405180910390f35b6101d660048036038101906101d191906114ba565b610a98565b005b6101e0610da7565b6040516101ed91906115d0565b60405180910390f35b610210600480360381019061020b91906114ba565b610dac565b005b61022c600480360381019061022791906114e7565b6110ba565b005b6102366111ef565b60405161024391906115d0565b60405180910390f35b61026660048036038101906102619190611317565b6111f4565b60405161027391906115b5565b60405180910390f35b61028461120c565b60405161029191906115d0565b60405180910390f35b6102a2611211565b6040516102af91906115d0565b60405180910390f35b6102d260048036038101906102cd91906113f3565b611216565b6040516102df91906115b5565b60405180910390f35b60007f4e2312e0000000000000000000000000000000000000000000000000000000007bffffffffffffffffffffffffffffffffffffffffffffffffffffffff1916827bffffffffffffffffffffffffffffffffffffffffffffffffffffffff1916149050919050565b80600160003073ffffffffffffffffffffffffffffffffffffffff1673ffffffffffffffffffffffffffffffffffffffff16815260200190815260200160002060008081526020019081526020016000205410156103dc576040517f4f9a441e00000000000000000000000000000000000000000000000000000000815260040160405180910390fd5b80600160003073ffffffffffffffffffffffffffffffffffffffff1673ffffffffffffffffffffffffffffffffffffffff168152602001908152602001600020600060018152602001908152602001600020541015610467576040517f208fbe3f00000000000000000000000000000000000000000000000000000000815260040160405180910390fd5b80600160003073ffffffffffffffffffffffffffffffffffffffff1673ffffffffffffffffffffffffffffffffffffffff1681526020019081526020016000206000600281526020019081526020016000205410156104f2576040517fd0ea747100000000000000000000000000000000000000000000000000000000815260040160405180910390fd5b60008054906101000a900473ffffffffffffffffffffffffffffffffffffffff1673ffffffffffffffffffffffffffffffffffffffff1663f5298aca306000846040518463ffffffff1660e01b815260040161055093929190611563565b600060405180830381600087803b15801561056a57600080fd5b505af115801561057e573d6000803e3d6000fd5b5050505060008054906101000a900473ffffffffffffffffffffffffffffffffffffffff1673ffffffffffffffffffffffffffffffffffffffff1663f5298aca306001846040518463ffffffff1660e01b81526004016105e093929190611563565b600060405180830381600087803b1580156105fa57600080fd5b505af115801561060e573d6000803e3d6000fd5b5050505060008054906101000a900473ffffffffffffffffffffffffffffffffffffffff1673ffffffffffffffffffffffffffffffffffffffff1663f5298aca306002846040518463ffffffff1660e01b815260040161067093929190611563565b600060405180830381600087803b15801561068a57600080fd5b505af115801561069e573d6000803e3d6000fd5b5050505060008054906101000a900473ffffffffffffffffffffffffffffffffffffffff1673ffffffffffffffffffffffffffffffffffffffff1663156e29f6336006846040518463ffffffff1660e01b815260040161070093929190611563565b600060405180830381600087803b15801561071a57600080fd5b505af115801561072e573d6000803e3d6000fd5b505050508060063373ffffffffffffffffffffffffffffffffffffffff167fd1b3b9e90cb0395fdbeab9eb199c836fe1e8c56dfe0beda0ad9964cced8fb87860405160405180910390a450565b600381565b60018060003073ffffffffffffffffffffffffffffffffffffffff1673ffffffffffffffffffffffffffffffffffffffff168152602001908152602001600020600080815260200190815260200160002054101561080a576040517f4f9a441e00000000000000000000000000000000000000000000000000000000815260040160405180910390fd5b60018060003073ffffffffffffffffffffffffffffffffffffffff1673ffffffffffffffffffffffffffffffffffffffff168152602001908152602001600020600060018152602001908152602001600020541015610895576040517f208fbe3f00000000000000000000000000000000000000000000000000000000815260040160405180910390fd5b60008054906101000a900473ffffffffffffffffffffffffffffffffffffffff1673ffffffffffffffffffffffffffffffffffffffff1663f5298aca306000846040518463ffffffff1660e01b81526004016108f393929190611563565b600060405180830381600087803b15801561090d57600080fd5b505af1158015610921573d6000803e3d6000fd5b5050505060008054906101000a900473ffffffffffffffffffffffffffffffffffffffff1673ffffffffffffffffffffffffffffffffffffffff1663f5298aca306001846040518463ffffffff1660e01b815260040161098393929190611563565b600060405180830381600087803b15801561099d57600080fd5b505af11580156109b1573d6000803e3d6000fd5b5050505060008054906101000a900473ffffffffffffffffffffffffffffffffffffffff1673ffffffffffffffffffffffffffffffffffffffff1663156e29f6336003846040518463ffffffff1660e01b8152600401610a1393929190611563565b600060405180830381600087803b158015610a2d57600080fd5b505af1158015610a41573d6000803e3d6000fd5b505050508060033373ffffffffffffffffffffffffffffffffffffffff167fd1b3b9e90cb0395fdbeab9eb199c836fe1e8c56dfe0beda0ad9964cced8fb87860405160405180910390a450565b600281565b600181565b80600160003073ffffffffffffffffffffffffffffffffffffffff1673ffffffffffffffffffffffffffffffffffffffff168152602001908152602001600020600060018152602001908152602001600020541015610b23576040517f208fbe3f00000000000000000000000000000000000000000000000000000000815260040160405180910390fd5b80600160003073ffffffffffffffffffffffffffffffffffffffff1673ffffffffffffffffffffffffffffffffffffffff168152602001908152602001600020600060028152602001908152602001600020541015610bae576040517fd0ea747100000000000000000000000000000000000000000000000000000000815260040160405180910390fd5b60008054906101000a900473ffffffffffffffffffffffffffffffffffffffff1673ffffffffffffffffffffffffffffffffffffffff1663f5298aca306001846040518463ffffffff1660e01b8152600401610c0c93929190611563565b600060405180830381600087803b158015610c2657600080fd5b505af1158015610c3a573d6000803e3d6000fd5b5050505060008054906101000a900473ffffffffffffffffffffffffffffffffffffffff1673ffffffffffffffffffffffffffffffffffffffff1663f5298aca306002846040518463ffffffff1660e01b8152600401610c9c93929190611563565b600060405180830381600087803b158015610cb657600080fd5b505af1158015610cca573d6000803e3d6000fd5b5050505060008054906101000a900473ffffffffffffffffffffffffffffffffffffffff1673ffffffffffffffffffffffffffffffffffffffff1663156e29f6336004846040518463ffffffff1660e01b8152600401610d2c93929190611563565b600060405180830381600087803b158015610d4657600080fd5b505af1158015610d5a573d6000803e3d6000fd5b505050508060043373ffffffffffffffffffffffffffffffffffffffff167fd1b3b9e90cb0395fdbeab9eb199c836fe1e8c56dfe0beda0ad9964cced8fb87860405160405180910390a450565b600481565b80600160003073ffffffffffffffffffffffffffffffffffffffff1673ffffffffffffffffffffffffffffffffffffffff1681526020019081526020016000206000808152602001908152602001600020541015610e36576040517f4f9a441e00000000000000000000000000000000000000000000000000000000815260040160405180910390fd5b80600160003073ffffffffffffffffffffffffffffffffffffffff1673ffffffffffffffffffffffffffffffffffffffff168152602001908152602001600020600060028152602001908152602001600020541015610ec1576040517fd0ea747100000000000000000000000000000000000000000000000000000000815260040160405180910390fd5b60008054906101000a900473ffffffffffffffffffffffffffffffffffffffff1673ffffffffffffffffffffffffffffffffffffffff1663f5298aca306000846040518463ffffffff1660e01b8152600401610f1f93929190611563565b600060405180830381600087803b158015610f3957600080fd5b505af1158015610f4d573d6000803e3d6000fd5b5050505060008054906101000a900473ffffffffffffffffffffffffffffffffffffffff1673ffffffffffffffffffffffffffffffffffffffff1663f5298aca306002846040518463ffffffff1660e01b8152600401610faf93929190611563565b600060405180830381600087803b158015610fc957600080fd5b505af1158015610fdd573d6000803e3d6000fd5b5050505060008054906101000a900473ffffffffffffffffffffffffffffffffffffffff1673ffffffffffffffffffffffffffffffffffffffff1663156e29f6336005846040518463ffffffff1660e01b815260040161103f93929190611563565b600060405180830381600087803b15801561105957600080fd5b505af115801561106d573d6000803e3d6000fd5b505050508060053373ffffffffffffffffffffffffffffffffffffffff167fd1b3b9e90cb0395fdbeab9eb199c836fe1e8c56dfe0beda0ad9964cced8fb87860405160405180910390a450565b60028211156110f5576040517f9b106d4700000000000000000000000000000000000000000000000000000000815260040160405180910390fd5b60008054906101000a900473ffffffffffffffffffffffffffffffffffffffff1673ffffffffffffffffffffffffffffffffffffffff1663156e29f63084846040518463ffffffff1660e01b815260040161115293929190611563565b600060405180830381600087803b15801561116c57600080fd5b505af1158015611180573d6000803e3d6000fd5b5050505080600160003073ffffffffffffffffffffffffffffffffffffffff1673ffffffffffffffffffffffffffffffffffffffff168152602001908152602001600020600084815260200190815260200160002060008282546111e491906115eb565b925050819055505050565b600681565b600063bc197c8160e01b905098975050505050505050565b600081565b600581565b600063f23a6e6160e01b90509695505050505050565b60008135905061123b816116fd565b92915050565b60008083601f840112611257576112566116e9565b5b8235905067ffffffffffffffff811115611274576112736116e4565b5b6020830191508360208202830111156112905761128f6116ee565b5b9250929050565b6000813590506112a681611714565b92915050565b60008083601f8401126112c2576112c16116e9565b5b8235905067ffffffffffffffff8111156112df576112de6116e4565b5b6020830191508360018202830111156112fb576112fa6116ee565b5b9250929050565b6000813590506113118161172b565b92915050565b60008060008060008060008060a0898b031215611337576113366116f8565b5b60006113458b828c0161122c565b98505060206113568b828c0161122c565b975050604089013567ffffffffffffffff811115611377576113766116f3565b5b6113838b828c01611241565b9650965050606089013567ffffffffffffffff8111156113a6576113a56116f3565b5b6113b28b828c01611241565b9450945050608089013567ffffffffffffffff8111156113d5576113d46116f3565b5b6113e18b828c016112ac565b92509250509295985092959890939650565b60008060008060008060a087890312156114105761140f6116f8565b5b600061141e89828a0161122c565b965050602061142f89828a0161122c565b955050604061144089828a01611302565b945050606061145189828a01611302565b935050608087013567ffffffffffffffff811115611472576114716116f3565b5b61147e89828a016112ac565b92509250509295509295509295565b6000602082840312156114a3576114a26116f8565b5b60006114b184828501611297565b91505092915050565b6000602082840312156114d0576114cf6116f8565b5b60006114de84828501611302565b91505092915050565b600080604083850312156114fe576114fd6116f8565b5b600061150c85828601611302565b925050602061151d85828601611302565b9150509250929050565b61153081611641565b82525050565b61153f81611653565b82525050565b61154e8161165f565b82525050565b61155d816116ab565b82525050565b60006060820190506115786000830186611527565b6115856020830185611554565b6115926040830184611554565b949350505050565b60006020820190506115af6000830184611536565b92915050565b60006020820190506115ca6000830184611545565b92915050565b60006020820190506115e56000830184611554565b92915050565b60006115f6826116ab565b9150611601836116ab565b9250827fffffffffffffffffffffffffffffffffffffffffffffffffffffffffffffffff03821115611636576116356116b5565b5b828201905092915050565b600061164c8261168b565b9050919050565b60008115159050919050565b60007fffffffff0000000000000000000000000000000000000000000000000000000082169050919050565b600073ffffffffffffffffffffffffffffffffffffffff82169050919050565b6000819050919050565b7f4e487b7100000000000000000000000000000000000000000000000000000000600052601160045260246000fd5b600080fd5b600080fd5b600080fd5b600080fd5b600080fd5b61170681611641565b811461171157600080fd5b50565b61171d8161165f565b811461172857600080fd5b50565b611734816116ab565b811461173f57600080fd5b5056fea26469706673582212201bcadefa798639607e52193c4ddc3e4452eee7e22d01356aa9c119335fd748c864736f6c63430008070033",
  "linkReferences": {},
  "deployedLinkReferences": {}
}