{
  "_format": "hh-sol-artifact-1",
  "contractName": "CirclesERC1155",
  "sourceName": "contracts/CirclesERC1155.sol",
  "abi": [
    {
      "inputs": [],
      "stateMutability": "nonpayable",
      "type": "constructor"
    },
    {
      "inputs": [],
      "name": "CirclesERC1155__CooldownNotElapsed",
      "type": "error"
    },
    {
      "inputs": [],
      "name": "CirclesERC1155__InvalidTokenForBurn",
      "type": "error"
    },
    {
      "inputs": [],
      "name": "CirclesERC1155__InvalidTokenForTrade",
      "type": "error"
    },
    {
      "inputs": [],
      "name": "CirclesERC1155__NotAMinter",
      "type": "error"
    },
    {
      "inputs": [],
      "name": "CirclesERC1155__NotTokenOwnerOrForgeContract",
      "type": "error"
    },
    {
      "anonymous": false,
      "inputs": [
        {
          "indexed": true,
          "internalType": "address",
          "name": "account",
          "type": "address"
        },
        {
          "indexed": true,
          "internalType": "address",
          "name": "operator",
          "type": "address"
        },
        {
          "indexed": false,
          "internalType": "bool",
          "name": "approved",
          "type": "bool"
        }
      ],
      "name": "ApprovalForAll",
      "type": "event"
    },
    {
      "anonymous": false,
      "inputs": [
        {
          "indexed": true,
          "internalType": "address",
          "name": "user",
          "type": "address"
        },
        {
          "indexed": true,
          "internalType": "uint256",
          "name": "tokenId",
          "type": "uint256"
        },
        {
          "indexed": false,
          "internalType": "uint256",
          "name": "amount",
          "type": "uint256"
        }
      ],
      "name": "Burned",
      "type": "event"
    },
    {
      "anonymous": false,
      "inputs": [
        {
          "indexed": true,
          "internalType": "address",
          "name": "user",
          "type": "address"
        },
        {
          "indexed": true,
          "internalType": "uint256",
          "name": "tokenId",
          "type": "uint256"
        },
        {
          "indexed": false,
          "internalType": "uint256",
          "name": "amount",
          "type": "uint256"
        }
      ],
      "name": "Minted",
      "type": "event"
    },
    {
      "anonymous": false,
      "inputs": [
        {
          "indexed": true,
          "internalType": "bytes32",
          "name": "role",
          "type": "bytes32"
        },
        {
          "indexed": true,
          "internalType": "bytes32",
          "name": "previousAdminRole",
          "type": "bytes32"
        },
        {
          "indexed": true,
          "internalType": "bytes32",
          "name": "newAdminRole",
          "type": "bytes32"
        }
      ],
      "name": "RoleAdminChanged",
      "type": "event"
    },
    {
      "anonymous": false,
      "inputs": [
        {
          "indexed": true,
          "internalType": "bytes32",
          "name": "role",
          "type": "bytes32"
        },
        {
          "indexed": true,
          "internalType": "address",
          "name": "account",
          "type": "address"
        },
        {
          "indexed": true,
          "internalType": "address",
          "name": "sender",
          "type": "address"
        }
      ],
      "name": "RoleGranted",
      "type": "event"
    },
    {
      "anonymous": false,
      "inputs": [
        {
          "indexed": true,
          "internalType": "bytes32",
          "name": "role",
          "type": "bytes32"
        },
        {
          "indexed": true,
          "internalType": "address",
          "name": "account",
          "type": "address"
        },
        {
          "indexed": true,
          "internalType": "address",
          "name": "sender",
          "type": "address"
        }
      ],
      "name": "RoleRevoked",
      "type": "event"
    },
    {
      "anonymous": false,
      "inputs": [
        {
          "indexed": true,
          "internalType": "address",
          "name": "user",
          "type": "address"
        },
        {
          "indexed": true,
          "internalType": "uint256",
          "name": "tokenIdSold",
          "type": "uint256"
        },
        {
          "indexed": true,
          "internalType": "uint256",
          "name": "tokenIdBought",
          "type": "uint256"
        },
        {
          "indexed": false,
          "internalType": "uint256",
          "name": "amount",
          "type": "uint256"
        }
      ],
      "name": "Traded",
      "type": "event"
    },
    {
      "anonymous": false,
      "inputs": [
        {
          "indexed": true,
          "internalType": "address",
          "name": "operator",
          "type": "address"
        },
        {
          "indexed": true,
          "internalType": "address",
          "name": "from",
          "type": "address"
        },
        {
          "indexed": true,
          "internalType": "address",
          "name": "to",
          "type": "address"
        },
        {
          "indexed": false,
          "internalType": "uint256[]",
          "name": "ids",
          "type": "uint256[]"
        },
        {
          "indexed": false,
          "internalType": "uint256[]",
          "name": "values",
          "type": "uint256[]"
        }
      ],
      "name": "TransferBatch",
      "type": "event"
    },
    {
      "anonymous": false,
      "inputs": [
        {
          "indexed": true,
          "internalType": "address",
          "name": "operator",
          "type": "address"
        },
        {
          "indexed": true,
          "internalType": "address",
          "name": "from",
          "type": "address"
        },
        {
          "indexed": true,
          "internalType": "address",
          "name": "to",
          "type": "address"
        },
        {
          "indexed": false,
          "internalType": "uint256",
          "name": "id",
          "type": "uint256"
        },
        {
          "indexed": false,
          "internalType": "uint256",
          "name": "value",
          "type": "uint256"
        }
      ],
      "name": "TransferSingle",
      "type": "event"
    },
    {
      "anonymous": false,
      "inputs": [
        {
          "indexed": false,
          "internalType": "string",
          "name": "value",
          "type": "string"
        },
        {
          "indexed": true,
          "internalType": "uint256",
          "name": "id",
          "type": "uint256"
        }
      ],
      "name": "URI",
      "type": "event"
    },
    {
      "inputs": [],
      "name": "COOLDOWN_TIME",
      "outputs": [
        {
          "internalType": "uint256",
          "name": "",
          "type": "uint256"
        }
      ],
      "stateMutability": "view",
      "type": "function"
    },
    {
      "inputs": [],
      "name": "DEFAULT_ADMIN_ROLE",
      "outputs": [
        {
          "internalType": "bytes32",
          "name": "",
          "type": "bytes32"
        }
      ],
      "stateMutability": "view",
      "type": "function"
    },
    {
      "inputs": [],
      "name": "MINTER_ROLE",
      "outputs": [
        {
          "internalType": "bytes32",
          "name": "",
          "type": "bytes32"
        }
      ],
      "stateMutability": "view",
      "type": "function"
    },
    {
      "inputs": [],
      "name": "TOKEN_ID_0",
      "outputs": [
        {
          "internalType": "uint256",
          "name": "",
          "type": "uint256"
        }
      ],
      "stateMutability": "view",
      "type": "function"
    },
    {
      "inputs": [],
      "name": "TOKEN_ID_1",
      "outputs": [
        {
          "internalType": "uint256",
          "name": "",
          "type": "uint256"
        }
      ],
      "stateMutability": "view",
      "type": "function"
    },
    {
      "inputs": [],
      "name": "TOKEN_ID_2",
      "outputs": [
        {
          "internalType": "uint256",
          "name": "",
          "type": "uint256"
        }
      ],
      "stateMutability": "view",
      "type": "function"
    },
    {
      "inputs": [
        {
          "internalType": "address",
          "name": "account",
          "type": "address"
        },
        {
          "internalType": "uint256",
          "name": "id",
          "type": "uint256"
        }
      ],
      "name": "balanceOf",
      "outputs": [
        {
          "internalType": "uint256",
          "name": "",
          "type": "uint256"
        }
      ],
      "stateMutability": "view",
      "type": "function"
    },
    {
      "inputs": [
        {
          "internalType": "address[]",
          "name": "accounts",
          "type": "address[]"
        },
        {
          "internalType": "uint256[]",
          "name": "ids",
          "type": "uint256[]"
        }
      ],
      "name": "balanceOfBatch",
      "outputs": [
        {
          "internalType": "uint256[]",
          "name": "",
          "type": "uint256[]"
        }
      ],
      "stateMutability": "view",
      "type": "function"
    },
    {
      "inputs": [
        {
          "internalType": "address",
          "name": "account",
          "type": "address"
        },
        {
          "internalType": "uint256",
          "name": "tokenId",
          "type": "uint256"
        },
        {
          "internalType": "uint256",
          "name": "amount",
          "type": "uint256"
        }
      ],
      "name": "burn",
      "outputs": [],
      "stateMutability": "nonpayable",
      "type": "function"
    },
    {
      "inputs": [
        {
          "internalType": "address",
          "name": "user",
          "type": "address"
        },
        {
          "internalType": "uint256",
          "name": "tokenId",
          "type": "uint256"
        }
      ],
      "name": "getLastMintTimestamp",
      "outputs": [
        {
          "internalType": "uint256",
          "name": "",
          "type": "uint256"
        }
      ],
      "stateMutability": "view",
      "type": "function"
    },
    {
      "inputs": [
        {
          "internalType": "bytes32",
          "name": "role",
          "type": "bytes32"
        }
      ],
      "name": "getRoleAdmin",
      "outputs": [
        {
          "internalType": "bytes32",
          "name": "",
          "type": "bytes32"
        }
      ],
      "stateMutability": "view",
      "type": "function"
    },
    {
      "inputs": [
        {
          "internalType": "bytes32",
          "name": "role",
          "type": "bytes32"
        },
        {
          "internalType": "address",
          "name": "account",
          "type": "address"
        }
      ],
      "name": "grantRole",
      "outputs": [],
      "stateMutability": "nonpayable",
      "type": "function"
    },
    {
      "inputs": [
        {
          "internalType": "bytes32",
          "name": "role",
          "type": "bytes32"
        },
        {
          "internalType": "address",
          "name": "account",
          "type": "address"
        }
      ],
      "name": "hasRole",
      "outputs": [
        {
          "internalType": "bool",
          "name": "",
          "type": "bool"
        }
      ],
      "stateMutability": "view",
      "type": "function"
    },
    {
      "inputs": [
        {
          "internalType": "address",
          "name": "account",
          "type": "address"
        },
        {
          "internalType": "address",
          "name": "operator",
          "type": "address"
        }
      ],
      "name": "isApprovedForAll",
      "outputs": [
        {
          "internalType": "bool",
          "name": "",
          "type": "bool"
        }
      ],
      "stateMutability": "view",
      "type": "function"
    },
    {
      "inputs": [
        {
          "internalType": "address",
          "name": "recipient",
          "type": "address"
        },
        {
          "internalType": "uint256",
          "name": "tokenId",
          "type": "uint256"
        },
        {
          "internalType": "uint256",
          "name": "amount",
          "type": "uint256"
        }
      ],
      "name": "mint",
      "outputs": [],
      "stateMutability": "nonpayable",
      "type": "function"
    },
    {
      "inputs": [
        {
          "internalType": "bytes32",
          "name": "role",
          "type": "bytes32"
        },
        {
          "internalType": "address",
          "name": "account",
          "type": "address"
        }
      ],
      "name": "renounceRole",
      "outputs": [],
      "stateMutability": "nonpayable",
      "type": "function"
    },
    {
      "inputs": [
        {
          "internalType": "bytes32",
          "name": "role",
          "type": "bytes32"
        },
        {
          "internalType": "address",
          "name": "account",
          "type": "address"
        }
      ],
      "name": "revokeRole",
      "outputs": [],
      "stateMutability": "nonpayable",
      "type": "function"
    },
    {
      "inputs": [
        {
          "internalType": "address",
          "name": "from",
          "type": "address"
        },
        {
          "internalType": "address",
          "name": "to",
          "type": "address"
        },
        {
          "internalType": "uint256[]",
          "name": "ids",
          "type": "uint256[]"
        },
        {
          "internalType": "uint256[]",
          "name": "amounts",
          "type": "uint256[]"
        },
        {
          "internalType": "bytes",
          "name": "data",
          "type": "bytes"
        }
      ],
      "name": "safeBatchTransferFrom",
      "outputs": [],
      "stateMutability": "nonpayable",
      "type": "function"
    },
    {
      "inputs": [
        {
          "internalType": "address",
          "name": "from",
          "type": "address"
        },
        {
          "internalType": "address",
          "name": "to",
          "type": "address"
        },
        {
          "internalType": "uint256",
          "name": "id",
          "type": "uint256"
        },
        {
          "internalType": "uint256",
          "name": "amount",
          "type": "uint256"
        },
        {
          "internalType": "bytes",
          "name": "data",
          "type": "bytes"
        }
      ],
      "name": "safeTransferFrom",
      "outputs": [],
      "stateMutability": "nonpayable",
      "type": "function"
    },
    {
      "inputs": [
        {
          "internalType": "address",
          "name": "operator",
          "type": "address"
        },
        {
          "internalType": "bool",
          "name": "approved",
          "type": "bool"
        }
      ],
      "name": "setApprovalForAll",
      "outputs": [],
      "stateMutability": "nonpayable",
      "type": "function"
    },
    {
      "inputs": [
        {
          "internalType": "address",
          "name": "_forgingContract",
          "type": "address"
        }
      ],
      "name": "setForgingContract",
      "outputs": [],
      "stateMutability": "nonpayable",
      "type": "function"
    },
    {
      "inputs": [
        {
          "internalType": "bytes4",
          "name": "interfaceId",
          "type": "bytes4"
        }
      ],
      "name": "supportsInterface",
      "outputs": [
        {
          "internalType": "bool",
          "name": "",
          "type": "bool"
        }
      ],
      "stateMutability": "view",
      "type": "function"
    },
    {
      "inputs": [
        {
          "internalType": "uint256",
          "name": "tokenId",
          "type": "uint256"
        },
        {
          "internalType": "uint256",
          "name": "desiredToken",
          "type": "uint256"
        },
        {
          "internalType": "uint256",
          "name": "amount",
          "type": "uint256"
        }
      ],
      "name": "tradeToken",
      "outputs": [],
      "stateMutability": "nonpayable",
      "type": "function"
    },
    {
      "inputs": [
        {
          "internalType": "uint256",
          "name": "",
          "type": "uint256"
        }
      ],
      "name": "uri",
      "outputs": [
        {
          "internalType": "string",
          "name": "",
          "type": "string"
        }
      ],
      "stateMutability": "view",
      "type": "function"
    }
  ],
  "bytecode": "0x60806040523480156200001157600080fd5b506040518060600160405280603a81526020016200429f603a91396200003d816200005960201b60201c565b50620000536000801b336200007560201b60201c565b620002ef565b806002908051906020019062000071929190620001da565b5050565b6200008782826200016760201b60201c565b620001635760016003600084815260200190815260200160002060000160008373ffffffffffffffffffffffffffffffffffffffff1673ffffffffffffffffffffffffffffffffffffffff16815260200190815260200160002060006101000a81548160ff02191690831515021790555062000108620001d260201b60201c565b73ffffffffffffffffffffffffffffffffffffffff168173ffffffffffffffffffffffffffffffffffffffff16837f2f8788117e7eff1d82e926ec794901d17c78024a50270940304540a733656f0d60405160405180910390a45b5050565b60006003600084815260200190815260200160002060000160008373ffffffffffffffffffffffffffffffffffffffff1673ffffffffffffffffffffffffffffffffffffffff16815260200190815260200160002060009054906101000a900460ff16905092915050565b600033905090565b828054620001e8906200028a565b90600052602060002090601f0160209004810192826200020c576000855562000258565b82601f106200022757805160ff191683800117855562000258565b8280016001018555821562000258579182015b82811115620002575782518255916020019190600101906200023a565b5b5090506200026791906200026b565b5090565b5b80821115620002865760008160009055506001016200026c565b5090565b60006002820490506001821680620002a357607f821691505b60208210811415620002ba57620002b9620002c0565b5b50919050565b7f4e487b7100000000000000000000000000000000000000000000000000000000600052602260045260246000fd5b613fa080620002ff6000396000f3fe608060405234801561001057600080fd5b50600436106101575760003560e01c80637ae178b8116100c3578063c1b0adc91161007c578063c1b0adc9146103e8578063d539139314610406578063d547741f14610424578063e985e9c514610440578063f242432a14610470578063f5298aca1461048c57610157565b80637ae178b8146103145780637d2632451461034457806391d148541461036257806398e783f014610392578063a217fddf146103ae578063a22cb465146103cc57610157565b80632f2ff15d116101155780632f2ff15d1461025457806336568abe1461027057806344c14e961461028c5780634e1273f4146102a857806367dde6d5146102d85780636ad9e4b5146102f657610157565b8062fdd58e1461015c57806301ffc9a71461018c5780630e89341c146101bc578063156e29f6146101ec578063248a9ca3146102085780632eb2c2d614610238575b600080fd5b61017660048036038101906101719190612b27565b6104a8565b60405161018391906134bd565b60405180910390f35b6101a660048036038101906101a19190612c9f565b610571565b6040516101b39190613285565b60405180910390f35b6101d660048036038101906101d19190612cf9565b610583565b6040516101e391906132bb565b60405180910390f35b61020660048036038101906102019190612b67565b610617565b005b610222600480360381019061021d9190612c32565b6107df565b60405161022f91906132a0565b60405180910390f35b610252600480360381019061024d9190612981565b6107ff565b005b61026e60048036038101906102699190612c5f565b6108a0565b005b61028a60048036038101906102859190612c5f565b6108c1565b005b6102a660048036038101906102a19190612914565b610944565b005b6102c260048036038101906102bd9190612bba565b610ac3565b6040516102cf919061322c565b60405180910390f35b6102e0610bdc565b6040516102ed91906134bd565b60405180910390f35b6102fe610be1565b60405161030b91906134bd565b60405180910390f35b61032e60048036038101906103299190612b27565b610be6565b60405161033b91906134bd565b60405180910390f35b61034c610c41565b60405161035991906134bd565b60405180910390f35b61037c60048036038101906103779190612c5f565b610c46565b6040516103899190613285565b60405180910390f35b6103ac60048036038101906103a79190612d26565b610cb1565b005b6103b6610dac565b6040516103c391906132a0565b60405180910390f35b6103e660048036038101906103e19190612ae7565b610db3565b005b6103f0610dc9565b6040516103fd91906134bd565b60405180910390f35b61040e610dce565b60405161041b91906132a0565b60405180910390f35b61043e60048036038101906104399190612c5f565b610df2565b005b61045a60048036038101906104559190612941565b610e13565b6040516104679190613285565b60405180910390f35b61048a60048036038101906104859190612a50565b610ea7565b005b6104a660048036038101906104a19190612b67565b610f48565b005b60008073ffffffffffffffffffffffffffffffffffffffff168373ffffffffffffffffffffffffffffffffffffffff161415610519576040517f08c379a00000000000000000000000000000000000000000000000000000000081526004016105109061333d565b60405180910390fd5b60008083815260200190815260200160002060008473ffffffffffffffffffffffffffffffffffffffff1673ffffffffffffffffffffffffffffffffffffffff16815260200190815260200160002054905092915050565b600061057c826110b9565b9050919050565b606060028054610592906137f9565b80601f01602080910402602001604051908101604052809291908181526020018280546105be906137f9565b801561060b5780601f106105e05761010080835404028352916020019161060b565b820191906000526020600020905b8154815290600101906020018083116105ee57829003601f168201915b50505050509050919050565b6002821161070f57603c600560008573ffffffffffffffffffffffffffffffffffffffff1673ffffffffffffffffffffffffffffffffffffffff1681526020019081526020016000206000848152602001908152602001600020544261067d91906136db565b10156106b5576040517f3b5a910b00000000000000000000000000000000000000000000000000000000815260040160405180910390fd5b42600560008573ffffffffffffffffffffffffffffffffffffffff1673ffffffffffffffffffffffffffffffffffffffff168152602001908152602001600020600084815260200190815260200160002081905550610770565b6107397f9f2df0fed2c77648de5860a4cc508cd0818c85b8b8a1ab4ceeef8d981c8956a633610c46565b61076f576040517f7b628f9f00000000000000000000000000000000000000000000000000000000815260040160405180910390fd5b5b61078b83838360405180602001604052806000815250611133565b818373ffffffffffffffffffffffffffffffffffffffff167f25b428dfde728ccfaddad7e29e4ac23c24ed7fd1a6e3e3f91894a9a073f5dfff836040516107d291906134bd565b60405180910390a3505050565b600060036000838152602001908152602001600020600101549050919050565b6108076112e4565b73ffffffffffffffffffffffffffffffffffffffff168573ffffffffffffffffffffffffffffffffffffffff16148061084d575061084c856108476112e4565b610e13565b5b61088c576040517f08c379a00000000000000000000000000000000000000000000000000000000081526004016108839061335d565b60405180910390fd5b61089985858585856112ec565b5050505050565b6108a9826107df565b6108b28161160e565b6108bc8383611622565b505050565b6108c96112e4565b73ffffffffffffffffffffffffffffffffffffffff168173ffffffffffffffffffffffffffffffffffffffff1614610936576040517f08c379a000000000000000000000000000000000000000000000000000000000815260040161092d9061349d565b60405180910390fd5b6109408282611703565b5050565b6109516000801b33610c46565b610990576040517f08c379a00000000000000000000000000000000000000000000000000000000081526004016109879061337d565b60405180910390fd5b600073ffffffffffffffffffffffffffffffffffffffff16600460009054906101000a900473ffffffffffffffffffffffffffffffffffffffff1673ffffffffffffffffffffffffffffffffffffffff1614610a3357610a327f9f2df0fed2c77648de5860a4cc508cd0818c85b8b8a1ab4ceeef8d981c8956a6600460009054906101000a900473ffffffffffffffffffffffffffffffffffffffff16610df2565b5b80600460006101000a81548173ffffffffffffffffffffffffffffffffffffffff021916908373ffffffffffffffffffffffffffffffffffffffff160217905550610ac07f9f2df0fed2c77648de5860a4cc508cd0818c85b8b8a1ab4ceeef8d981c8956a6600460009054906101000a900473ffffffffffffffffffffffffffffffffffffffff166108a0565b50565b60608151835114610b09576040517f08c379a0000000000000000000000000000000000000000000000000000000008152600401610b009061341d565b60405180910390fd5b6000835167ffffffffffffffff811115610b2657610b25613932565b5b604051908082528060200260200182016040528015610b545781602001602082028036833780820191505090505b50905060005b8451811015610bd157610ba1858281518110610b7957610b78613903565b5b6020026020010151858381518110610b9457610b93613903565b5b60200260200101516104a8565b828281518110610bb457610bb3613903565b5b60200260200101818152505080610bca9061385c565b9050610b5a565b508091505092915050565b600281565b600181565b6000600560008473ffffffffffffffffffffffffffffffffffffffff1673ffffffffffffffffffffffffffffffffffffffff168152602001908152602001600020600083815260200190815260200160002054905092915050565b603c81565b60006003600084815260200190815260200160002060000160008373ffffffffffffffffffffffffffffffffffffffff1673ffffffffffffffffffffffffffffffffffffffff16815260200190815260200160002060009054906101000a900460ff16905092915050565b60038310158015610cc3575060068311155b610cf9576040517f95726d7700000000000000000000000000000000000000000000000000000000815260040160405180910390fd5b60008210158015610d0b575060028211155b610d41576040517f95726d7700000000000000000000000000000000000000000000000000000000815260040160405180910390fd5b610d4c3384836117e5565b610d57338383610617565b81833373ffffffffffffffffffffffffffffffffffffffff167f17c5b36beecc08bb34c131595b72648615701863750cb5dd40952abd4128af7784604051610d9f91906134bd565b60405180910390a4505050565b6000801b81565b610dc5610dbe6112e4565b8383611a2c565b5050565b600081565b7f9f2df0fed2c77648de5860a4cc508cd0818c85b8b8a1ab4ceeef8d981c8956a681565b610dfb826107df565b610e048161160e565b610e0e8383611703565b505050565b6000600160008473ffffffffffffffffffffffffffffffffffffffff1673ffffffffffffffffffffffffffffffffffffffff16815260200190815260200160002060008373ffffffffffffffffffffffffffffffffffffffff1673ffffffffffffffffffffffffffffffffffffffff16815260200190815260200160002060009054906101000a900460ff16905092915050565b610eaf6112e4565b73ffffffffffffffffffffffffffffffffffffffff168573ffffffffffffffffffffffffffffffffffffffff161480610ef55750610ef485610eef6112e4565b610e13565b5b610f34576040517f08c379a0000000000000000000000000000000000000000000000000000000008152600401610f2b9061335d565b60405180910390fd5b610f418585858585611b99565b5050505050565b8273ffffffffffffffffffffffffffffffffffffffff163373ffffffffffffffffffffffffffffffffffffffff1614158015610fd25750600460009054906101000a900473ffffffffffffffffffffffffffffffffffffffff1673ffffffffffffffffffffffffffffffffffffffff163373ffffffffffffffffffffffffffffffffffffffff1614155b15611009576040517f061ca29800000000000000000000000000000000000000000000000000000000815260040160405180910390fd5b60008210806110185750600282115b80156110725750600460009054906101000a900473ffffffffffffffffffffffffffffffffffffffff1673ffffffffffffffffffffffffffffffffffffffff163373ffffffffffffffffffffffffffffffffffffffff1614155b156110a9576040517fdc1be6e600000000000000000000000000000000000000000000000000000000815260040160405180910390fd5b6110b48383836117e5565b505050565b60007f7965db0b000000000000000000000000000000000000000000000000000000007bffffffffffffffffffffffffffffffffffffffffffffffffffffffff1916827bffffffffffffffffffffffffffffffffffffffffffffffffffffffff1916148061112c575061112b82611e35565b5b9050919050565b600073ffffffffffffffffffffffffffffffffffffffff168473ffffffffffffffffffffffffffffffffffffffff1614156111a3576040517f08c379a000000000000000000000000000000000000000000000000000000000815260040161119a9061345d565b60405180910390fd5b60006111ad6112e4565b905060006111ba85611f17565b905060006111c785611f17565b90506111d883600089858589611f91565b8460008088815260200190815260200160002060008973ffffffffffffffffffffffffffffffffffffffff1673ffffffffffffffffffffffffffffffffffffffff1681526020019081526020016000206000828254611237919061362b565b925050819055508673ffffffffffffffffffffffffffffffffffffffff16600073ffffffffffffffffffffffffffffffffffffffff168473ffffffffffffffffffffffffffffffffffffffff167fc3d58168c5ae7397731d063d5bbf3d657854427343f4c083240f7aacaa2d0f6289896040516112b59291906134d8565b60405180910390a46112cc83600089858589611f99565b6112db83600089898989611fa1565b50505050505050565b600033905090565b8151835114611330576040517f08c379a00000000000000000000000000000000000000000000000000000000081526004016113279061343d565b60405180910390fd5b600073ffffffffffffffffffffffffffffffffffffffff168473ffffffffffffffffffffffffffffffffffffffff1614156113a0576040517f08c379a00000000000000000000000000000000000000000000000000000000081526004016113979061339d565b60405180910390fd5b60006113aa6112e4565b90506113ba818787878787611f91565b60005b845181101561156b5760008582815181106113db576113da613903565b5b6020026020010151905060008583815181106113fa576113f9613903565b5b60200260200101519050600080600084815260200190815260200160002060008b73ffffffffffffffffffffffffffffffffffffffff1673ffffffffffffffffffffffffffffffffffffffff1681526020019081526020016000205490508181101561149b576040517f08c379a0000000000000000000000000000000000000000000000000000000008152600401611492906133dd565b60405180910390fd5b81810360008085815260200190815260200160002060008c73ffffffffffffffffffffffffffffffffffffffff1673ffffffffffffffffffffffffffffffffffffffff168152602001908152602001600020819055508160008085815260200190815260200160002060008b73ffffffffffffffffffffffffffffffffffffffff1673ffffffffffffffffffffffffffffffffffffffff1681526020019081526020016000206000828254611550919061362b565b92505081905550505050806115649061385c565b90506113bd565b508473ffffffffffffffffffffffffffffffffffffffff168673ffffffffffffffffffffffffffffffffffffffff168273ffffffffffffffffffffffffffffffffffffffff167f4a39dc06d4c0dbc64b70af90fd698a233a518aa5d07e595d983b8c0526c8f7fb87876040516115e292919061324e565b60405180910390a46115f8818787878787611f99565b611606818787878787612188565b505050505050565b61161f8161161a6112e4565b61236f565b50565b61162c8282610c46565b6116ff5760016003600084815260200190815260200160002060000160008373ffffffffffffffffffffffffffffffffffffffff1673ffffffffffffffffffffffffffffffffffffffff16815260200190815260200160002060006101000a81548160ff0219169083151502179055506116a46112e4565b73ffffffffffffffffffffffffffffffffffffffff168173ffffffffffffffffffffffffffffffffffffffff16837f2f8788117e7eff1d82e926ec794901d17c78024a50270940304540a733656f0d60405160405180910390a45b5050565b61170d8282610c46565b156117e15760006003600084815260200190815260200160002060000160008373ffffffffffffffffffffffffffffffffffffffff1673ffffffffffffffffffffffffffffffffffffffff16815260200190815260200160002060006101000a81548160ff0219169083151502179055506117866112e4565b73ffffffffffffffffffffffffffffffffffffffff168173ffffffffffffffffffffffffffffffffffffffff16837ff6391f5c32d9c69d2a47ea670b442974b53935d1edc7fd64eb21e047a839171b60405160405180910390a45b5050565b600073ffffffffffffffffffffffffffffffffffffffff168373ffffffffffffffffffffffffffffffffffffffff161415611855576040517f08c379a000000000000000000000000000000000000000000000000000000000815260040161184c906133bd565b60405180910390fd5b600061185f6112e4565b9050600061186c84611f17565b9050600061187984611f17565b905061189983876000858560405180602001604052806000815250611f91565b600080600087815260200190815260200160002060008873ffffffffffffffffffffffffffffffffffffffff1673ffffffffffffffffffffffffffffffffffffffff16815260200190815260200160002054905084811015611930576040517f08c379a00000000000000000000000000000000000000000000000000000000081526004016119279061331d565b60405180910390fd5b84810360008088815260200190815260200160002060008973ffffffffffffffffffffffffffffffffffffffff1673ffffffffffffffffffffffffffffffffffffffff16815260200190815260200160002081905550600073ffffffffffffffffffffffffffffffffffffffff168773ffffffffffffffffffffffffffffffffffffffff168573ffffffffffffffffffffffffffffffffffffffff167fc3d58168c5ae7397731d063d5bbf3d657854427343f4c083240f7aacaa2d0f6289896040516119fd9291906134d8565b60405180910390a4611a2384886000868660405180602001604052806000815250611f99565b50505050505050565b8173ffffffffffffffffffffffffffffffffffffffff168373ffffffffffffffffffffffffffffffffffffffff161415611a9b576040517f08c379a0000000000000000000000000000000000000000000000000000000008152600401611a92906133fd565b60405180910390fd5b80600160008573ffffffffffffffffffffffffffffffffffffffff1673ffffffffffffffffffffffffffffffffffffffff16815260200190815260200160002060008473ffffffffffffffffffffffffffffffffffffffff1673ffffffffffffffffffffffffffffffffffffffff16815260200190815260200160002060006101000a81548160ff0219169083151502179055508173ffffffffffffffffffffffffffffffffffffffff168373ffffffffffffffffffffffffffffffffffffffff167f17307eab39ab6107e8899845ad3d59bd9653f200f220920489ca2b5937696c3183604051611b8c9190613285565b60405180910390a3505050565b600073ffffffffffffffffffffffffffffffffffffffff168473ffffffffffffffffffffffffffffffffffffffff161415611c09576040517f08c379a0000000000000000000000000000000000000000000000000000000008152600401611c009061339d565b60405180910390fd5b6000611c136112e4565b90506000611c2085611f17565b90506000611c2d85611f17565b9050611c3d838989858589611f91565b600080600088815260200190815260200160002060008a73ffffffffffffffffffffffffffffffffffffffff1673ffffffffffffffffffffffffffffffffffffffff16815260200190815260200160002054905085811015611cd4576040517f08c379a0000000000000000000000000000000000000000000000000000000008152600401611ccb906133dd565b60405180910390fd5b85810360008089815260200190815260200160002060008b73ffffffffffffffffffffffffffffffffffffffff1673ffffffffffffffffffffffffffffffffffffffff168152602001908152602001600020819055508560008089815260200190815260200160002060008a73ffffffffffffffffffffffffffffffffffffffff1673ffffffffffffffffffffffffffffffffffffffff1681526020019081526020016000206000828254611d89919061362b565b925050819055508773ffffffffffffffffffffffffffffffffffffffff168973ffffffffffffffffffffffffffffffffffffffff168573ffffffffffffffffffffffffffffffffffffffff167fc3d58168c5ae7397731d063d5bbf3d657854427343f4c083240f7aacaa2d0f628a8a604051611e069291906134d8565b60405180910390a4611e1c848a8a86868a611f99565b611e2a848a8a8a8a8a611fa1565b505050505050505050565b60007fd9b67a26000000000000000000000000000000000000000000000000000000007bffffffffffffffffffffffffffffffffffffffffffffffffffffffff1916827bffffffffffffffffffffffffffffffffffffffffffffffffffffffff19161480611f0057507f0e89341c000000000000000000000000000000000000000000000000000000007bffffffffffffffffffffffffffffffffffffffffffffffffffffffff1916827bffffffffffffffffffffffffffffffffffffffffffffffffffffffff1916145b80611f105750611f0f826123f4565b5b9050919050565b60606000600167ffffffffffffffff811115611f3657611f35613932565b5b604051908082528060200260200182016040528015611f645781602001602082028036833780820191505090505b5090508281600081518110611f7c57611f7b613903565b5b60200260200101818152505080915050919050565b505050505050565b505050505050565b611fc08473ffffffffffffffffffffffffffffffffffffffff1661245e565b15612180578373ffffffffffffffffffffffffffffffffffffffff1663f23a6e6187878686866040518663ffffffff1660e01b81526004016120069594939291906131d2565b602060405180830381600087803b15801561202057600080fd5b505af192505050801561205157506040513d601f19601f8201168201806040525081019061204e9190612ccc565b60015b6120f75761205d613961565b806308c379a014156120ba5750612072613e61565b8061207d57506120bc565b806040517f08c379a00000000000000000000000000000000000000000000000000000000081526004016120b191906132bb565b60405180910390fd5b505b6040517f08c379a00000000000000000000000000000000000000000000000000000000081526004016120ee9061347d565b60405180910390fd5b63f23a6e6160e01b7bffffffffffffffffffffffffffffffffffffffffffffffffffffffff1916817bffffffffffffffffffffffffffffffffffffffffffffffffffffffff19161461217e576040517f08c379a0000000000000000000000000000000000000000000000000000000008152600401612175906132fd565b60405180910390fd5b505b505050505050565b6121a78473ffffffffffffffffffffffffffffffffffffffff1661245e565b15612367578373ffffffffffffffffffffffffffffffffffffffff1663bc197c8187878686866040518663ffffffff1660e01b81526004016121ed95949392919061316a565b602060405180830381600087803b15801561220757600080fd5b505af192505050801561223857506040513d601f19601f820116820180604052508101906122359190612ccc565b60015b6122de57612244613961565b806308c379a014156122a15750612259613e61565b8061226457506122a3565b806040517f08c379a000000000000000000000000000000000000000000000000000000000815260040161229891906132bb565b60405180910390fd5b505b6040517f08c379a00000000000000000000000000000000000000000000000000000000081526004016122d59061347d565b60405180910390fd5b63bc197c8160e01b7bffffffffffffffffffffffffffffffffffffffffffffffffffffffff1916817bffffffffffffffffffffffffffffffffffffffffffffffffffffffff191614612365576040517f08c379a000000000000000000000000000000000000000000000000000000000815260040161235c906132fd565b60405180910390fd5b505b505050505050565b6123798282610c46565b6123f05761238681612481565b6123948360001c60206124ae565b6040516020016123a5929190613130565b6040516020818303038152906040526040517f08c379a00000000000000000000000000000000000000000000000000000000081526004016123e791906132bb565b60405180910390fd5b5050565b60007f01ffc9a7000000000000000000000000000000000000000000000000000000007bffffffffffffffffffffffffffffffffffffffffffffffffffffffff1916827bffffffffffffffffffffffffffffffffffffffffffffffffffffffff1916149050919050565b6000808273ffffffffffffffffffffffffffffffffffffffff163b119050919050565b60606124a78273ffffffffffffffffffffffffffffffffffffffff16601460ff166124ae565b9050919050565b6060600060028360026124c19190613681565b6124cb919061362b565b67ffffffffffffffff8111156124e4576124e3613932565b5b6040519080825280601f01601f1916602001820160405280156125165781602001600182028036833780820191505090505b5090507f30000000000000000000000000000000000000000000000000000000000000008160008151811061254e5761254d613903565b5b60200101907effffffffffffffffffffffffffffffffffffffffffffffffffffffffffffff1916908160001a9053507f7800000000000000000000000000000000000000000000000000000000000000816001815181106125b2576125b1613903565b5b60200101907effffffffffffffffffffffffffffffffffffffffffffffffffffffffffffff1916908160001a905350600060018460026125f29190613681565b6125fc919061362b565b90505b600181111561269c577f3031323334353637383961626364656600000000000000000000000000000000600f86166010811061263e5761263d613903565b5b1a60f81b82828151811061265557612654613903565b5b60200101907effffffffffffffffffffffffffffffffffffffffffffffffffffffffffffff1916908160001a905350600485901c945080612695906137cf565b90506125ff565b50600084146126e0576040517f08c379a00000000000000000000000000000000000000000000000000000000081526004016126d7906132dd565b60405180910390fd5b8091505092915050565b60006126fd6126f884613526565b613501565b905080838252602082019050828560208602820111156127205761271f613988565b5b60005b858110156127505781612736888261280c565b845260208401935060208301925050600181019050612723565b5050509392505050565b600061276d61276884613552565b613501565b905080838252602082019050828560208602820111156127905761278f613988565b5b60005b858110156127c057816127a688826128ff565b845260208401935060208301925050600181019050612793565b5050509392505050565b60006127dd6127d88461357e565b613501565b9050828152602081018484840111156127f9576127f861398d565b5b61280484828561378d565b509392505050565b60008135905061281b81613ef7565b92915050565b600082601f83011261283657612835613983565b5b81356128468482602086016126ea565b91505092915050565b600082601f83011261286457612863613983565b5b813561287484826020860161275a565b91505092915050565b60008135905061288c81613f0e565b92915050565b6000813590506128a181613f25565b92915050565b6000813590506128b681613f3c565b92915050565b6000815190506128cb81613f3c565b92915050565b600082601f8301126128e6576128e5613983565b5b81356128f68482602086016127ca565b91505092915050565b60008135905061290e81613f53565b92915050565b60006020828403121561292a57612929613997565b5b60006129388482850161280c565b91505092915050565b6000806040838503121561295857612957613997565b5b60006129668582860161280c565b92505060206129778582860161280c565b9150509250929050565b600080600080600060a0868803121561299d5761299c613997565b5b60006129ab8882890161280c565b95505060206129bc8882890161280c565b945050604086013567ffffffffffffffff8111156129dd576129dc613992565b5b6129e98882890161284f565b935050606086013567ffffffffffffffff811115612a0a57612a09613992565b5b612a168882890161284f565b925050608086013567ffffffffffffffff811115612a3757612a36613992565b5b612a43888289016128d1565b9150509295509295909350565b600080600080600060a08688031215612a6c57612a6b613997565b5b6000612a7a8882890161280c565b9550506020612a8b8882890161280c565b9450506040612a9c888289016128ff565b9350506060612aad888289016128ff565b925050608086013567ffffffffffffffff811115612ace57612acd613992565b5b612ada888289016128d1565b9150509295509295909350565b60008060408385031215612afe57612afd613997565b5b6000612b0c8582860161280c565b9250506020612b1d8582860161287d565b9150509250929050565b60008060408385031215612b3e57612b3d613997565b5b6000612b4c8582860161280c565b9250506020612b5d858286016128ff565b9150509250929050565b600080600060608486031215612b8057612b7f613997565b5b6000612b8e8682870161280c565b9350506020612b9f868287016128ff565b9250506040612bb0868287016128ff565b9150509250925092565b60008060408385031215612bd157612bd0613997565b5b600083013567ffffffffffffffff811115612bef57612bee613992565b5b612bfb85828601612821565b925050602083013567ffffffffffffffff811115612c1c57612c1b613992565b5b612c288582860161284f565b9150509250929050565b600060208284031215612c4857612c47613997565b5b6000612c5684828501612892565b91505092915050565b60008060408385031215612c7657612c75613997565b5b6000612c8485828601612892565b9250506020612c958582860161280c565b9150509250929050565b600060208284031215612cb557612cb4613997565b5b6000612cc3848285016128a7565b91505092915050565b600060208284031215612ce257612ce1613997565b5b6000612cf0848285016128bc565b91505092915050565b600060208284031215612d0f57612d0e613997565b5b6000612d1d848285016128ff565b91505092915050565b600080600060608486031215612d3f57612d3e613997565b5b6000612d4d868287016128ff565b9350506020612d5e868287016128ff565b9250506040612d6f868287016128ff565b9150509250925092565b6000612d858383613112565b60208301905092915050565b612d9a8161370f565b82525050565b6000612dab826135bf565b612db581856135ed565b9350612dc0836135af565b8060005b83811015612df1578151612dd88882612d79565b9750612de3836135e0565b925050600181019050612dc4565b5085935050505092915050565b612e0781613721565b82525050565b612e168161372d565b82525050565b6000612e27826135ca565b612e3181856135fe565b9350612e4181856020860161379c565b612e4a8161399c565b840191505092915050565b6000612e60826135d5565b612e6a818561360f565b9350612e7a81856020860161379c565b612e838161399c565b840191505092915050565b6000612e99826135d5565b612ea38185613620565b9350612eb381856020860161379c565b80840191505092915050565b6000612ecc60208361360f565b9150612ed7826139ba565b602082019050919050565b6000612eef60288361360f565b9150612efa826139e3565b604082019050919050565b6000612f1260248361360f565b9150612f1d82613a32565b604082019050919050565b6000612f35602a8361360f565b9150612f4082613a81565b604082019050919050565b6000612f58602e8361360f565b9150612f6382613ad0565b604082019050919050565b6000612f7b600c8361360f565b9150612f8682613b1f565b602082019050919050565b6000612f9e60258361360f565b9150612fa982613b48565b604082019050919050565b6000612fc160238361360f565b9150612fcc82613b97565b604082019050919050565b6000612fe4602a8361360f565b9150612fef82613be6565b604082019050919050565b6000613007601783613620565b915061301282613c35565b601782019050919050565b600061302a60298361360f565b915061303582613c5e565b604082019050919050565b600061304d60298361360f565b915061305882613cad565b604082019050919050565b600061307060288361360f565b915061307b82613cfc565b604082019050919050565b600061309360218361360f565b915061309e82613d4b565b604082019050919050565b60006130b660348361360f565b91506130c182613d9a565b604082019050919050565b60006130d9601183613620565b91506130e482613de9565b601182019050919050565b60006130fc602f8361360f565b915061310782613e12565b604082019050919050565b61311b81613783565b82525050565b61312a81613783565b82525050565b600061313b82612ffa565b91506131478285612e8e565b9150613152826130cc565b915061315e8284612e8e565b91508190509392505050565b600060a08201905061317f6000830188612d91565b61318c6020830187612d91565b818103604083015261319e8186612da0565b905081810360608301526131b28185612da0565b905081810360808301526131c68184612e1c565b90509695505050505050565b600060a0820190506131e76000830188612d91565b6131f46020830187612d91565b6132016040830186613121565b61320e6060830185613121565b81810360808301526132208184612e1c565b90509695505050505050565b600060208201905081810360008301526132468184612da0565b905092915050565b600060408201905081810360008301526132688185612da0565b9050818103602083015261327c8184612da0565b90509392505050565b600060208201905061329a6000830184612dfe565b92915050565b60006020820190506132b56000830184612e0d565b92915050565b600060208201905081810360008301526132d58184612e55565b905092915050565b600060208201905081810360008301526132f681612ebf565b9050919050565b6000602082019050818103600083015261331681612ee2565b9050919050565b6000602082019050818103600083015261333681612f05565b9050919050565b6000602082019050818103600083015261335681612f28565b9050919050565b6000602082019050818103600083015261337681612f4b565b9050919050565b6000602082019050818103600083015261339681612f6e565b9050919050565b600060208201905081810360008301526133b681612f91565b9050919050565b600060208201905081810360008301526133d681612fb4565b9050919050565b600060208201905081810360008301526133f681612fd7565b9050919050565b600060208201905081810360008301526134168161301d565b9050919050565b6000602082019050818103600083015261343681613040565b9050919050565b6000602082019050818103600083015261345681613063565b9050919050565b6000602082019050818103600083015261347681613086565b9050919050565b60006020820190508181036000830152613496816130a9565b9050919050565b600060208201905081810360008301526134b6816130ef565b9050919050565b60006020820190506134d26000830184613121565b92915050565b60006040820190506134ed6000830185613121565b6134fa6020830184613121565b9392505050565b600061350b61351c565b9050613517828261382b565b919050565b6000604051905090565b600067ffffffffffffffff82111561354157613540613932565b5b602082029050602081019050919050565b600067ffffffffffffffff82111561356d5761356c613932565b5b602082029050602081019050919050565b600067ffffffffffffffff82111561359957613598613932565b5b6135a28261399c565b9050602081019050919050565b6000819050602082019050919050565b600081519050919050565b600081519050919050565b600081519050919050565b6000602082019050919050565b600082825260208201905092915050565b600082825260208201905092915050565b600082825260208201905092915050565b600081905092915050565b600061363682613783565b915061364183613783565b9250827fffffffffffffffffffffffffffffffffffffffffffffffffffffffffffffffff03821115613676576136756138a5565b5b828201905092915050565b600061368c82613783565b915061369783613783565b9250817fffffffffffffffffffffffffffffffffffffffffffffffffffffffffffffffff04831182151516156136d0576136cf6138a5565b5b828202905092915050565b60006136e682613783565b91506136f183613783565b925082821015613704576137036138a5565b5b828203905092915050565b600061371a82613763565b9050919050565b60008115159050919050565b6000819050919050565b60007fffffffff0000000000000000000000000000000000000000000000000000000082169050919050565b600073ffffffffffffffffffffffffffffffffffffffff82169050919050565b6000819050919050565b82818337600083830152505050565b60005b838110156137ba57808201518184015260208101905061379f565b838111156137c9576000848401525b50505050565b60006137da82613783565b915060008214156137ee576137ed6138a5565b5b600182039050919050565b6000600282049050600182168061381157607f821691505b60208210811415613825576138246138d4565b5b50919050565b6138348261399c565b810181811067ffffffffffffffff8211171561385357613852613932565b5b80604052505050565b600061386782613783565b91507fffffffffffffffffffffffffffffffffffffffffffffffffffffffffffffffff82141561389a576138996138a5565b5b600182019050919050565b7f4e487b7100000000000000000000000000000000000000000000000000000000600052601160045260246000fd5b7f4e487b7100000000000000000000000000000000000000000000000000000000600052602260045260246000fd5b7f4e487b7100000000000000000000000000000000000000000000000000000000600052603260045260246000fd5b7f4e487b7100000000000000000000000000000000000000000000000000000000600052604160045260246000fd5b600060033d11156139805760046000803e61397d6000516139ad565b90505b90565b600080fd5b600080fd5b600080fd5b600080fd5b600080fd5b6000601f19601f8301169050919050565b60008160e01c9050919050565b7f537472696e67733a20686578206c656e67746820696e73756666696369656e74600082015250565b7f455243313135353a204552433131353552656365697665722072656a6563746560008201527f6420746f6b656e73000000000000000000000000000000000000000000000000602082015250565b7f455243313135353a206275726e20616d6f756e7420657863656564732062616c60008201527f616e636500000000000000000000000000000000000000000000000000000000602082015250565b7f455243313135353a2061646472657373207a65726f206973206e6f742061207660008201527f616c6964206f776e657200000000000000000000000000000000000000000000602082015250565b7f455243313135353a2063616c6c6572206973206e6f7420746f6b656e206f776e60008201527f6572206f7220617070726f766564000000000000000000000000000000000000602082015250565b7f4e6f7420616e2061646d696e0000000000000000000000000000000000000000600082015250565b7f455243313135353a207472616e7366657220746f20746865207a65726f20616460008201527f6472657373000000000000000000000000000000000000000000000000000000602082015250565b7f455243313135353a206275726e2066726f6d20746865207a65726f206164647260008201527f6573730000000000000000000000000000000000000000000000000000000000602082015250565b7f455243313135353a20696e73756666696369656e742062616c616e636520666f60008201527f72207472616e7366657200000000000000000000000000000000000000000000602082015250565b7f416363657373436f6e74726f6c3a206163636f756e7420000000000000000000600082015250565b7f455243313135353a2073657474696e6720617070726f76616c2073746174757360008201527f20666f722073656c660000000000000000000000000000000000000000000000602082015250565b7f455243313135353a206163636f756e747320616e6420696473206c656e67746860008201527f206d69736d617463680000000000000000000000000000000000000000000000602082015250565b7f455243313135353a2069647320616e6420616d6f756e7473206c656e6774682060008201527f6d69736d61746368000000000000000000000000000000000000000000000000602082015250565b7f455243313135353a206d696e7420746f20746865207a65726f2061646472657360008201527f7300000000000000000000000000000000000000000000000000000000000000602082015250565b7f455243313135353a207472616e7366657220746f206e6f6e2d4552433131353560008201527f526563656976657220696d706c656d656e746572000000000000000000000000602082015250565b7f206973206d697373696e6720726f6c6520000000000000000000000000000000600082015250565b7f416363657373436f6e74726f6c3a2063616e206f6e6c792072656e6f756e636560008201527f20726f6c657320666f722073656c660000000000000000000000000000000000602082015250565b600060443d1015613e7157613ef4565b613e7961351c565b60043d036004823e80513d602482011167ffffffffffffffff82111715613ea1575050613ef4565b808201805167ffffffffffffffff811115613ebf5750505050613ef4565b80602083010160043d038501811115613edc575050505050613ef4565b613eeb8260200185018661382b565b82955050505050505b90565b613f008161370f565b8114613f0b57600080fd5b50565b613f1781613721565b8114613f2257600080fd5b50565b613f2e8161372d565b8114613f3957600080fd5b50565b613f4581613737565b8114613f5057600080fd5b50565b613f5c81613783565b8114613f6757600080fd5b5056fea2646970667358221220eb8ad178781e449f5d186a584cf7f22a67d6b76c110144f548378a8572d428de64736f6c63430008070033697066733a2f2f516d64704559774a6972634634714835696d4a4734624a5433544836724e59787a434c32643842346247375568792f7b69647d",
  "linkReferences": {},
  "deployedLinkReferences": {}
}